{
  "transactions": [
    {
      "hash": "0xf434965380eb580acfd8e174a8436b131c3ab4654b6da10bc1dd072802f93453",
      "transactionType": "CREATE",
      "contractName": "W3LC2024Facet",
      "contractAddress": "0xa9e741093e59af4c4636cdcb103c66e81a3cf9f8",
      "function": null,
      "arguments": null,
      "transaction": {
        "from": "0xfb0c1e0a4ded6df74e5caa07924aa3f8272ad0b8",
        "gas": "0xca680",
        "value": "0x0",
        "input": "0x60808060405234601557610aa9908161001b8239f35b600080fdfe6080604052600436101561001257600080fd5b60003560e01c8063059fa3e51461084c5780633cef5c38146103795780633d3a01881461030a5780636f1537fb146102c5578063b7af5e3114610271578063ce715db4146100e55763f5f03e461461006957600080fd5b346100e05760207ffffffffffffffffffffffffffffffffffffffffffffffffffffffffffffffffc3601126100e05760043560038110156100e0576100b5906100b06109e8565b610976565b80547fffffffffffffffffffffffffffffffffffffffffffffffffffffffffffffff00166001179055005b600080fd5b346100e05760007ffffffffffffffffffffffffffffffffffffffffffffffffffffffffffffffffc3601126100e0576040516004548082528160208101600460005260206000209260005b818110610242575050610145925003826109a7565b604051906005548083528260208101600560005260206000209260005b818110610213575050610177925003836109a7565b604051916006548084526020840190600660005260206000209060005b8181106101e7576101c7866101e3896101d5896101b3838b03846109a7565b60405195869560608752606087019061092c565b90858203602087015261092c565b90838203604085015261092c565b0390f35b825473ffffffffffffffffffffffffffffffffffffffff16845260209093019260019283019201610194565b845473ffffffffffffffffffffffffffffffffffffffff16835260019485019487945060209093019201610162565b845473ffffffffffffffffffffffffffffffffffffffff16835260019485019486945060209093019201610130565b346100e05760207ffffffffffffffffffffffffffffffffffffffffffffffffffffffffffffffffc3601126100e05760043560038110156100e05760ff6102b9602092610976565b54166040519015158152f35b346100e057602060ff6102b96103056102dd366108d2565b919073ffffffffffffffffffffffffffffffffffffffff166000526003602052604060002090565b61098f565b346100e05760207ffffffffffffffffffffffffffffffffffffffffffffffffffffffffffffffffc3601126100e05760043560038110156100e057610351906100b06109e8565b80547fffffffffffffffffffffffffffffffffffffffffffffffffffffffffffffff00169055005b346100e057610387366108d2565b906103906109e8565b60ff61039b83610976565b54161561082257600160ff6103d4846103058573ffffffffffffffffffffffffffffffffffffffff166000526003602052604060002090565b54161515146107f85773ffffffffffffffffffffffffffffffffffffffff6000541690604051917f70a0823100000000000000000000000000000000000000000000000000000000835273ffffffffffffffffffffffffffffffffffffffff821692836004820152602081602481855afa9081156107ec576000916107ba575b50156106e0575b506003831015908161054757836105d45760045490680100000000000000008210156105a55760018201806004558210156105765761030585916104f3936004600052602060002001867fffffffffffffffffffffffff00000000000000000000000000000000000000008254161790555b73ffffffffffffffffffffffffffffffffffffffff166000526003602052604060002090565b60017fffffffffffffffffffffffffffffffffffffffffffffffffffffffffffffff00825416179055610547577fe7b959b47b3ab8dc30a0eafa6a02a27b209fde1e2edec29cbb6870fb46c14e54600080a3005b7f4e487b7100000000000000000000000000000000000000000000000000000000600052602160045260246000fd5b7f4e487b7100000000000000000000000000000000000000000000000000000000600052603260045260246000fd5b7f4e487b7100000000000000000000000000000000000000000000000000000000600052604160045260246000fd5b60009150600184036106455760055490680100000000000000008210156105a55760018201806005558210156105765761030585916104f3936005600052602060002001867fffffffffffffffffffffffff00000000000000000000000000000000000000008254161790556104cd565b60009150600284036106b65760065490680100000000000000008210156105a55760018201806006558210156105765761030585916104f3936006600052602060002001867fffffffffffffffffffffffff00000000000000000000000000000000000000008254161790556104cd565b7f38a76be30000000000000000000000000000000000000000000000000000000060005260046000fd5b600080916040518260208201917f2a240ef0000000000000000000000000000000000000000000000000000000008352876024820152602481526107256044826109a7565b51925af13d156107b5573d67ffffffffffffffff81116105a5576040519061077560207fffffffffffffffffffffffffffffffffffffffffffffffffffffffffffffffe0601f84011601836109a7565b8152600060203d92013e5b1561078b578361045b565b7f9ba5c7960000000000000000000000000000000000000000000000000000000060005260046000fd5b610780565b90506020813d6020116107e4575b816107d5602093836109a7565b810103126100e0575185610454565b3d91506107c8565b6040513d6000823e3d90fd5b7feca959ed0000000000000000000000000000000000000000000000000000000060005260046000fd5b7f9537da430000000000000000000000000000000000000000000000000000000060005260046000fd5b346100e05760207ffffffffffffffffffffffffffffffffffffffffffffffffffffffffffffffffc3601126100e05760043573ffffffffffffffffffffffffffffffffffffffff81168091036100e0576108a46109e8565b7fffffffffffffffffffffffff00000000000000000000000000000000000000006000541617600055600080f35b7ffffffffffffffffffffffffffffffffffffffffffffffffffffffffffffffffc60409101126100e05760043573ffffffffffffffffffffffffffffffffffffffff811681036100e0579060243560038110156100e05790565b906020808351928381520192019060005b81811061094a5750505090565b825173ffffffffffffffffffffffffffffffffffffffff1684526020938401939092019160010161093d565b6003811015610547576000526002602052604060002090565b90600381101561054757600052602052604060002090565b90601f7fffffffffffffffffffffffffffffffffffffffffffffffffffffffffffffffe0910116810190811067ffffffffffffffff8211176105a557604052565b3360009081527f4ee72e29e3bcddbe947bb2eba0e497db0f6efaa93b27fb4d2424b6da7a6c37fe602052604090205460ff1615610a2157565b7fe2517d3f00000000000000000000000000000000000000000000000000000000600052336004527fbb8a35a294558f718fbf2fb88113cd3e87529d53c5abd8ded00d735bd6ad760c60245260446000fdfea2646970667358221220e3c6a0bb4685fa0fda82a79c346ea9941fa70d33eda44f393f69c91ab02f9c0964736f6c634300081a0033",
        "nonce": "0x30",
        "chainId": "0x106a"
      },
      "additionalContracts": [],
      "isFixedGasLimit": false
    },
    {
      "hash": "0x4daafbc6f8996eca9bccaf7f425038319466ab8c85e71a5e5069d68215df4559",
      "transactionType": "CALL",
      "contractName": null,
      "contractAddress": "0x734328c180ef236a6cb7737132fe2b6a96201592",
      "function": "diamondCut((address,uint8,bytes4[])[],address,bytes)",
      "arguments": [
        "[(0xA9e741093E59Af4c4636cdcB103C66e81A3Cf9F8, 1, [0x3cef5c3800000000000000000000000000000000000000000000000000000000])]",
        "0x0000000000000000000000000000000000000000",
        "0x"
      ],
      "transaction": {
        "from": "0xfb0c1e0a4ded6df74e5caa07924aa3f8272ad0b8",
        "to": "0x734328c180ef236a6cb7737132fe2b6a96201592",
        "gas": "0x34fa2",
        "value": "0x0",
        "input": "0x1f931c1c00000000000000000000000000000000000000000000000000000000000000600000000000000000000000000000000000000000000000000000000000000000000000000000000000000000000000000000000000000000000000000000014000000000000000000000000000000000000000000000000000000000000000010000000000000000000000000000000000000000000000000000000000000020000000000000000000000000a9e741093e59af4c4636cdcb103c66e81a3cf9f80000000000000000000000000000000000000000000000000000000000000001000000000000000000000000000000000000000000000000000000000000006000000000000000000000000000000000000000000000000000000000000000013cef5c38000000000000000000000000000000000000000000000000000000000000000000000000000000000000000000000000000000000000000000000000",
        "nonce": "0x31",
        "chainId": "0x106a"
      },
      "additionalContracts": [],
      "isFixedGasLimit": false
    }
  ],
  "receipts": [
    {
      "status": "0x1",
      "cumulativeGasUsed": "0xa66fd",
      "logs": [],
      "logsBloom": "0x00000000000000000000000000000000000000000000000000000000000000000000000000000000000000000000000000000000000000000000000000000000000000000000000000000000000000000000000000000000000000000000000000000000000000000000000000000000000000000000000000000000000000000000000000000000000000000000000000000000000000000000000000000000000000000000000000000000000000000000000000000000000000000000000000000000000000000000000000000000000000000000000000000000000000000000000000000000000000000000000000000000000000000000000000000000",
      "type": "0x2",
      "transactionHash": "0xf434965380eb580acfd8e174a8436b131c3ab4654b6da10bc1dd072802f93453",
      "transactionIndex": "0x1",
      "blockHash": "0x014ab103f846f9c887cf7a4a114f5bb3e342cc1fd3d87b0b41643fdddfeef3ba",
      "blockNumber": "0x8ec75e",
      "gasUsed": "0x9bbd6",
      "effectiveGasPrice": "0xfe",
      "from": "0xfb0c1e0a4ded6df74e5caa07924aa3f8272ad0b8",
      "to": null,
      "contractAddress": "0xa9e741093e59af4c4636cdcb103c66e81a3cf9f8",
      "l1BaseFeeScalar": "0x2af8",
      "l1BlobBaseFee": "0x7",
      "l1BlobBaseFeeScalar": "0x109618",
      "l1Fee": "0xb884b7c",
      "l1GasPrice": "0xd799d",
      "l1GasUsed": "0x4dcc"
    },
    {
      "status": "0x1",
      "cumulativeGasUsed": "0x310d4",
      "logs": [
        {
          "address": "0x734328c180ef236a6cb7737132fe2b6a96201592",
          "topics": [
            "0x8faa70878671ccd212d20771b795c50af8fd3ff6cf27f4bde57e5d4de0aeb673"
          ],
          "data": "0x00000000000000000000000000000000000000000000000000000000000000600000000000000000000000000000000000000000000000000000000000000000000000000000000000000000000000000000000000000000000000000000014000000000000000000000000000000000000000000000000000000000000000010000000000000000000000000000000000000000000000000000000000000020000000000000000000000000a9e741093e59af4c4636cdcb103c66e81a3cf9f80000000000000000000000000000000000000000000000000000000000000001000000000000000000000000000000000000000000000000000000000000006000000000000000000000000000000000000000000000000000000000000000013cef5c38000000000000000000000000000000000000000000000000000000000000000000000000000000000000000000000000000000000000000000000000",
          "blockHash": "0x8e17e01fba1cc37ee823d9836000b70fa72414d555be89d36602cde0c0422e94",
          "blockNumber": "0x8ec75f",
          "transactionHash": "0x4daafbc6f8996eca9bccaf7f425038319466ab8c85e71a5e5069d68215df4559",
          "transactionIndex": "0x1",
          "logIndex": "0x0",
          "removed": false
        }
      ],
      "logsBloom": "0x00000000000000000000000000002000000000000000000000000000000000000000000000000000000000000000000000000000000000000000000000000000000000000000000000000000000000000000000001000000000800000200000000000000000000000008000000000000000000000000000000000000000000000020000000000000000000000000000000000000000000000000000000000000000000000000000000000000000000000000000000000000000000000000000000000000000000000000000000000000000000000000000000000000000000000000000000000000000000000000000000000000000000000000000000000000",
      "type": "0x2",
      "transactionHash": "0x4daafbc6f8996eca9bccaf7f425038319466ab8c85e71a5e5069d68215df4559",
      "transactionIndex": "0x1",
      "blockHash": "0x8e17e01fba1cc37ee823d9836000b70fa72414d555be89d36602cde0c0422e94",
      "blockNumber": "0x8ec75f",
      "gasUsed": "0x265ad",
      "effectiveGasPrice": "0xfe",
      "from": "0xfb0c1e0a4ded6df74e5caa07924aa3f8272ad0b8",
      "to": "0x734328c180ef236a6cb7737132fe2b6a96201592",
      "contractAddress": null,
      "l1BaseFeeScalar": "0x2af8",
      "l1BlobBaseFee": "0x7",
      "l1BlobBaseFeeScalar": "0x109618",
      "l1Fee": "0x115eec9",
      "l1GasPrice": "0xd799d",
      "l1GasUsed": "0x752"
    }
  ],
  "libraries": [],
  "pending": [],
  "returns": {},
  "timestamp": 1724027455,
  "chain": 4202,
  "commit": "900a334"
}