{
  "transactions": [
    {
      "hash": "0xf9dba7988a5989b085b98c569d3f29ede40c40763fc005af5fe2516102b8502c",
      "transactionType": "CREATE",
      "contractName": "AW3C2024Facet",
      "contractAddress": "0x9295b52c494aae9dc7d411c84ec71215571f6632",
      "function": null,
      "arguments": null,
      "transaction": {
        "from": "0xfb0c1e0a4ded6df74e5caa07924aa3f8272ad0b8",
        "gas": "0x89604",
        "value": "0x0",
        "input": "0x608080604052346015576106ed908161001b8239f35b600080fdfe608080604052600436101561001357600080fd5b600090813560e01c9081633348d7bd1461047d575080635ac450cf14610121578063b4313e68146100985763b6c0a1e11461004d57600080fd5b3461009557602060ff6100896100623661055d565b5073ffffffffffffffffffffffffffffffffffffffff166000526008602052604060002090565b54166040519015158152f35b80fd5b50346100955760207ffffffffffffffffffffffffffffffffffffffffffffffffffffffffffffffffc3601126100955760043573ffffffffffffffffffffffffffffffffffffffff811680910361011d576100f161062c565b7fffffffffffffffffffffffff0000000000000000000000000000000000000000600754161760075580f35b5080fd5b5034610095576101303661055d565b9061013961062c565b600160ff6101678373ffffffffffffffffffffffffffffffffffffffff166000526008602052604060002090565b541615151461041a5773ffffffffffffffffffffffffffffffffffffffff600754169083604051927f70a0823100000000000000000000000000000000000000000000000000000000845273ffffffffffffffffffffffffffffffffffffffff831693846004820152602081602481855afa90811561040f5783916103d9575b501561036b575b50506009546801000000000000000081101561033e57600181018060095581101561031157600985527f6e1540171b6c0c960b71a7020d9f60077f6af931a8bbf590da0223dacf75c7af0180547fffffffffffffffffffffffff0000000000000000000000000000000000000000168317905573ffffffffffffffffffffffffffffffffffffffff16600090815260086020526040902060017fffffffffffffffffffffffffffffffffffffffffffffffffffffffffffffff0082541617905560048210156102e4577fd92a70ab8690c6eaf253e3f14f37139725452a83f57e520d8fbf779f575975aa6020604051428152a380f35b6024837f4e487b710000000000000000000000000000000000000000000000000000000081526021600452fd5b6024857f4e487b710000000000000000000000000000000000000000000000000000000081526032600452fd5b6024857f4e487b710000000000000000000000000000000000000000000000000000000081526041600452fd5b803b1561011d5781906024604051809481937f2a240ef00000000000000000000000000000000000000000000000000000000083528860048401525af180156103ce576103ba575b84906101ee565b846103c7919592956105bc565b92386103b3565b6040513d87823e3d90fd5b90506020813d602011610407575b816103f4602093836105bc565b810103126104035751386101e7565b8280fd5b3d91506103e7565b6040513d85823e3d90fd5b602483836004811015610452577fd6a8084500000000000000000000000000000000000000000000000000000000825260ff16600452fd5b507f4e487b710000000000000000000000000000000000000000000000000000000081526021600452fd5b90503461011d57817ffffffffffffffffffffffffffffffffffffffffffffffffffffffffffffffffc36011261011d57600954808252602082018091600985526020852090855b81811061053157505050826104da9103836105bc565b604051928392602084019060208552518091526040840192915b818110610502575050500390f35b825173ffffffffffffffffffffffffffffffffffffffff168452859450602093840193909201916001016104f4565b825473ffffffffffffffffffffffffffffffffffffffff168452602090930192600192830192016104c4565b7ffffffffffffffffffffffffffffffffffffffffffffffffffffffffffffffffc60409101126105b75760043573ffffffffffffffffffffffffffffffffffffffff811681036105b7579060243560048110156105b75790565b600080fd5b90601f7fffffffffffffffffffffffffffffffffffffffffffffffffffffffffffffffe0910116810190811067ffffffffffffffff8211176105fd57604052565b7f4e487b7100000000000000000000000000000000000000000000000000000000600052604160045260246000fd5b3360009081527f3b613539f7368cb2dd6314b0125943f9263763b5155237d0ec7fd8aa2930d751602052604090205460ff161561066557565b7fe2517d3f00000000000000000000000000000000000000000000000000000000600052336004527f2fe21ea9f3fd4821b5b7e06a335d41592c9d037c8d0048120eb56d07dcf6d9b060245260446000fdfea2646970667358221220e4ccd3a1d6d3b20419551eb9431c016af8c1ac93b13338305df3399928ea90b764736f6c634300081a0033",
        "nonce": "0x95",
        "chainId": "0x106a"
      },
      "additionalContracts": [],
      "isFixedGasLimit": false
    },
    {
      "hash": "0x6473d669e50cd20f2ca3906d0ecc926f9e97eb872ba7bda537651f781cb5ced2",
      "transactionType": "CREATE",
      "contractName": "AW3C2024",
      "contractAddress": "0x6cfec75c163d2c37ef1ee26005d7c018c42844dd",
      "function": null,
      "arguments": null,
      "transaction": {
        "from": "0xfb0c1e0a4ded6df74e5caa07924aa3f8272ad0b8",
        "gas": "0x3677c6",
        "value": "0x0",
        "input": "0x608080604052346015576130f3908161001b8239f35b600080fdfe6080604052600436101561001257600080fd5b60003560e01c806301ffc9a7146101b757806306fdde03146101b2578063081812fc146101ad578063095ea7b3146101a857806318160ddd146101a357806323b872dd1461019e578063248a9ca3146101995780632a240ef0146101945780632f2ff15d1461018f57806336568abe1461018a57806342842e0e1461018557806355f804b3146101805780636352211e1461017b57806370a082311461017657806391d148541461017157806395d89b411461016c578063a217fddf14610167578063a22cb46514610162578063b88d4fde1461015d578063bc7f6e1614610158578063c4d66de814610153578063c87b56dd1461014e578063d3c1c83814610149578063d547741f14610144578063d67b06c11461013f5763e985e9c51461013a57600080fd5b6115c4565b611580565b61151e565b6114d4565b61144d565b6111f5565b611075565b611012565b610f29565b610f0d565b610e27565b610da4565b610ce3565b610ca7565b610a42565b610937565b6108c7565b610860565b610833565b6107df565b6107cb565b61073e565b6105a6565b6104ef565b6103ba565b6101eb565b7fffffffff000000000000000000000000000000000000000000000000000000008116036101e657565b600080fd5b346101e65760206003193601126101e6576102837fffffffff0000000000000000000000000000000000000000000000000000000060043561022c816101bc565b167f01ffc9a70000000000000000000000000000000000000000000000000000000081149081908215610316575b82156102ec575b82156102c2575b8215610287575b505060405190151581529081906020820190565b0390f35b7f7965db0b0000000000000000000000000000000000000000000000000000000014915081156102ba575b50388061026f565b9050386102b2565b7f7965db0b0000000000000000000000000000000000000000000000000000000081149250610268565b7f5b5e139f0000000000000000000000000000000000000000000000000000000081149250610261565b7f80ac58cd000000000000000000000000000000000000000000000000000000008114925061025a565b60005b8381106103535750506000910152565b8181015183820152602001610343565b907fffffffffffffffffffffffffffffffffffffffffffffffffffffffffffffffe0601f60209361039f81518092818752878088019101610340565b0116010190565b9060206103b7928181520190610363565b90565b346101e65760006003193601126101e65760405160007f2569078dfb4b0305704d3008e7403993ae9601b85f7ae5e742de3de8f8011c42546103fb8161163d565b80845290600181169081156104ad575060011461042f575b610283836104238185038261098b565b604051918291826103a6565b7f2569078dfb4b0305704d3008e7403993ae9601b85f7ae5e742de3de8f8011c4260009081527f933ecf8acb7824b680a8d16f3ff3db8864228d986aa4c2ebab1eeb2703b4beb3939250905b80821061049357509091508101602001610423610413565b91926001816020925483858801015201910190929161047b565b7fffffffffffffffffffffffffffffffffffffffffffffffffffffffffffffff001660208086019190915291151560051b840190910191506104239050610413565b346101e65760206003193601126101e65760043561050c8161224a565b1561055e576000527f2569078dfb4b0305704d3008e7403993ae9601b85f7ae5e742de3de8f8011c46602052602073ffffffffffffffffffffffffffffffffffffffff60406000205416604051908152f35b7fcf4700e40000000000000000000000000000000000000000000000000000000060005260046000fd5b73ffffffffffffffffffffffffffffffffffffffff8116036101e657565b60406003193601126101e6576004356105be81610588565b6024359073ffffffffffffffffffffffffffffffffffffffff6105e083612435565b169081330361069a575b73ffffffffffffffffffffffffffffffffffffffff90836000527f2569078dfb4b0305704d3008e7403993ae9601b85f7ae5e742de3de8f8011c466020526106718160406000209073ffffffffffffffffffffffffffffffffffffffff167fffffffffffffffffffffffff0000000000000000000000000000000000000000825416179055565b16907f8c5be1e5ebec7d5bd14f71427d1e84f3dd0314c0f7b2291e5b200ac8c7c3b925600080a4005b60ff61070e336106e98573ffffffffffffffffffffffffffffffffffffffff166000527f2569078dfb4b0305704d3008e7403993ae9601b85f7ae5e742de3de8f8011c47602052604060002090565b9073ffffffffffffffffffffffffffffffffffffffff16600052602052604060002090565b54166105ea577fcfb3b9420000000000000000000000000000000000000000000000000000000060005260046000fd5b346101e65760006003193601126101e65760207f2569078dfb4b0305704d3008e7403993ae9601b85f7ae5e742de3de8f8011c40547f2569078dfb4b0305704d3008e7403993ae9601b85f7ae5e742de3de8f8011c41549003604051908152f35b60031960609101126101e6576004356107b781610588565b906024356107c481610588565b9060443590565b6107dd6107d73661079f565b91611865565b005b346101e65760206003193601126101e657602061082b6004356000527f02dd7bc7dec4dceedda775e58dd541e08a116c6c53815c0bd028192f7b62680060205260016040600020015490565b604051908152f35b346101e65760206003193601126101e6576107dd60043561085381610588565b61085b61259a565b612699565b346101e65760406003193601126101e6576107dd60243560043561088382610588565b6108c26108bd826000527f02dd7bc7dec4dceedda775e58dd541e08a116c6c53815c0bd028192f7b62680060205260016040600020015490565b612606565b6128ea565b346101e65760406003193601126101e6576004356024356108e781610588565b3373ffffffffffffffffffffffffffffffffffffffff82160361090d576107dd91612a11565b7f6697b2320000000000000000000000000000000000000000000000000000000060005260046000fd5b6107dd6109433661079f565b906040519261095360208561098b565b60008452611b74565b7f4e487b7100000000000000000000000000000000000000000000000000000000600052604160045260246000fd5b90601f7fffffffffffffffffffffffffffffffffffffffffffffffffffffffffffffffe0910116810190811067ffffffffffffffff8211176109cc57604052565b61095c565b67ffffffffffffffff81116109cc57601f017fffffffffffffffffffffffffffffffffffffffffffffffffffffffffffffffe01660200190565b929192610a17826109d1565b91610a25604051938461098b565b8294818452818301116101e6578281602093846000960137010152565b346101e65760206003193601126101e65760043567ffffffffffffffff81116101e657366023820112156101e657610a84903690602481600401359101610a0b565b610a8c61259a565b610a94611690565b9080519167ffffffffffffffff83116109cc57610ada83610ad57f2569078dfb4b0305704d3008e7403993ae9601b85f7ae5e742de3de8f8011c495461163d565b612b2f565b6020601f8411600114610b8957837fc9c7c3fe08b88b4df9d4d47ef47d2c43d55c025a0ba88ca442580ed9e7348a1694610b4792600091610b7e575b507fffffffffffffffffffffffffffffffffffffffffffffffffffffffffffffffff8260011b9260031b1c19161790565b7f2569078dfb4b0305704d3008e7403993ae9601b85f7ae5e742de3de8f8011c49555b610b7960405192839283612e36565b0390a1005b905084015138610b16565b7f2569078dfb4b0305704d3008e7403993ae9601b85f7ae5e742de3de8f8011c496000527fffffffffffffffffffffffffffffffffffffffffffffffffffffffffffffffe08416907f52ec6bedc82acfa7819738f765069a31117e7483e8ea612c55a33bd45a4d477a9160005b818110610c8f57509185917fc9c7c3fe08b88b4df9d4d47ef47d2c43d55c025a0ba88ca442580ed9e7348a169660019410610c58575b5050811b017f2569078dfb4b0305704d3008e7403993ae9601b85f7ae5e742de3de8f8011c4955610b6a565b8501517fffffffffffffffffffffffffffffffffffffffffffffffffffffffffffffffff60f88460031b161c191690553880610c2c565b91926020600181928689015181550194019201610bf6565b346101e65760206003193601126101e657602073ffffffffffffffffffffffffffffffffffffffff610cda600435612435565b16604051908152f35b346101e65760206003193601126101e657600435610d0081610588565b73ffffffffffffffffffffffffffffffffffffffff811615610d7a5767ffffffffffffffff610d7060209273ffffffffffffffffffffffffffffffffffffffff166000527f2569078dfb4b0305704d3008e7403993ae9601b85f7ae5e742de3de8f8011c45602052604060002090565b5416604051908152f35b7f8f4eb6040000000000000000000000000000000000000000000000000000000060005260046000fd5b346101e65760406003193601126101e657602060ff610e1b602435600435610dcb82610588565b6000527f02dd7bc7dec4dceedda775e58dd541e08a116c6c53815c0bd028192f7b626800845260406000209073ffffffffffffffffffffffffffffffffffffffff16600052602052604060002090565b54166040519015158152f35b346101e65760006003193601126101e65760405160007f2569078dfb4b0305704d3008e7403993ae9601b85f7ae5e742de3de8f8011c4354610e688161163d565b80845290600181169081156104ad5750600114610e8f57610283836104238185038261098b565b7f2569078dfb4b0305704d3008e7403993ae9601b85f7ae5e742de3de8f8011c4360009081527f617167b76dcc8247761fd21f427ad8ec3be6b3be203aed34e3aac08b4d31817c939250905b808210610ef357509091508101602001610423610413565b919260018160209254838588010152019101909291610edb565b346101e65760006003193601126101e657602060405160008152f35b346101e65760406003193601126101e657600435610f4681610588565b602435908115158092036101e65780610fb773ffffffffffffffffffffffffffffffffffffffff926106e93373ffffffffffffffffffffffffffffffffffffffff166000527f2569078dfb4b0305704d3008e7403993ae9601b85f7ae5e742de3de8f8011c47602052604060002090565b7fffffffffffffffffffffffffffffffffffffffffffffffffffffffffffffff0081541660ff851617905560405192835216907f17307eab39ab6107e8899845ad3d59bd9653f200f220920489ca2b5937696c3160203392a3005b60806003193601126101e65760043561102a81610588565b6024359061103782610588565b6044356064359267ffffffffffffffff84116101e657366023850112156101e65761106f6107dd943690602481600401359101610a0b565b92611b74565b346101e65760406003193601126101e65760043561109281610588565b60243561109d61259a565b7f2569078dfb4b0305704d3008e7403993ae9601b85f7ae5e742de3de8f8011c40549181156111f05773ffffffffffffffffffffffffffffffffffffffff908082164260a01b6001851460e11b171761111f856000527f2569078dfb4b0305704d3008e7403993ae9601b85f7ae5e742de3de8f8011c44602052604060002090565b556111698173ffffffffffffffffffffffffffffffffffffffff166000527f2569078dfb4b0305704d3008e7403993ae9601b85f7ae5e742de3de8f8011c45602052604060002090565b6801000000000000000184028154019055169081156111eb57820160015b156111bb575b60008383827fddf252ad1be2c89b69c2b068fc378daa952ba7f163c4a11628f55a4df523b3ef8180a4611187565b916001019180830361118d577f2569078dfb4b0305704d3008e7403993ae9601b85f7ae5e742de3de8f8011c4055005b61240b565b6123e1565b346101e65760206003193601126101e65760043561121281610588565b7fee151c8401928dc223602bb187aff91b9a56c7cae5476ef1b3287b085a16c85f5460ff8160081c1660001461144357303b155b156113bf5761126c906112619060081c60ff161590565b1590565b91826112dd57611bd0565b61127257005b6107dd7fffffffffffffffffffffffffffffffffffffffffffffffffffffffffffff00ff7fee151c8401928dc223602bb187aff91b9a56c7cae5476ef1b3287b085a16c85f54167fee151c8401928dc223602bb187aff91b9a56c7cae5476ef1b3287b085a16c85f55565b61134c6101007fffffffffffffffffffffffffffffffffffffffffffffffffffffffffffff00ff7fee151c8401928dc223602bb187aff91b9a56c7cae5476ef1b3287b085a16c85f5416177fee151c8401928dc223602bb187aff91b9a56c7cae5476ef1b3287b085a16c85f55565b6113ba60017fffffffffffffffffffffffffffffffffffffffffffffffffffffffffffffff007fee151c8401928dc223602bb187aff91b9a56c7cae5476ef1b3287b085a16c85f5416177fee151c8401928dc223602bb187aff91b9a56c7cae5476ef1b3287b085a16c85f55565b611bd0565b60846040517f08c379a000000000000000000000000000000000000000000000000000000000815260206004820152603760248201527f455243373231415f5f496e697469616c697a61626c653a20636f6e747261637460448201527f20697320616c726561647920696e697469616c697a65640000000000000000006064820152fd5b60ff811615611246565b346101e65760206003193601126101e65761028361146c6004356120c9565b604051918291602083526020830190610363565b9060206003198301126101e65760043567ffffffffffffffff81116101e657826023820112156101e65780600401359267ffffffffffffffff84116101e65760248460051b830101116101e6576024019190565b346101e6576114e236611480565b6114ea61259a565b60005b8181106114f657005b806115188161150860019486886121b7565b3561151281610588565b33611865565b016114ed565b346101e65760406003193601126101e6576107dd60243560043561154182610588565b61157b6108bd826000527f02dd7bc7dec4dceedda775e58dd541e08a116c6c53815c0bd028192f7b62680060205260016040600020015490565b612a11565b346101e65761158e36611480565b9061159761259a565b60005b8281106115a357005b806115be6115b460019386866121b7565b3561085b81610588565b0161159a565b346101e65760406003193601126101e657602060ff610e1b6004356115e881610588565b6106e9602435916115f883610588565b73ffffffffffffffffffffffffffffffffffffffff166000527f2569078dfb4b0305704d3008e7403993ae9601b85f7ae5e742de3de8f8011c47602052604060002090565b90600182811c92168015611686575b602083101461165757565b7f4e487b7100000000000000000000000000000000000000000000000000000000600052602260045260246000fd5b91607f169161164c565b604051906000827f2569078dfb4b0305704d3008e7403993ae9601b85f7ae5e742de3de8f8011c4954916116c38361163d565b808352926001811690811561176857506001146116e9575b6116e79250038361098b565b565b507f2569078dfb4b0305704d3008e7403993ae9601b85f7ae5e742de3de8f8011c49600090815290917f52ec6bedc82acfa7819738f765069a31117e7483e8ea612c55a33bd45a4d477a5b81831061174c5750509060206116e7928201016116db565b6020919350806001915483858901015201910190918492611734565b602092506116e79491507fffffffffffffffffffffffffffffffffffffffffffffffffffffffffffffff001682840152151560051b8201016116db565b90604051918260008254926117b98461163d565b808452936001811690811561182557506001146117de575b506116e79250038361098b565b90506000929192526020600020906000915b8183106118095750509060206116e792820101386117d1565b60209193508060019154838589010152019101909184926117f0565b602093506116e79592507fffffffffffffffffffffffffffffffffffffffffffffffffffffffffffffff0091501682840152151560051b820101386117d1565b91909173ffffffffffffffffffffffffffffffffffffffff61188683612435565b9116928373ffffffffffffffffffffffffffffffffffffffff831603611b6f5760008381527f2569078dfb4b0305704d3008e7403993ae9601b85f7ae5e742de3de8f8011c4660205260409020805492906118fd73ffffffffffffffffffffffffffffffffffffffff871633908114908614171590565b611b58575b73ffffffffffffffffffffffffffffffffffffffff93611b4e575b506119678573ffffffffffffffffffffffffffffffffffffffff166000527f2569078dfb4b0305704d3008e7403993ae9601b85f7ae5e742de3de8f8011c45602052604060002090565b80547fffffffffffffffffffffffffffffffffffffffffffffffffffffffffffffffff0190556119d68273ffffffffffffffffffffffffffffffffffffffff166000527f2569078dfb4b0305704d3008e7403993ae9601b85f7ae5e742de3de8f8011c45602052604060002090565b8054600101905573ffffffffffffffffffffffffffffffffffffffff82164260a01b177c020000000000000000000000000000000000000000000000000000000017611a4b856000527f2569078dfb4b0305704d3008e7403993ae9601b85f7ae5e742de3de8f8011c44602052604060002090565b557c0200000000000000000000000000000000000000000000000000000000811615611aa7575b501680927fddf252ad1be2c89b69c2b068fc378daa952ba7f163c4a11628f55a4df523b3ef600080a415611aa257565b61238d565b60018401611ade816000527f2569078dfb4b0305704d3008e7403993ae9601b85f7ae5e742de3de8f8011c44602052604060002090565b5415611aeb575b50611a72565b7f2569078dfb4b0305704d3008e7403993ae9601b85f7ae5e742de3de8f8011c40548114611ae557611b46906000527f2569078dfb4b0305704d3008e7403993ae9601b85f7ae5e742de3de8f8011c44602052604060002090565b553880611ae5565b600090553861191d565b611b6561125d33886121f6565b1561190257612363565b612339565b929190611b82828286611865565b803b611b8f575b50505050565b611b9893612edb565b15611ba65738808080611b89565b7fd1a57ed60000000000000000000000000000000000000000000000000000000060005260046000fd5b7ff0c57e16840df040f15088dc2f81fe391c3923bec73e23a9662efc9c229c6a00549067ffffffffffffffff611c16604084901c60ff16159367ffffffffffffffff1690565b1680159081611e0b575b6001149081611e01575b159081611df8575b50611dce57611cb39082611caa60017fffffffffffffffffffffffffffffffffffffffffffffffff00000000000000007ff0c57e16840df040f15088dc2f81fe391c3923bec73e23a9662efc9c229c6a005416177ff0c57e16840df040f15088dc2f81fe391c3923bec73e23a9662efc9c229c6a0055565b611d5357611e13565b611cb957565b611d247fffffffffffffffffffffffffffffffffffffffffffffff00ffffffffffffffff7ff0c57e16840df040f15088dc2f81fe391c3923bec73e23a9662efc9c229c6a0054167ff0c57e16840df040f15088dc2f81fe391c3923bec73e23a9662efc9c229c6a0055565b604051600181527fc7f505b2f371ae2175ee4913f4499e1f2633a7b5936321eed1cdaeb6115181d290602090a1565b611dc9680100000000000000007fffffffffffffffffffffffffffffffffffffffffffffff00ffffffffffffffff7ff0c57e16840df040f15088dc2f81fe391c3923bec73e23a9662efc9c229c6a005416177ff0c57e16840df040f15088dc2f81fe391c3923bec73e23a9662efc9c229c6a0055565b611e13565b7ff92ee8a90000000000000000000000000000000000000000000000000000000060005260046000fd5b90501538611c32565b303b159150611c2a565b839150611c20565b90604091825192611e24818561098b565b601c84527f416e616d627261205765623320436f6e666572656e63652032303234000000006020850152611e5a8151918261098b565b600881527f41573343323032340000000000000000000000000000000000000000000000006020820152611ebd60ff7fee151c8401928dc223602bb187aff91b9a56c7cae5476ef1b3287b085a16c85f5460081c16611eb881612fd9565b612fd9565b835167ffffffffffffffff81116109cc57611f0181611efc7f2569078dfb4b0305704d3008e7403993ae9601b85f7ae5e742de3de8f8011c425461163d565b612ba1565b6020601f8211600114611fc25781611f7e9392611f5792611fb49798600092611fb7575b50507fffffffffffffffffffffffffffffffffffffffffffffffffffffffffffffffff8260011b9260031b1c19161790565b7f2569078dfb4b0305704d3008e7403993ae9601b85f7ae5e742de3de8f8011c4255612c65565b611fa760007f2569078dfb4b0305704d3008e7403993ae9601b85f7ae5e742de3de8f8011c4055565b611faf613064565b612800565b50565b015190503880611f25565b7f2569078dfb4b0305704d3008e7403993ae9601b85f7ae5e742de3de8f8011c426000527fffffffffffffffffffffffffffffffffffffffffffffffffffffffffffffffe08216957f933ecf8acb7824b680a8d16f3ff3db8864228d986aa4c2ebab1eeb2703b4beb39660005b8181106120b15750966001928492611f7e9695611fb4999a1061207a575b505050811b017f2569078dfb4b0305704d3008e7403993ae9601b85f7ae5e742de3de8f8011c4255612c65565b01517fffffffffffffffffffffffffffffffffffffffffffffffffffffffffffffffff60f88460031b161c1916905538808061204d565b8383015189556001909801976020938401930161202f565b6120d28161224a565b1561218d576000527f2569078dfb4b0305704d3008e7403993ae9601b85f7ae5e742de3de8f8011c4a60205261210b60406000206117a5565b612113611690565b90815190811561218757805161212857505090565b91602082936103b793612145604051968795858088019101610340565b830161215982518093858085019101610340565b0101037fffffffffffffffffffffffffffffffffffffffffffffffffffffffffffffffe0810183528261098b565b91505090565b7fa14c4b500000000000000000000000000000000000000000000000000000000060005260046000fd5b91908110156121c75760051b0190565b7f4e487b7100000000000000000000000000000000000000000000000000000000600052603260045260246000fd5b60ff916106e96122459273ffffffffffffffffffffffffffffffffffffffff166000527f2569078dfb4b0305704d3008e7403993ae9601b85f7ae5e742de3de8f8011c47602052604060002090565b541690565b906000917f2569078dfb4b0305704d3008e7403993ae9601b85f7ae5e742de3de8f8011c405481106122795750565b9091505b6122b0816000527f2569078dfb4b0305704d3008e7403993ae9601b85f7ae5e742de3de8f8011c44602052604060002090565b54806123145750600081156122e757507fffffffffffffffffffffffffffffffffffffffffffffffffffffffffffffffff0161227d565b807f4e487b7100000000000000000000000000000000000000000000000000000000602492526011600452fd5b7c01000000000000000000000000000000000000000000000000000000009150161590565b7fa11481000000000000000000000000000000000000000000000000000000000060005260046000fd5b7f59c896be0000000000000000000000000000000000000000000000000000000060005260046000fd5b7fea553b340000000000000000000000000000000000000000000000000000000060005260046000fd5b7fdf2d9b420000000000000000000000000000000000000000000000000000000060005260046000fd5b7fb562e8dd0000000000000000000000000000000000000000000000000000000060005260046000fd5b7f2e0763000000000000000000000000000000000000000000000000000000000060005260046000fd5b612468816000527f2569078dfb4b0305704d3008e7403993ae9601b85f7ae5e742de3de8f8011c44602052604060002090565b5490811561249857507c010000000000000000000000000000000000000000000000000000000081166123b75790565b90507f2569078dfb4b0305704d3008e7403993ae9601b85f7ae5e742de3de8f8011c40548110156123b7577fffffffffffffffffffffffffffffffffffffffffffffffffffffffffffffffff905b0161251a816000527f2569078dfb4b0305704d3008e7403993ae9601b85f7ae5e742de3de8f8011c44602052604060002090565b5490811561257257507c01000000000000000000000000000000000000000000000000000000008116156103b7577fdf2d9b420000000000000000000000000000000000000000000000000000000060005260046000fd5b7fffffffffffffffffffffffffffffffffffffffffffffffffffffffffffffffff91506124e6565b3360009081527fb7db2dd08fcb62d0c9e08c51941cae53c267786a0b75803fb7960902fc8ef97d602052604090205460ff16156125d357565b7fe2517d3f0000000000000000000000000000000000000000000000000000000060005233600452600060245260446000fd5b806000527f02dd7bc7dec4dceedda775e58dd541e08a116c6c53815c0bd028192f7b62680060205260ff61265e3360406000209073ffffffffffffffffffffffffffffffffffffffff16600052602052604060002090565b5416156126685750565b7fe2517d3f000000000000000000000000000000000000000000000000000000006000523360045260245260446000fd5b73ffffffffffffffffffffffffffffffffffffffff7f2569078dfb4b0305704d3008e7403993ae9601b85f7ae5e742de3de8f8011c4054917c02000000000000000000000000000000000000000000000000000000004260a01b178282161761272b846000527f2569078dfb4b0305704d3008e7403993ae9601b85f7ae5e742de3de8f8011c44602052604060002090565b556127758173ffffffffffffffffffffffffffffffffffffffff166000527f2569078dfb4b0305704d3008e7403993ae9601b85f7ae5e742de3de8f8011c45602052604060002090565b6801000000000000000181540190551690811561240b5760018101909260015b156127c9575b60008484827fddf252ad1be2c89b69c2b068fc378daa952ba7f163c4a11628f55a4df523b3ef8180a4612795565b926001019281840361279b5792506116e791507f2569078dfb4b0305704d3008e7403993ae9601b85f7ae5e742de3de8f8011c4055565b73ffffffffffffffffffffffffffffffffffffffff811660009081527fb7db2dd08fcb62d0c9e08c51941cae53c267786a0b75803fb7960902fc8ef97d602052604090205460ff166128e45773ffffffffffffffffffffffffffffffffffffffff1660008181527fb7db2dd08fcb62d0c9e08c51941cae53c267786a0b75803fb7960902fc8ef97d6020526040812080547fffffffffffffffffffffffffffffffffffffffffffffffffffffffffffffff001660011790553391907f2f8788117e7eff1d82e926ec794901d17c78024a50270940304540a733656f0d8180a4600190565b50600090565b806000527f02dd7bc7dec4dceedda775e58dd541e08a116c6c53815c0bd028192f7b62680060205260ff6129428360406000209073ffffffffffffffffffffffffffffffffffffffff16600052602052604060002090565b5416612a0a57806000527f02dd7bc7dec4dceedda775e58dd541e08a116c6c53815c0bd028192f7b62680060205261299e8260406000209073ffffffffffffffffffffffffffffffffffffffff16600052602052604060002090565b60017fffffffffffffffffffffffffffffffffffffffffffffffffffffffffffffff0082541617905573ffffffffffffffffffffffffffffffffffffffff339216907f2f8788117e7eff1d82e926ec794901d17c78024a50270940304540a733656f0d600080a4600190565b5050600090565b806000527f02dd7bc7dec4dceedda775e58dd541e08a116c6c53815c0bd028192f7b62680060205260ff612a698360406000209073ffffffffffffffffffffffffffffffffffffffff16600052602052604060002090565b541615612a0a57806000527f02dd7bc7dec4dceedda775e58dd541e08a116c6c53815c0bd028192f7b626800602052612ac68260406000209073ffffffffffffffffffffffffffffffffffffffff16600052602052604060002090565b7fffffffffffffffffffffffffffffffffffffffffffffffffffffffffffffff00815416905573ffffffffffffffffffffffffffffffffffffffff339216907ff6391f5c32d9c69d2a47ea670b442974b53935d1edc7fd64eb21e047a839171b600080a4600190565b601f8111612b3b575050565b7f2569078dfb4b0305704d3008e7403993ae9601b85f7ae5e742de3de8f8011c496000526020600020906020601f840160051c83019310612b97575b601f0160051c01905b818110612b8b575050565b60008155600101612b80565b9091508190612b77565b601f8111612bad575050565b7f2569078dfb4b0305704d3008e7403993ae9601b85f7ae5e742de3de8f8011c426000526020600020906020601f840160051c83019310612c09575b601f0160051c01905b818110612bfd575050565b60008155600101612bf2565b9091508190612be9565b601f8211612c2057505050565b6000526020600020906020601f840160051c83019310612c5b575b601f0160051c01905b818110612c4f575050565b60008155600101612c44565b9091508190612c3b565b90815167ffffffffffffffff81116109cc57612ccb81612ca57f2569078dfb4b0305704d3008e7403993ae9601b85f7ae5e742de3de8f8011c435461163d565b7f2569078dfb4b0305704d3008e7403993ae9601b85f7ae5e742de3de8f8011c43612c13565b602092601f8211600114612d3d57612d1992938291600092611fb75750507fffffffffffffffffffffffffffffffffffffffffffffffffffffffffffffffff8260011b9260031b1c19161790565b7f2569078dfb4b0305704d3008e7403993ae9601b85f7ae5e742de3de8f8011c4355565b7f2569078dfb4b0305704d3008e7403993ae9601b85f7ae5e742de3de8f8011c436000527fffffffffffffffffffffffffffffffffffffffffffffffffffffffffffffffe08216937f617167b76dcc8247761fd21f427ad8ec3be6b3be203aed34e3aac08b4d31817c9160005b868110612e1e5750836001959610612de7575b505050811b017f2569078dfb4b0305704d3008e7403993ae9601b85f7ae5e742de3de8f8011c4355565b01517fffffffffffffffffffffffffffffffffffffffffffffffffffffffffffffffff60f88460031b161c19169055388080612dbd565b91926020600181928685015181550194019201612daa565b9091612e4d6103b793604084526040840190610363565b916020818403910152610363565b908160209103126101e657516103b7816101bc565b909273ffffffffffffffffffffffffffffffffffffffff608093816103b7979616845216602083015260408201528160608201520190610363565b3d15612ed6573d90612ebc826109d1565b91612eca604051938461098b565b82523d6000602084013e565b606090565b90602092600073ffffffffffffffffffffffffffffffffffffffff612f329694604051978896879586937f150b7a020000000000000000000000000000000000000000000000000000000085523360048601612e70565b0393165af160009181612fa8575b50612f6157612f4d612eab565b805115612f5c57805190602001fd5b611ba6565b7fffffffff00000000000000000000000000000000000000000000000000000000167f150b7a02000000000000000000000000000000000000000000000000000000001490565b612fcb91925060203d602011612fd2575b612fc3818361098b565b810190612e5b565b9038612f40565b503d612fb9565b15612fe057565b60846040517f08c379a000000000000000000000000000000000000000000000000000000000815260206004820152603460248201527f455243373231415f5f496e697469616c697a61626c653a20636f6e747261637460448201527f206973206e6f7420696e697469616c697a696e670000000000000000000000006064820152fd5b60ff7ff0c57e16840df040f15088dc2f81fe391c3923bec73e23a9662efc9c229c6a005460401c161561309357565b7fd7e6bcf80000000000000000000000000000000000000000000000000000000060005260046000fdfea2646970667358221220975d123691c6e5849daa5869ccdcade6d36c631026ae1c12054ac7f6a015ca9f64736f6c634300081a0033",
        "nonce": "0x96",
        "chainId": "0x106a"
      },
      "additionalContracts": [],
      "isFixedGasLimit": false
    },
    {
      "hash": "0x193f3de0ee83eef97ff5e8f75d022138525bc6efe33020f96be3454e452acd9e",
      "transactionType": "CALL",
      "contractName": null,
      "contractAddress": "0xfa8c40cf7eac88a9da6d002c44c284be844b020c",
      "function": "diamondCut((address,uint8,bytes4[])[],address,bytes)",
      "arguments": [
        "[(0x9295b52c494AaE9dC7D411C84ec71215571F6632, 0, [0xb4313e68, 0x5ac450cf, 0xb6c0a1e1, 0x3348d7bd])]",
        "0x0000000000000000000000000000000000000000",
        "0x"
      ],
      "transaction": {
        "from": "0xfb0c1e0a4ded6df74e5caa07924aa3f8272ad0b8",
        "to": "0xfa8c40cf7eac88a9da6d002c44c284be844b020c",
        "gas": "0x4dabb",
        "value": "0x0",
        "input": "0x1f931c1c0000000000000000000000000000000000000000000000000000000000000060000000000000000000000000000000000000000000000000000000000000000000000000000000000000000000000000000000000000000000000000000001a0000000000000000000000000000000000000000000000000000000000000000100000000000000000000000000000000000000000000000000000000000000200000000000000000000000009295b52c494aae9dc7d411c84ec71215571f6632000000000000000000000000000000000000000000000000000000000000000000000000000000000000000000000000000000000000000000000000000000600000000000000000000000000000000000000000000000000000000000000004b4313e68000000000000000000000000000000000000000000000000000000005ac450cf00000000000000000000000000000000000000000000000000000000b6c0a1e1000000000000000000000000000000000000000000000000000000003348d7bd000000000000000000000000000000000000000000000000000000000000000000000000000000000000000000000000000000000000000000000000",
        "nonce": "0x97",
        "chainId": "0x106a"
      },
      "additionalContracts": [],
      "isFixedGasLimit": false
    },
    {
      "hash": "0x6d8f48cff3eddc77f68cd9345350c030ea36f72d277263be021aac1739d85fd9",
      "transactionType": "CALL",
      "contractName": "AW3C2024",
      "contractAddress": "0x6cfec75c163d2c37ef1ee26005d7c018c42844dd",
      "function": "initialize(address)",
      "arguments": [
        "0xFB0c1e0a4deD6DF74E5CAa07924aa3F8272Ad0B8"
      ],
      "transaction": {
        "from": "0xfb0c1e0a4ded6df74e5caa07924aa3f8272ad0b8",
        "to": "0x6cfec75c163d2c37ef1ee26005d7c018c42844dd",
        "gas": "0x32542",
        "value": "0x0",
        "input": "0xc4d66de8000000000000000000000000fb0c1e0a4ded6df74e5caa07924aa3f8272ad0b8",
        "nonce": "0x98",
        "chainId": "0x106a"
      },
      "additionalContracts": [],
      "isFixedGasLimit": false
    },
    {
      "hash": "0x5de3c8cd6625e27d83293079553f7eb2fe9af75a50a2bf1c952e2b468ef60549",
      "transactionType": "CALL",
      "contractName": "AW3C2024",
      "contractAddress": "0x6cfec75c163d2c37ef1ee26005d7c018c42844dd",
      "function": "grantRole(bytes32,address)",
      "arguments": [
        "0x0000000000000000000000000000000000000000000000000000000000000000",
        "0xfa8c40CF7EAC88A9da6D002C44C284BE844B020c"
      ],
      "transaction": {
        "from": "0xfb0c1e0a4ded6df74e5caa07924aa3f8272ad0b8",
        "to": "0x6cfec75c163d2c37ef1ee26005d7c018c42844dd",
        "gas": "0x122ad",
        "value": "0x0",
        "input": "0x2f2ff15d0000000000000000000000000000000000000000000000000000000000000000000000000000000000000000fa8c40cf7eac88a9da6d002c44c284be844b020c",
        "nonce": "0x99",
        "chainId": "0x106a"
      },
      "additionalContracts": [],
      "isFixedGasLimit": false
    },
    {
      "hash": "0x1aa1f3bda7b5eb63f89ccceaf2d39d82ff26732d9422426740c7778c345a5f9c",
      "transactionType": "CALL",
      "contractName": "AW3C2024",
      "contractAddress": "0x6cfec75c163d2c37ef1ee26005d7c018c42844dd",
      "function": "grantRole(bytes32,address)",
      "arguments": [
        "0x0000000000000000000000000000000000000000000000000000000000000000",
        "0xc408235a9A01767d70B41C98d92F2dC7B0d959f4"
      ],
      "transaction": {
        "from": "0xfb0c1e0a4ded6df74e5caa07924aa3f8272ad0b8",
        "to": "0x6cfec75c163d2c37ef1ee26005d7c018c42844dd",
        "gas": "0x11296",
        "value": "0x0",
        "input": "0x2f2ff15d0000000000000000000000000000000000000000000000000000000000000000000000000000000000000000c408235a9a01767d70b41c98d92f2dc7b0d959f4",
        "nonce": "0x9a",
        "chainId": "0x106a"
      },
      "additionalContracts": [],
      "isFixedGasLimit": false
    },
    {
      "hash": "0x0a956e875d6d9d4fdd2b07e5f5ab9fb0d67e9cbee5d0582dbdd9837978136ced",
      "transactionType": "CALL",
      "contractName": "AW3C2024",
      "contractAddress": "0x6cfec75c163d2c37ef1ee26005d7c018c42844dd",
      "function": "grantRole(bytes32,address)",
      "arguments": [
        "0x0000000000000000000000000000000000000000000000000000000000000000",
        "0xFB0c1e0a4deD6DF74E5CAa07924aa3F8272Ad0B8"
      ],
      "transaction": {
        "from": "0xfb0c1e0a4ded6df74e5caa07924aa3f8272ad0b8",
        "to": "0x6cfec75c163d2c37ef1ee26005d7c018c42844dd",
        "gas": "0x98b3",
        "value": "0x0",
        "input": "0x2f2ff15d0000000000000000000000000000000000000000000000000000000000000000000000000000000000000000fb0c1e0a4ded6df74e5caa07924aa3f8272ad0b8",
        "nonce": "0x9b",
        "chainId": "0x106a"
      },
      "additionalContracts": [],
      "isFixedGasLimit": false
    },
    {
      "hash": "0xd18d6f052b19dc117cf082b8d7d9150b3ee7b263d7730df8809670ffabcf8699",
      "transactionType": "CALL",
      "contractName": null,
      "contractAddress": "0xfa8c40cf7eac88a9da6d002c44c284be844b020c",
      "function": "grantRole(bytes32,address)",
      "arguments": [
        "0x2fe21ea9f3fd4821b5b7e06a335d41592c9d037c8d0048120eb56d07dcf6d9b0",
        "0xc408235a9A01767d70B41C98d92F2dC7B0d959f4"
      ],
      "transaction": {
        "from": "0xfb0c1e0a4ded6df74e5caa07924aa3f8272ad0b8",
        "to": "0xfa8c40cf7eac88a9da6d002c44c284be844b020c",
        "gas": "0x12e71",
        "value": "0x0",
        "input": "0x2f2ff15d2fe21ea9f3fd4821b5b7e06a335d41592c9d037c8d0048120eb56d07dcf6d9b0000000000000000000000000c408235a9a01767d70b41c98d92f2dc7b0d959f4",
        "nonce": "0x9c",
        "chainId": "0x106a"
      },
      "additionalContracts": [],
      "isFixedGasLimit": false
    },
    {
      "hash": "0xfcde78ab2cf1b92dcedeb9213314d33a38c755d816e04b6bf497d3668c98a82c",
      "transactionType": "CALL",
      "contractName": null,
      "contractAddress": "0xfa8c40cf7eac88a9da6d002c44c284be844b020c",
      "function": "grantRole(bytes32,address)",
      "arguments": [
        "0x2fe21ea9f3fd4821b5b7e06a335d41592c9d037c8d0048120eb56d07dcf6d9b0",
        "0xFB0c1e0a4deD6DF74E5CAa07924aa3F8272Ad0B8"
      ],
      "transaction": {
        "from": "0xfb0c1e0a4ded6df74e5caa07924aa3f8272ad0b8",
        "to": "0xfa8c40cf7eac88a9da6d002c44c284be844b020c",
        "gas": "0x12e71",
        "value": "0x0",
        "input": "0x2f2ff15d2fe21ea9f3fd4821b5b7e06a335d41592c9d037c8d0048120eb56d07dcf6d9b0000000000000000000000000fb0c1e0a4ded6df74e5caa07924aa3f8272ad0b8",
        "nonce": "0x9d",
        "chainId": "0x106a"
      },
      "additionalContracts": [],
      "isFixedGasLimit": false
    },
    {
      "hash": "0xb114d79361580d4ce15afe87d47be1d3696145331e8d66a777bdf750e158888b",
      "transactionType": "CALL",
      "contractName": null,
      "contractAddress": "0xfa8c40cf7eac88a9da6d002c44c284be844b020c",
      "function": "setAW3C2024NFT(address)",
      "arguments": [
        "0x6CFEc75C163d2c37ef1ee26005D7c018c42844DD"
      ],
      "transaction": {
        "from": "0xfb0c1e0a4ded6df74e5caa07924aa3f8272ad0b8",
        "to": "0xfa8c40cf7eac88a9da6d002c44c284be844b020c",
        "gas": "0x11298",
        "value": "0x0",
        "input": "0xb4313e680000000000000000000000006cfec75c163d2c37ef1ee26005d7c018c42844dd",
        "nonce": "0x9e",
        "chainId": "0x106a"
      },
      "additionalContracts": [],
      "isFixedGasLimit": false
    }
  ],
  "receipts": [
    {
      "status": "0x1",
      "cumulativeGasUsed": "0x7466d",
      "logs": [],
      "logsBloom": "0x00000000000000000000000000000000000000000000000000000000000000000000000000000000000000000000000000000000000000000000000000000000000000000000000000000000000000000000000000000000000000000000000000000000000000000000000000000000000000000000000000000000000000000000000000000000000000000000000000000000000000000000000000000000000000000000000000000000000000000000000000000000000000000000000000000000000000000000000000000000000000000000000000000000000000000000000000000000000000000000000000000000000000000000000000000000",
      "type": "0x2",
      "transactionHash": "0xf9dba7988a5989b085b98c569d3f29ede40c40763fc005af5fe2516102b8502c",
      "transactionIndex": "0x1",
      "blockHash": "0xf9bccfb649669a17626536877c9418a5e277b4f65fbdf0857c8f11295e5bec7c",
      "blockNumber": "0xbd80f5",
      "gasUsed": "0x69b3a",
      "effectiveGasPrice": "0xfe",
      "from": "0xfb0c1e0a4ded6df74e5caa07924aa3f8272ad0b8",
      "to": null,
      "contractAddress": "0x9295b52c494aae9dc7d411c84ec71215571f6632",
      "l1BaseFeeScalar": "0x2af8",
      "l1BlobBaseFee": "0x1",
      "l1BlobBaseFeeScalar": "0x109618",
      "l1Fee": "0x1f865215c3",
      "l1GasPrice": "0x2f74dfd2",
      "l1GasUsed": "0x3c63"
    },
    {
      "status": "0x1",
      "cumulativeGasUsed": "0x312f7a",
      "logs": [],
      "logsBloom": "0x00000000000000000000000000000000000000000000000000000000000000000000000000000000000000000000000000000000000000000000000000000000000000000000000000000000000000000000000000000000000000000000000000000000000000000000000000000000000000000000000000000000000000000000000000000000000000000000000000000000000000000000000000000000000000000000000000000000000000000000000000000000000000000000000000000000000000000000000000000000000000000000000000000000000000000000000000000000000000000000000000000000000000000000000000000000",
      "type": "0x2",
      "transactionHash": "0x6473d669e50cd20f2ca3906d0ecc926f9e97eb872ba7bda537651f781cb5ced2",
      "transactionIndex": "0x2",
      "blockHash": "0xf9bccfb649669a17626536877c9418a5e277b4f65fbdf0857c8f11295e5bec7c",
      "blockNumber": "0xbd80f5",
      "gasUsed": "0x29e90d",
      "effectiveGasPrice": "0xfe",
      "from": "0xfb0c1e0a4ded6df74e5caa07924aa3f8272ad0b8",
      "to": null,
      "contractAddress": "0x6cfec75c163d2c37ef1ee26005d7c018c42844dd",
      "l1BaseFeeScalar": "0x2af8",
      "l1BlobBaseFee": "0x1",
      "l1BlobBaseFeeScalar": "0x109618",
      "l1Fee": "0x9cf562b9ca",
      "l1GasPrice": "0x2f74dfd2",
      "l1GasUsed": "0x12cac"
    },
    {
      "status": "0x1",
      "cumulativeGasUsed": "0x34b332",
      "logs": [
        {
          "address": "0xfa8c40cf7eac88a9da6d002c44c284be844b020c",
          "topics": [
            "0x8faa70878671ccd212d20771b795c50af8fd3ff6cf27f4bde57e5d4de0aeb673"
          ],
          "data": "0x0000000000000000000000000000000000000000000000000000000000000060000000000000000000000000000000000000000000000000000000000000000000000000000000000000000000000000000000000000000000000000000001a0000000000000000000000000000000000000000000000000000000000000000100000000000000000000000000000000000000000000000000000000000000200000000000000000000000009295b52c494aae9dc7d411c84ec71215571f6632000000000000000000000000000000000000000000000000000000000000000000000000000000000000000000000000000000000000000000000000000000600000000000000000000000000000000000000000000000000000000000000004b4313e68000000000000000000000000000000000000000000000000000000005ac450cf00000000000000000000000000000000000000000000000000000000b6c0a1e1000000000000000000000000000000000000000000000000000000003348d7bd000000000000000000000000000000000000000000000000000000000000000000000000000000000000000000000000000000000000000000000000",
          "blockHash": "0xf9bccfb649669a17626536877c9418a5e277b4f65fbdf0857c8f11295e5bec7c",
          "blockNumber": "0xbd80f5",
          "transactionHash": "0x193f3de0ee83eef97ff5e8f75d022138525bc6efe33020f96be3454e452acd9e",
          "transactionIndex": "0x3",
          "logIndex": "0x0",
          "removed": false
        }
      ],
      "logsBloom": "0x00000000000000000000000000000000010000000000000000000000000000000000000000000000000000000000000000000000000000000000000000000000000000000000000000000000000000000000000001000000000800000000000000000000000000000000000000000000000000000000000000000000000000000020000000000000000000000000000000000000000000000000000000000000000000000000000000000000000000020000000000000000000000000000000000000000000000000000000000000000000200000000000000000000000000000000000000000000000000000000000000000000000000000000000000000000",
      "type": "0x2",
      "transactionHash": "0x193f3de0ee83eef97ff5e8f75d022138525bc6efe33020f96be3454e452acd9e",
      "transactionIndex": "0x3",
      "blockHash": "0xf9bccfb649669a17626536877c9418a5e277b4f65fbdf0857c8f11295e5bec7c",
      "blockNumber": "0xbd80f5",
      "gasUsed": "0x383b8",
      "effectiveGasPrice": "0xfe",
      "from": "0xfb0c1e0a4ded6df74e5caa07924aa3f8272ad0b8",
      "to": "0xfa8c40cf7eac88a9da6d002c44c284be844b020c",
      "contractAddress": null,
      "l1BaseFeeScalar": "0x2af8",
      "l1BlobBaseFee": "0x1",
      "l1BlobBaseFeeScalar": "0x109618",
      "l1Fee": "0x46c7c7151",
      "l1GasPrice": "0x2f74dfd2",
      "l1GasUsed": "0x879"
    },
    {
      "status": "0x1",
      "cumulativeGasUsed": "0x36d9cd",
      "logs": [
        {
          "address": "0x6cfec75c163d2c37ef1ee26005d7c018c42844dd",
          "topics": [
            "0x2f8788117e7eff1d82e926ec794901d17c78024a50270940304540a733656f0d",
            "0x0000000000000000000000000000000000000000000000000000000000000000",
            "0x000000000000000000000000fb0c1e0a4ded6df74e5caa07924aa3f8272ad0b8",
            "0x000000000000000000000000fb0c1e0a4ded6df74e5caa07924aa3f8272ad0b8"
          ],
          "data": "0x",
          "blockHash": "0xf9bccfb649669a17626536877c9418a5e277b4f65fbdf0857c8f11295e5bec7c",
          "blockNumber": "0xbd80f5",
          "transactionHash": "0x6d8f48cff3eddc77f68cd9345350c030ea36f72d277263be021aac1739d85fd9",
          "transactionIndex": "0x4",
          "logIndex": "0x1",
          "removed": false
        },
        {
          "address": "0x6cfec75c163d2c37ef1ee26005d7c018c42844dd",
          "topics": [
            "0xc7f505b2f371ae2175ee4913f4499e1f2633a7b5936321eed1cdaeb6115181d2"
          ],
          "data": "0x0000000000000000000000000000000000000000000000000000000000000001",
          "blockHash": "0xf9bccfb649669a17626536877c9418a5e277b4f65fbdf0857c8f11295e5bec7c",
          "blockNumber": "0xbd80f5",
          "transactionHash": "0x6d8f48cff3eddc77f68cd9345350c030ea36f72d277263be021aac1739d85fd9",
          "transactionIndex": "0x4",
          "logIndex": "0x2",
          "removed": false
        }
      ],
      "logsBloom": "0x00000004004000000000000000000000000000000000000000000000000000000000000000000000000000000000000000000000000000000000000000000000000000000000000000000000000000000000000000000000000000000000000000000000020000000000000000000800008000000000000000000000000000000000000000000000000800000000000000000000000080000000000001000000000000000000000000000000000000000000000002000000001000000000000000200000000000000000000000000000000000000004000100080000000020000000000000000000000000000000000000000000000000000000000000000000",
      "type": "0x2",
      "transactionHash": "0x6d8f48cff3eddc77f68cd9345350c030ea36f72d277263be021aac1739d85fd9",
      "transactionIndex": "0x4",
      "blockHash": "0xf9bccfb649669a17626536877c9418a5e277b4f65fbdf0857c8f11295e5bec7c",
      "blockNumber": "0xbd80f5",
      "gasUsed": "0x2269b",
      "effectiveGasPrice": "0xfe",
      "from": "0xfb0c1e0a4ded6df74e5caa07924aa3f8272ad0b8",
      "to": "0x6cfec75c163d2c37ef1ee26005d7c018c42844dd",
      "contractAddress": null,
      "l1BaseFeeScalar": "0x2af8",
      "l1BlobBaseFee": "0x1",
      "l1BlobBaseFeeScalar": "0x109618",
      "l1Fee": "0x3433c3076",
      "l1GasPrice": "0x2f74dfd2",
      "l1GasUsed": "0x640"
    },
    {
      "status": "0x1",
      "cumulativeGasUsed": "0x37a08e",
      "logs": [
        {
          "address": "0x6cfec75c163d2c37ef1ee26005d7c018c42844dd",
          "topics": [
            "0x2f8788117e7eff1d82e926ec794901d17c78024a50270940304540a733656f0d",
            "0x0000000000000000000000000000000000000000000000000000000000000000",
            "0x000000000000000000000000fa8c40cf7eac88a9da6d002c44c284be844b020c",
            "0x000000000000000000000000fb0c1e0a4ded6df74e5caa07924aa3f8272ad0b8"
          ],
          "data": "0x",
          "blockHash": "0xf9bccfb649669a17626536877c9418a5e277b4f65fbdf0857c8f11295e5bec7c",
          "blockNumber": "0xbd80f5",
          "transactionHash": "0x5de3c8cd6625e27d83293079553f7eb2fe9af75a50a2bf1c952e2b468ef60549",
          "transactionIndex": "0x5",
          "logIndex": "0x3",
          "removed": false
        }
      ],
      "logsBloom": "0x00000004004000000000000000000000000000000000000000000000000000000002000000000000000000000000000000000000000000000000000000000000000000000000000000000000000000000000000000000000000000000000000000000000020000000000000000000800008000000000000000000000000000000000000000000000000000000000000000000000000000000100000001000000000000000000008000000000000000000000000002000000001000000000000000200000000000000000000000000000000000000000000100080000000020000000000000000000000000000000000000000000000000000000000000000000",
      "type": "0x2",
      "transactionHash": "0x5de3c8cd6625e27d83293079553f7eb2fe9af75a50a2bf1c952e2b468ef60549",
      "transactionIndex": "0x5",
      "blockHash": "0xf9bccfb649669a17626536877c9418a5e277b4f65fbdf0857c8f11295e5bec7c",
      "blockNumber": "0xbd80f5",
      "gasUsed": "0xc6c1",
      "effectiveGasPrice": "0xfe",
      "from": "0xfb0c1e0a4ded6df74e5caa07924aa3f8272ad0b8",
      "to": "0x6cfec75c163d2c37ef1ee26005d7c018c42844dd",
      "contractAddress": null,
      "l1BaseFeeScalar": "0x2af8",
      "l1BlobBaseFee": "0x1",
      "l1BlobBaseFeeScalar": "0x109618",
      "l1Fee": "0x3433c3076",
      "l1GasPrice": "0x2f74dfd2",
      "l1GasUsed": "0x640"
    },
    {
      "status": "0x1",
      "cumulativeGasUsed": "0x38675b",
      "logs": [
        {
          "address": "0x6cfec75c163d2c37ef1ee26005d7c018c42844dd",
          "topics": [
            "0x2f8788117e7eff1d82e926ec794901d17c78024a50270940304540a733656f0d",
            "0x0000000000000000000000000000000000000000000000000000000000000000",
            "0x000000000000000000000000c408235a9a01767d70b41c98d92f2dc7b0d959f4",
            "0x000000000000000000000000fb0c1e0a4ded6df74e5caa07924aa3f8272ad0b8"
          ],
          "data": "0x",
          "blockHash": "0xf9bccfb649669a17626536877c9418a5e277b4f65fbdf0857c8f11295e5bec7c",
          "blockNumber": "0xbd80f5",
          "transactionHash": "0x1aa1f3bda7b5eb63f89ccceaf2d39d82ff26732d9422426740c7778c345a5f9c",
          "transactionIndex": "0x6",
          "logIndex": "0x4",
          "removed": false
        }
      ],
      "logsBloom": "0x00000004004000000000000000000000000000000000000000000000000000000000000000000000000000000000000000000000000000000000000000000000000000000000000000000000000000000000000000000000000000000000000000000000020000000000000000010800008000000000000000000000000000000000000000000000000000000000000000000000000000000000000001000000000000000000000000000000000000000000000002000000001000000000000000200000000000000000000000000000000000000000000100080000000020000000000000000000000400000000000000010000000000000000000000000000",
      "type": "0x2",
      "transactionHash": "0x1aa1f3bda7b5eb63f89ccceaf2d39d82ff26732d9422426740c7778c345a5f9c",
      "transactionIndex": "0x6",
      "blockHash": "0xf9bccfb649669a17626536877c9418a5e277b4f65fbdf0857c8f11295e5bec7c",
      "blockNumber": "0xbd80f5",
      "gasUsed": "0xc6cd",
      "effectiveGasPrice": "0xfe",
      "from": "0xfb0c1e0a4ded6df74e5caa07924aa3f8272ad0b8",
      "to": "0x6cfec75c163d2c37ef1ee26005d7c018c42844dd",
      "contractAddress": null,
      "l1BaseFeeScalar": "0x2af8",
      "l1BlobBaseFee": "0x1",
      "l1BlobBaseFeeScalar": "0x109618",
      "l1Fee": "0x3433c3076",
      "l1GasPrice": "0x2f74dfd2",
      "l1GasUsed": "0x640"
    },
    {
      "status": "0x1",
      "cumulativeGasUsed": "0x38cfc4",
      "logs": [],
      "logsBloom": "0x00000000000000000000000000000000000000000000000000000000000000000000000000000000000000000000000000000000000000000000000000000000000000000000000000000000000000000000000000000000000000000000000000000000000000000000000000000000000000000000000000000000000000000000000000000000000000000000000000000000000000000000000000000000000000000000000000000000000000000000000000000000000000000000000000000000000000000000000000000000000000000000000000000000000000000000000000000000000000000000000000000000000000000000000000000000",
      "type": "0x2",
      "transactionHash": "0x0a956e875d6d9d4fdd2b07e5f5ab9fb0d67e9cbee5d0582dbdd9837978136ced",
      "transactionIndex": "0x7",
      "blockHash": "0xf9bccfb649669a17626536877c9418a5e277b4f65fbdf0857c8f11295e5bec7c",
      "blockNumber": "0xbd80f5",
      "gasUsed": "0x6869",
      "effectiveGasPrice": "0xfe",
      "from": "0xfb0c1e0a4ded6df74e5caa07924aa3f8272ad0b8",
      "to": "0x6cfec75c163d2c37ef1ee26005d7c018c42844dd",
      "contractAddress": null,
      "l1BaseFeeScalar": "0x2af8",
      "l1BlobBaseFee": "0x1",
      "l1BlobBaseFeeScalar": "0x109618",
      "l1Fee": "0x3433c3076",
      "l1GasPrice": "0x2f74dfd2",
      "l1GasUsed": "0x640"
    },
    {
      "status": "0x1",
      "cumulativeGasUsed": "0x39aabb",
      "logs": [
        {
          "address": "0xfa8c40cf7eac88a9da6d002c44c284be844b020c",
          "topics": [
            "0x2f8788117e7eff1d82e926ec794901d17c78024a50270940304540a733656f0d",
            "0x2fe21ea9f3fd4821b5b7e06a335d41592c9d037c8d0048120eb56d07dcf6d9b0",
            "0x000000000000000000000000c408235a9a01767d70b41c98d92f2dc7b0d959f4",
            "0x000000000000000000000000fb0c1e0a4ded6df74e5caa07924aa3f8272ad0b8"
          ],
          "data": "0x",
          "blockHash": "0xf9bccfb649669a17626536877c9418a5e277b4f65fbdf0857c8f11295e5bec7c",
          "blockNumber": "0xbd80f5",
          "transactionHash": "0xd18d6f052b19dc117cf082b8d7d9150b3ee7b263d7730df8809670ffabcf8699",
          "transactionIndex": "0x8",
          "logIndex": "0x5",
          "removed": false
        }
      ],
      "logsBloom": "0x00000004000000000000000000000000010000000000000000000000000000000000000000000000000000000000000008000000000000000000000000000000000000000000000000000000000000000100000000000000000000000000000000000000000000000000000000010000000000000000000000000000000000000000000000000000000000000000000000000000000000000000000000000000000000000000000000000000000000020000000002000000001000000000000000200000000000000000000000000000000200000004000100080000000000000000000000000000000400000000000000010000000000000000000000000000",
      "type": "0x2",
      "transactionHash": "0xd18d6f052b19dc117cf082b8d7d9150b3ee7b263d7730df8809670ffabcf8699",
      "transactionIndex": "0x8",
      "blockHash": "0xf9bccfb649669a17626536877c9418a5e277b4f65fbdf0857c8f11295e5bec7c",
      "blockNumber": "0xbd80f5",
      "gasUsed": "0xdaf7",
      "effectiveGasPrice": "0xfe",
      "from": "0xfb0c1e0a4ded6df74e5caa07924aa3f8272ad0b8",
      "to": "0xfa8c40cf7eac88a9da6d002c44c284be844b020c",
      "contractAddress": null,
      "l1BaseFeeScalar": "0x2af8",
      "l1BlobBaseFee": "0x1",
      "l1BlobBaseFeeScalar": "0x109618",
      "l1Fee": "0x35c00d02d",
      "l1GasPrice": "0x2f74dfd2",
      "l1GasUsed": "0x66f"
    },
    {
      "status": "0x1",
      "cumulativeGasUsed": "0x3a85b2",
      "logs": [
        {
          "address": "0xfa8c40cf7eac88a9da6d002c44c284be844b020c",
          "topics": [
            "0x2f8788117e7eff1d82e926ec794901d17c78024a50270940304540a733656f0d",
            "0x2fe21ea9f3fd4821b5b7e06a335d41592c9d037c8d0048120eb56d07dcf6d9b0",
            "0x000000000000000000000000fb0c1e0a4ded6df74e5caa07924aa3f8272ad0b8",
            "0x000000000000000000000000fb0c1e0a4ded6df74e5caa07924aa3f8272ad0b8"
          ],
          "data": "0x",
          "blockHash": "0xf9bccfb649669a17626536877c9418a5e277b4f65fbdf0857c8f11295e5bec7c",
          "blockNumber": "0xbd80f5",
          "transactionHash": "0xfcde78ab2cf1b92dcedeb9213314d33a38c755d816e04b6bf497d3668c98a82c",
          "transactionIndex": "0x9",
          "logIndex": "0x6",
          "removed": false
        }
      ],
      "logsBloom": "0x00000004000000000000000000000000010000000000000000000000000000000000000000000000000000000000000008000000000000000000000000000000000000000000000000000000000000000100000000000000000000000000000000000000000000000000000000000000000000000000000000000000000000000000000000000000000000000000000000000000000000000000000000000000000000000000000000000000000000020000000002000000001000000000000000200000000000000000000000000000000200000004000100080000000000000000000000000000000000000000000000000000000000000000000000000000",
      "type": "0x2",
      "transactionHash": "0xfcde78ab2cf1b92dcedeb9213314d33a38c755d816e04b6bf497d3668c98a82c",
      "transactionIndex": "0x9",
      "blockHash": "0xf9bccfb649669a17626536877c9418a5e277b4f65fbdf0857c8f11295e5bec7c",
      "blockNumber": "0xbd80f5",
      "gasUsed": "0xdaf7",
      "effectiveGasPrice": "0xfe",
      "from": "0xfb0c1e0a4ded6df74e5caa07924aa3f8272ad0b8",
      "to": "0xfa8c40cf7eac88a9da6d002c44c284be844b020c",
      "contractAddress": null,
      "l1BaseFeeScalar": "0x2af8",
      "l1BlobBaseFee": "0x1",
      "l1BlobBaseFeeScalar": "0x109618",
      "l1Fee": "0x35c00d02d",
      "l1GasPrice": "0x2f74dfd2",
      "l1GasUsed": "0x66f"
    },
    {
      "status": "0x1",
      "cumulativeGasUsed": "0x3b4c80",
      "logs": [],
      "logsBloom": "0x00000000000000000000000000000000000000000000000000000000000000000000000000000000000000000000000000000000000000000000000000000000000000000000000000000000000000000000000000000000000000000000000000000000000000000000000000000000000000000000000000000000000000000000000000000000000000000000000000000000000000000000000000000000000000000000000000000000000000000000000000000000000000000000000000000000000000000000000000000000000000000000000000000000000000000000000000000000000000000000000000000000000000000000000000000000",
      "type": "0x2",
      "transactionHash": "0xb114d79361580d4ce15afe87d47be1d3696145331e8d66a777bdf750e158888b",
      "transactionIndex": "0xa",
      "blockHash": "0xf9bccfb649669a17626536877c9418a5e277b4f65fbdf0857c8f11295e5bec7c",
      "blockNumber": "0xbd80f5",
      "gasUsed": "0xc6ce",
      "effectiveGasPrice": "0xfe",
      "from": "0xfb0c1e0a4ded6df74e5caa07924aa3f8272ad0b8",
      "to": "0xfa8c40cf7eac88a9da6d002c44c284be844b020c",
      "contractAddress": null,
      "l1BaseFeeScalar": "0x2af8",
      "l1BlobBaseFee": "0x1",
      "l1BlobBaseFeeScalar": "0x109618",
      "l1Fee": "0x3433c3076",
      "l1GasPrice": "0x2f74dfd2",
      "l1GasUsed": "0x640"
    }
  ],
  "libraries": [],
  "pending": [],
  "returns": {},
  "timestamp": 1730151673,
  "chain": 4202,
  "commit": "cc54ab0"
}