{
  "transactions": [
    {
      "hash": "0x4d9e50dc6007f007bb671e81c5641e9d0e997a5c9f7cad4d68a46968ecbb1762",
      "transactionType": "CREATE",
      "contractName": "W3LC2024Facet",
      "contractAddress": "0x04e66af0b48466e955355ac18bc4ed14f60e84ff",
      "function": null,
      "arguments": null,
      "transaction": {
        "from": "0xfb0c1e0a4ded6df74e5caa07924aa3f8272ad0b8",
        "gas": "0xb9697",
        "value": "0x0",
        "input": "0x608080604052346015576109ae908161001b8239f35b600080fdfe6080604052600436101561001257600080fd5b60003560e01c8063059fa3e5146107515780633cef5c38146103795780633d3a01881461030a5780636f1537fb146102c5578063b7af5e3114610271578063ce715db4146100e55763f5f03e461461006957600080fd5b346100e05760207ffffffffffffffffffffffffffffffffffffffffffffffffffffffffffffffffc3601126100e05760043560038110156100e0576100b5906100b06108ed565b61087b565b80547fffffffffffffffffffffffffffffffffffffffffffffffffffffffffffffff00166001179055005b600080fd5b346100e05760007ffffffffffffffffffffffffffffffffffffffffffffffffffffffffffffffffc3601126100e0576040516004548082528160208101600460005260206000209260005b818110610242575050610145925003826108ac565b604051906005548083528260208101600560005260206000209260005b818110610213575050610177925003836108ac565b604051916006548084526020840190600660005260206000209060005b8181106101e7576101c7866101e3896101d5896101b3838b03846108ac565b604051958695606087526060870190610831565b908582036020870152610831565b908382036040850152610831565b0390f35b825473ffffffffffffffffffffffffffffffffffffffff16845260209093019260019283019201610194565b845473ffffffffffffffffffffffffffffffffffffffff16835260019485019487945060209093019201610162565b845473ffffffffffffffffffffffffffffffffffffffff16835260019485019486945060209093019201610130565b346100e05760207ffffffffffffffffffffffffffffffffffffffffffffffffffffffffffffffffc3601126100e05760043560038110156100e05760ff6102b960209261087b565b54166040519015158152f35b346100e057602060ff6102b96103056102dd366107d7565b919073ffffffffffffffffffffffffffffffffffffffff166000526003602052604060002090565b610894565b346100e05760207ffffffffffffffffffffffffffffffffffffffffffffffffffffffffffffffffc3601126100e05760043560038110156100e057610351906100b06108ed565b80547fffffffffffffffffffffffffffffffffffffffffffffffffffffffffffffff00169055005b346100e057610387366107d7565b906103906108ed565b60ff61039b8361087b565b54161561072757600160ff6103d4846103058573ffffffffffffffffffffffffffffffffffffffff166000526003602052604060002090565b54161515146106fd5773ffffffffffffffffffffffffffffffffffffffff60005416906040517f70a0823100000000000000000000000000000000000000000000000000000000815260208160248173ffffffffffffffffffffffffffffffffffffffff8616968760048301525afa9081156106f1576000916106bf575b501561069557826103056104869273ffffffffffffffffffffffffffffffffffffffff166000526003602052604060002090565b60017fffffffffffffffffffffffffffffffffffffffffffffffffffffffffffffff0082541617905560038210158061055c57826105e957600454680100000000000000008110156105ba57600181018060045581101561058b5760046000527f8a35acfbc15ff81a39ae7d344fd709f28e8600b4aa8c65c6b64bfe7fe36bd19b0180547fffffffffffffffffffffffff000000000000000000000000000000000000000016831790555b61055c577fe7b959b47b3ab8dc30a0eafa6a02a27b209fde1e2edec29cbb6870fb46c14e54600080a3005b7f4e487b7100000000000000000000000000000000000000000000000000000000600052602160045260246000fd5b7f4e487b7100000000000000000000000000000000000000000000000000000000600052603260045260246000fd5b7f4e487b7100000000000000000000000000000000000000000000000000000000600052604160045260246000fd5b5060006001830361066b57600554680100000000000000008110156105ba57600181018060055581101561058b5760056000527f036b6384b5eca791c62761152d0c79bb0604c104a5fb6f4eb0703f3154bb3db00180547fffffffffffffffffffffffff00000000000000000000000000000000000000001683179055610531565b7f38a76be30000000000000000000000000000000000000000000000000000000060005260046000fd5b7feddd67c20000000000000000000000000000000000000000000000000000000060005260046000fd5b90506020813d6020116106e9575b816106da602093836108ac565b810103126100e0575184610452565b3d91506106cd565b6040513d6000823e3d90fd5b7feca959ed0000000000000000000000000000000000000000000000000000000060005260046000fd5b7f9537da430000000000000000000000000000000000000000000000000000000060005260046000fd5b346100e05760207ffffffffffffffffffffffffffffffffffffffffffffffffffffffffffffffffc3601126100e05760043573ffffffffffffffffffffffffffffffffffffffff81168091036100e0576107a96108ed565b7fffffffffffffffffffffffff00000000000000000000000000000000000000006000541617600055600080f35b7ffffffffffffffffffffffffffffffffffffffffffffffffffffffffffffffffc60409101126100e05760043573ffffffffffffffffffffffffffffffffffffffff811681036100e0579060243560038110156100e05790565b906020808351928381520192019060005b81811061084f5750505090565b825173ffffffffffffffffffffffffffffffffffffffff16845260209384019390920191600101610842565b600381101561055c576000526002602052604060002090565b90600381101561055c57600052602052604060002090565b90601f7fffffffffffffffffffffffffffffffffffffffffffffffffffffffffffffffe0910116810190811067ffffffffffffffff8211176105ba57604052565b3360009081527f4ee72e29e3bcddbe947bb2eba0e497db0f6efaa93b27fb4d2424b6da7a6c37fe602052604090205460ff161561092657565b7fe2517d3f00000000000000000000000000000000000000000000000000000000600052336004527fbb8a35a294558f718fbf2fb88113cd3e87529d53c5abd8ded00d735bd6ad760c60245260446000fdfea2646970667358221220efda82bf6b80b48823364abcd921a98bd9b6020068f2520e89009bf97ba6148664736f6c634300081a0033",
        "nonce": "0x24",
        "chainId": "0x106a"
      },
      "additionalContracts": [],
      "isFixedGasLimit": false
    },
    {
      "hash": "0x018d4cb0289e3ad10dd4b98d3c0004dd27219a940c54c002f2030261342c1a4f",
      "transactionType": "CALL",
      "contractName": null,
      "contractAddress": "0x734328c180ef236a6cb7737132fe2b6a96201592",
      "function": "diamondCut((address,uint8,bytes4[])[],address,bytes)",
      "arguments": [
        "[(0x0000000000000000000000000000000000000000, 2, [0xe76592f700000000000000000000000000000000000000000000000000000000, 0xcd69522100000000000000000000000000000000000000000000000000000000]), (0x04e66Af0B48466E955355AC18bc4eD14f60e84Ff, 0, [0x059fa3e500000000000000000000000000000000000000000000000000000000, 0xf5f03e4600000000000000000000000000000000000000000000000000000000, 0x3d3a018800000000000000000000000000000000000000000000000000000000, 0x3cef5c3800000000000000000000000000000000000000000000000000000000, 0x6f1537fb00000000000000000000000000000000000000000000000000000000, 0xce715db400000000000000000000000000000000000000000000000000000000, 0xb7af5e3100000000000000000000000000000000000000000000000000000000])]",
        "0x0000000000000000000000000000000000000000",
        "0x"
      ],
      "transaction": {
        "from": "0xfb0c1e0a4ded6df74e5caa07924aa3f8272ad0b8",
        "to": "0x734328c180ef236a6cb7737132fe2b6a96201592",
        "gas": "0x68c7c",
        "value": "0x0",
        "input": "0x1f931c1c0000000000000000000000000000000000000000000000000000000000000060000000000000000000000000000000000000000000000000000000000000000000000000000000000000000000000000000000000000000000000000000002e00000000000000000000000000000000000000000000000000000000000000002000000000000000000000000000000000000000000000000000000000000004000000000000000000000000000000000000000000000000000000000000001000000000000000000000000000000000000000000000000000000000000000000000000000000000000000000000000000000000000000000000000000000000200000000000000000000000000000000000000000000000000000000000000600000000000000000000000000000000000000000000000000000000000000002e76592f700000000000000000000000000000000000000000000000000000000cd6952210000000000000000000000000000000000000000000000000000000000000000000000000000000004e66af0b48466e955355ac18bc4ed14f60e84ff000000000000000000000000000000000000000000000000000000000000000000000000000000000000000000000000000000000000000000000000000000600000000000000000000000000000000000000000000000000000000000000007059fa3e500000000000000000000000000000000000000000000000000000000f5f03e46000000000000000000000000000000000000000000000000000000003d3a0188000000000000000000000000000000000000000000000000000000003cef5c38000000000000000000000000000000000000000000000000000000006f1537fb00000000000000000000000000000000000000000000000000000000ce715db400000000000000000000000000000000000000000000000000000000b7af5e31000000000000000000000000000000000000000000000000000000000000000000000000000000000000000000000000000000000000000000000000",
        "nonce": "0x25",
        "chainId": "0x106a"
      },
      "additionalContracts": [],
      "isFixedGasLimit": false
    }
  ],
  "receipts": [
    {
      "status": "0x1",
      "cumulativeGasUsed": "0x995c3",
      "logs": [],
      "logsBloom": "0x00000000000000000000000000000000000000000000000000000000000000000000000000000000000000000000000000000000000000000000000000000000000000000000000000000000000000000000000000000000000000000000000000000000000000000000000000000000000000000000000000000000000000000000000000000000000000000000000000000000000000000000000000000000000000000000000000000000000000000000000000000000000000000000000000000000000000000000000000000000000000000000000000000000000000000000000000000000000000000000000000000000000000000000000000000000",
      "type": "0x2",
      "transactionHash": "0x4d9e50dc6007f007bb671e81c5641e9d0e997a5c9f7cad4d68a46968ecbb1762",
      "transactionIndex": "0x1",
      "blockHash": "0x9326024e956eb5c465e55d464b3ecbf55e224f74a865715820d33f03656710f9",
      "blockNumber": "0x8df893",
      "gasUsed": "0x8ea9c",
      "effectiveGasPrice": "0xfe",
      "from": "0xfb0c1e0a4ded6df74e5caa07924aa3f8272ad0b8",
      "to": null,
      "contractAddress": "0x04e66af0b48466e955355ac18bc4ed14f60e84ff",
      "l1BaseFeeScalar": "0x2af8",
      "l1BlobBaseFee": "0x3",
      "l1BlobBaseFeeScalar": "0x109618",
      "l1Fee": "0xb6cafa6",
      "l1GasPrice": "0xe1162",
      "l1GasUsed": "0x49d3"
    },
    {
      "status": "0x1",
      "cumulativeGasUsed": "0xe1014",
      "logs": [
        {
          "address": "0x734328c180ef236a6cb7737132fe2b6a96201592",
          "topics": [
            "0x8faa70878671ccd212d20771b795c50af8fd3ff6cf27f4bde57e5d4de0aeb673"
          ],
          "data": "0x0000000000000000000000000000000000000000000000000000000000000060000000000000000000000000000000000000000000000000000000000000000000000000000000000000000000000000000000000000000000000000000002e00000000000000000000000000000000000000000000000000000000000000002000000000000000000000000000000000000000000000000000000000000004000000000000000000000000000000000000000000000000000000000000001000000000000000000000000000000000000000000000000000000000000000000000000000000000000000000000000000000000000000000000000000000000200000000000000000000000000000000000000000000000000000000000000600000000000000000000000000000000000000000000000000000000000000002e76592f700000000000000000000000000000000000000000000000000000000cd6952210000000000000000000000000000000000000000000000000000000000000000000000000000000004e66af0b48466e955355ac18bc4ed14f60e84ff000000000000000000000000000000000000000000000000000000000000000000000000000000000000000000000000000000000000000000000000000000600000000000000000000000000000000000000000000000000000000000000007059fa3e500000000000000000000000000000000000000000000000000000000f5f03e46000000000000000000000000000000000000000000000000000000003d3a0188000000000000000000000000000000000000000000000000000000003cef5c38000000000000000000000000000000000000000000000000000000006f1537fb00000000000000000000000000000000000000000000000000000000ce715db400000000000000000000000000000000000000000000000000000000b7af5e31000000000000000000000000000000000000000000000000000000000000000000000000000000000000000000000000000000000000000000000000",
          "blockHash": "0x9326024e956eb5c465e55d464b3ecbf55e224f74a865715820d33f03656710f9",
          "blockNumber": "0x8df893",
          "transactionHash": "0x018d4cb0289e3ad10dd4b98d3c0004dd27219a940c54c002f2030261342c1a4f",
          "transactionIndex": "0x2",
          "logIndex": "0x0",
          "removed": false
        }
      ],
      "logsBloom": "0x00000000000000000000000000002000000000000000000000000000000000000000000000000000000000000000000000000000000000000000000000000000000000000000000000000000000000000000000001000000000800000200000000000000000000000008000000000000000000000000000000000000000000000020000000000000000000000000000000000000000000000000000000000000000000000000000000000000000000000000000000000000000000000000000000000000000000000000000000000000000000000000000000000000000000000000000000000000000000000000000000000000000000000000000000000000",
      "type": "0x2",
      "transactionHash": "0x018d4cb0289e3ad10dd4b98d3c0004dd27219a940c54c002f2030261342c1a4f",
      "transactionIndex": "0x2",
      "blockHash": "0x9326024e956eb5c465e55d464b3ecbf55e224f74a865715820d33f03656710f9",
      "blockNumber": "0x8df893",
      "gasUsed": "0x47a51",
      "effectiveGasPrice": "0xfe",
      "from": "0xfb0c1e0a4ded6df74e5caa07924aa3f8272ad0b8",
      "to": "0x734328c180ef236a6cb7737132fe2b6a96201592",
      "contractAddress": null,
      "l1BaseFeeScalar": "0x2af8",
      "l1BlobBaseFee": "0x3",
      "l1BlobBaseFeeScalar": "0x109618",
      "l1Fee": "0x1c5c66d",
      "l1GasPrice": "0xe1162",
      "l1GasUsed": "0xb74"
    }
  ],
  "libraries": [],
  "pending": [],
  "returns": {},
  "timestamp": 1723921636,
  "chain": 4202,
  "commit": "442e8d7"
}