{
  "transactions": [
    {
      "hash": "0x000f7b0d6a489fe490e0e2f3118559de16330661711dca9328774479ebcd5cbf",
      "transactionType": "CREATE",
      "contractName": "BIUC2024Facet",
      "contractAddress": "0x6c93025be7ef1a258b121786d19691ae55992f01",
      "function": null,
      "arguments": null,
      "transaction": {
        "from": "0x7d413f244a0e9a0b9c8d7f9afa1177ee3a2837fa",
        "gas": "0x8b4f1",
        "value": "0x0",
        "input": "0x60808060405234601557610709908161001b8239f35b600080fdfe6080604052600436101561001257600080fd5b6000803560e01c806326e395eb146104f45780636fd261de146103f45780639df05287146103ab5763f3839ad41461004957600080fd5b346103a85761005736610579565b90610060610648565b600160ff61008e8373ffffffffffffffffffffffffffffffffffffffff166000526010602052604060002090565b54161515146103455773ffffffffffffffffffffffffffffffffffffffff600f54169083604051927f70a0823100000000000000000000000000000000000000000000000000000000845273ffffffffffffffffffffffffffffffffffffffff831693846004820152602081602481855afa90811561033a578391610304575b5015610292575b50506011546801000000000000000081101561026557600181018060115581101561023857601185527f31ecc21a745e3968a04e9570e4425bc18fa8019c68028196b546d1669c200c680180547fffffffffffffffffffffffff0000000000000000000000000000000000000000168317905573ffffffffffffffffffffffffffffffffffffffff16600090815260106020526040902060017fffffffffffffffffffffffffffffffffffffffffffffffffffffffffffffff00825416179055600482101561020b577ff5614c85907629086fe78af17cc212197065dccf1832b94c9467879c708ed6466020604051428152a380f35b6024837f4e487b710000000000000000000000000000000000000000000000000000000081526021600452fd5b6024857f4e487b710000000000000000000000000000000000000000000000000000000081526032600452fd5b6024857f4e487b710000000000000000000000000000000000000000000000000000000081526041600452fd5b803b156103005781906024604051809481937f2a240ef00000000000000000000000000000000000000000000000000000000083528860048401525af180156102f5576102e1575b8490610115565b846102ee919592956105d8565b92386102da565b6040513d87823e3d90fd5b5080fd5b90506020813d602011610332575b8161031f602093836105d8565b8101031261032e57513861010e565b8280fd5b3d9150610312565b6040513d85823e3d90fd5b60248383600481101561037d577fc784bb3a00000000000000000000000000000000000000000000000000000000825260ff16600452fd5b507f4e487b710000000000000000000000000000000000000000000000000000000081526021600452fd5b80fd5b50346103a857602060ff6103e86103c136610579565b5073ffffffffffffffffffffffffffffffffffffffff166000526010602052604060002090565b54166040519015158152f35b50346103a857807ffffffffffffffffffffffffffffffffffffffffffffffffffffffffffffffffc3601126103a85760405160118054808352908352602082019081907f31ecc21a745e3968a04e9570e4425bc18fa8019c68028196b546d1669c200c6890855b8181106104c857505050826104719103836105d8565b604051928392602084019060208552518091526040840192915b818110610499575050500390f35b825173ffffffffffffffffffffffffffffffffffffffff1684528594506020938401939092019160010161048b565b825473ffffffffffffffffffffffffffffffffffffffff1684526020909301926001928301920161045b565b50346103a85760207ffffffffffffffffffffffffffffffffffffffffffffffffffffffffffffffffc3601126103a85760043573ffffffffffffffffffffffffffffffffffffffff81168091036103005761054d610648565b7fffffffffffffffffffffffff0000000000000000000000000000000000000000600f541617600f5580f35b7ffffffffffffffffffffffffffffffffffffffffffffffffffffffffffffffffc60409101126105d35760043573ffffffffffffffffffffffffffffffffffffffff811681036105d3579060243560048110156105d35790565b600080fd5b90601f7fffffffffffffffffffffffffffffffffffffffffffffffffffffffffffffffe0910116810190811067ffffffffffffffff82111761061957604052565b7f4e487b7100000000000000000000000000000000000000000000000000000000600052604160045260246000fd5b3360009081527fedb535029aad825972b9bf8f3d70e382d0721db44c57d821d6a377c1b3f84d19602052604090205460ff161561068157565b7fe2517d3f00000000000000000000000000000000000000000000000000000000600052336004527f09bbebe62c1bb2a40021d9ad68c463da0ceccd5f8653d0d1f56090833d3e567760245260446000fdfea264697066735822122054400aec1970430da7ec03e64c364d101d55c9ca0b657d3465b33fe18ef25fe864736f6c634300081a0033",
        "nonce": "0x30",
        "chainId": "0x46f"
      },
      "additionalContracts": [],
      "isFixedGasLimit": false
    },
    {
      "hash": "0xc1e628a45a20853bb13cbf89b9a5f0456b2f5eb49b4da345dd9923696efb204c",
      "transactionType": "CREATE",
      "contractName": "BIUC2024",
      "contractAddress": "0x1917fcb17298789d8caab3ee172561aeceb60e03",
      "function": null,
      "arguments": null,
      "transaction": {
        "from": "0x7d413f244a0e9a0b9c8d7f9afa1177ee3a2837fa",
        "gas": "0x36a110",
        "value": "0x0",
        "input": "0x6080806040523460155761311a908161001b8239f35b600080fdfe6080604052600436101561001257600080fd5b60003560e01c806301ffc9a7146101b757806306fdde03146101b2578063081812fc146101ad578063095ea7b3146101a857806318160ddd146101a357806323b872dd1461019e578063248a9ca3146101995780632a240ef0146101945780632f2ff15d1461018f57806336568abe1461018a57806342842e0e1461018557806355f804b3146101805780636352211e1461017b57806370a082311461017657806391d148541461017157806395d89b411461016c578063a217fddf14610167578063a22cb46514610162578063b88d4fde1461015d578063bc7f6e1614610158578063c4d66de814610153578063c87b56dd1461014e578063d3c1c83814610149578063d547741f14610144578063d67b06c11461013f5763e985e9c51461013a57600080fd5b6115c4565b611580565b61151e565b6114d4565b61144d565b6111f5565b611075565b611012565b610f29565b610f0d565b610e27565b610da4565b610ce3565b610ca7565b610a42565b610937565b6108c7565b610860565b610833565b6107df565b6107cb565b61073e565b6105a6565b6104ef565b6103ba565b6101eb565b7fffffffff000000000000000000000000000000000000000000000000000000008116036101e657565b600080fd5b346101e65760206003193601126101e6576102837fffffffff0000000000000000000000000000000000000000000000000000000060043561022c816101bc565b167f01ffc9a70000000000000000000000000000000000000000000000000000000081149081908215610316575b82156102ec575b82156102c2575b8215610287575b505060405190151581529081906020820190565b0390f35b7f7965db0b0000000000000000000000000000000000000000000000000000000014915081156102ba575b50388061026f565b9050386102b2565b7f7965db0b0000000000000000000000000000000000000000000000000000000081149250610268565b7f5b5e139f0000000000000000000000000000000000000000000000000000000081149250610261565b7f80ac58cd000000000000000000000000000000000000000000000000000000008114925061025a565b60005b8381106103535750506000910152565b8181015183820152602001610343565b907fffffffffffffffffffffffffffffffffffffffffffffffffffffffffffffffe0601f60209361039f81518092818752878088019101610340565b0116010190565b9060206103b7928181520190610363565b90565b346101e65760006003193601126101e65760405160007f2569078dfb4b0305704d3008e7403993ae9601b85f7ae5e742de3de8f8011c42546103fb8161163d565b80845290600181169081156104ad575060011461042f575b610283836104238185038261098b565b604051918291826103a6565b7f2569078dfb4b0305704d3008e7403993ae9601b85f7ae5e742de3de8f8011c4260009081527f933ecf8acb7824b680a8d16f3ff3db8864228d986aa4c2ebab1eeb2703b4beb3939250905b80821061049357509091508101602001610423610413565b91926001816020925483858801015201910190929161047b565b7fffffffffffffffffffffffffffffffffffffffffffffffffffffffffffffff001660208086019190915291151560051b840190910191506104239050610413565b346101e65760206003193601126101e65760043561050c81612271565b1561055e576000527f2569078dfb4b0305704d3008e7403993ae9601b85f7ae5e742de3de8f8011c46602052602073ffffffffffffffffffffffffffffffffffffffff60406000205416604051908152f35b7fcf4700e40000000000000000000000000000000000000000000000000000000060005260046000fd5b73ffffffffffffffffffffffffffffffffffffffff8116036101e657565b60406003193601126101e6576004356105be81610588565b6024359073ffffffffffffffffffffffffffffffffffffffff6105e08361245c565b169081330361069a575b73ffffffffffffffffffffffffffffffffffffffff90836000527f2569078dfb4b0305704d3008e7403993ae9601b85f7ae5e742de3de8f8011c466020526106718160406000209073ffffffffffffffffffffffffffffffffffffffff167fffffffffffffffffffffffff0000000000000000000000000000000000000000825416179055565b16907f8c5be1e5ebec7d5bd14f71427d1e84f3dd0314c0f7b2291e5b200ac8c7c3b925600080a4005b60ff61070e336106e98573ffffffffffffffffffffffffffffffffffffffff166000527f2569078dfb4b0305704d3008e7403993ae9601b85f7ae5e742de3de8f8011c47602052604060002090565b9073ffffffffffffffffffffffffffffffffffffffff16600052602052604060002090565b54166105ea577fcfb3b9420000000000000000000000000000000000000000000000000000000060005260046000fd5b346101e65760006003193601126101e65760207f2569078dfb4b0305704d3008e7403993ae9601b85f7ae5e742de3de8f8011c40547f2569078dfb4b0305704d3008e7403993ae9601b85f7ae5e742de3de8f8011c41549003604051908152f35b60031960609101126101e6576004356107b781610588565b906024356107c481610588565b9060443590565b6107dd6107d73661079f565b91611865565b005b346101e65760206003193601126101e657602061082b6004356000527f02dd7bc7dec4dceedda775e58dd541e08a116c6c53815c0bd028192f7b62680060205260016040600020015490565b604051908152f35b346101e65760206003193601126101e6576107dd60043561085381610588565b61085b6125c1565b6126c0565b346101e65760406003193601126101e6576107dd60243560043561088382610588565b6108c26108bd826000527f02dd7bc7dec4dceedda775e58dd541e08a116c6c53815c0bd028192f7b62680060205260016040600020015490565b61262d565b612911565b346101e65760406003193601126101e6576004356024356108e781610588565b3373ffffffffffffffffffffffffffffffffffffffff82160361090d576107dd91612a38565b7f6697b2320000000000000000000000000000000000000000000000000000000060005260046000fd5b6107dd6109433661079f565b906040519261095360208561098b565b60008452611b74565b7f4e487b7100000000000000000000000000000000000000000000000000000000600052604160045260246000fd5b90601f7fffffffffffffffffffffffffffffffffffffffffffffffffffffffffffffffe0910116810190811067ffffffffffffffff8211176109cc57604052565b61095c565b67ffffffffffffffff81116109cc57601f017fffffffffffffffffffffffffffffffffffffffffffffffffffffffffffffffe01660200190565b929192610a17826109d1565b91610a25604051938461098b565b8294818452818301116101e6578281602093846000960137010152565b346101e65760206003193601126101e65760043567ffffffffffffffff81116101e657366023820112156101e657610a84903690602481600401359101610a0b565b610a8c6125c1565b610a94611690565b9080519167ffffffffffffffff83116109cc57610ada83610ad57f2569078dfb4b0305704d3008e7403993ae9601b85f7ae5e742de3de8f8011c495461163d565b612b56565b6020601f8411600114610b8957837fc9c7c3fe08b88b4df9d4d47ef47d2c43d55c025a0ba88ca442580ed9e7348a1694610b4792600091610b7e575b507fffffffffffffffffffffffffffffffffffffffffffffffffffffffffffffffff8260011b9260031b1c19161790565b7f2569078dfb4b0305704d3008e7403993ae9601b85f7ae5e742de3de8f8011c49555b610b7960405192839283612e5d565b0390a1005b905084015138610b16565b7f2569078dfb4b0305704d3008e7403993ae9601b85f7ae5e742de3de8f8011c496000527fffffffffffffffffffffffffffffffffffffffffffffffffffffffffffffffe08416907f52ec6bedc82acfa7819738f765069a31117e7483e8ea612c55a33bd45a4d477a9160005b818110610c8f57509185917fc9c7c3fe08b88b4df9d4d47ef47d2c43d55c025a0ba88ca442580ed9e7348a169660019410610c58575b5050811b017f2569078dfb4b0305704d3008e7403993ae9601b85f7ae5e742de3de8f8011c4955610b6a565b8501517fffffffffffffffffffffffffffffffffffffffffffffffffffffffffffffffff60f88460031b161c191690553880610c2c565b91926020600181928689015181550194019201610bf6565b346101e65760206003193601126101e657602073ffffffffffffffffffffffffffffffffffffffff610cda60043561245c565b16604051908152f35b346101e65760206003193601126101e657600435610d0081610588565b73ffffffffffffffffffffffffffffffffffffffff811615610d7a5767ffffffffffffffff610d7060209273ffffffffffffffffffffffffffffffffffffffff166000527f2569078dfb4b0305704d3008e7403993ae9601b85f7ae5e742de3de8f8011c45602052604060002090565b5416604051908152f35b7f8f4eb6040000000000000000000000000000000000000000000000000000000060005260046000fd5b346101e65760406003193601126101e657602060ff610e1b602435600435610dcb82610588565b6000527f02dd7bc7dec4dceedda775e58dd541e08a116c6c53815c0bd028192f7b626800845260406000209073ffffffffffffffffffffffffffffffffffffffff16600052602052604060002090565b54166040519015158152f35b346101e65760006003193601126101e65760405160007f2569078dfb4b0305704d3008e7403993ae9601b85f7ae5e742de3de8f8011c4354610e688161163d565b80845290600181169081156104ad5750600114610e8f57610283836104238185038261098b565b7f2569078dfb4b0305704d3008e7403993ae9601b85f7ae5e742de3de8f8011c4360009081527f617167b76dcc8247761fd21f427ad8ec3be6b3be203aed34e3aac08b4d31817c939250905b808210610ef357509091508101602001610423610413565b919260018160209254838588010152019101909291610edb565b346101e65760006003193601126101e657602060405160008152f35b346101e65760406003193601126101e657600435610f4681610588565b602435908115158092036101e65780610fb773ffffffffffffffffffffffffffffffffffffffff926106e93373ffffffffffffffffffffffffffffffffffffffff166000527f2569078dfb4b0305704d3008e7403993ae9601b85f7ae5e742de3de8f8011c47602052604060002090565b7fffffffffffffffffffffffffffffffffffffffffffffffffffffffffffffff0081541660ff851617905560405192835216907f17307eab39ab6107e8899845ad3d59bd9653f200f220920489ca2b5937696c3160203392a3005b60806003193601126101e65760043561102a81610588565b6024359061103782610588565b6044356064359267ffffffffffffffff84116101e657366023850112156101e65761106f6107dd943690602481600401359101610a0b565b92611b74565b346101e65760406003193601126101e65760043561109281610588565b60243561109d6125c1565b7f2569078dfb4b0305704d3008e7403993ae9601b85f7ae5e742de3de8f8011c40549181156111f05773ffffffffffffffffffffffffffffffffffffffff908082164260a01b6001851460e11b171761111f856000527f2569078dfb4b0305704d3008e7403993ae9601b85f7ae5e742de3de8f8011c44602052604060002090565b556111698173ffffffffffffffffffffffffffffffffffffffff166000527f2569078dfb4b0305704d3008e7403993ae9601b85f7ae5e742de3de8f8011c45602052604060002090565b6801000000000000000184028154019055169081156111eb57820160015b156111bb575b60008383827fddf252ad1be2c89b69c2b068fc378daa952ba7f163c4a11628f55a4df523b3ef8180a4611187565b916001019180830361118d577f2569078dfb4b0305704d3008e7403993ae9601b85f7ae5e742de3de8f8011c4055005b612432565b612408565b346101e65760206003193601126101e65760043561121281610588565b7fee151c8401928dc223602bb187aff91b9a56c7cae5476ef1b3287b085a16c85f5460ff8160081c1660001461144357303b155b156113bf5761126c906112619060081c60ff161590565b1590565b91826112dd57611bd0565b61127257005b6107dd7fffffffffffffffffffffffffffffffffffffffffffffffffffffffffffff00ff7fee151c8401928dc223602bb187aff91b9a56c7cae5476ef1b3287b085a16c85f54167fee151c8401928dc223602bb187aff91b9a56c7cae5476ef1b3287b085a16c85f55565b61134c6101007fffffffffffffffffffffffffffffffffffffffffffffffffffffffffffff00ff7fee151c8401928dc223602bb187aff91b9a56c7cae5476ef1b3287b085a16c85f5416177fee151c8401928dc223602bb187aff91b9a56c7cae5476ef1b3287b085a16c85f55565b6113ba60017fffffffffffffffffffffffffffffffffffffffffffffffffffffffffffffff007fee151c8401928dc223602bb187aff91b9a56c7cae5476ef1b3287b085a16c85f5416177fee151c8401928dc223602bb187aff91b9a56c7cae5476ef1b3287b085a16c85f55565b611bd0565b60846040517f08c379a000000000000000000000000000000000000000000000000000000000815260206004820152603760248201527f455243373231415f5f496e697469616c697a61626c653a20636f6e747261637460448201527f20697320616c726561647920696e697469616c697a65640000000000000000006064820152fd5b60ff811615611246565b346101e65760206003193601126101e65761028361146c6004356120f0565b604051918291602083526020830190610363565b9060206003198301126101e65760043567ffffffffffffffff81116101e657826023820112156101e65780600401359267ffffffffffffffff84116101e65760248460051b830101116101e6576024019190565b346101e6576114e236611480565b6114ea6125c1565b60005b8181106114f657005b806115188161150860019486886121de565b3561151281610588565b33611865565b016114ed565b346101e65760406003193601126101e6576107dd60243560043561154182610588565b61157b6108bd826000527f02dd7bc7dec4dceedda775e58dd541e08a116c6c53815c0bd028192f7b62680060205260016040600020015490565b612a38565b346101e65761158e36611480565b906115976125c1565b60005b8281106115a357005b806115be6115b460019386866121de565b3561085b81610588565b0161159a565b346101e65760406003193601126101e657602060ff610e1b6004356115e881610588565b6106e9602435916115f883610588565b73ffffffffffffffffffffffffffffffffffffffff166000527f2569078dfb4b0305704d3008e7403993ae9601b85f7ae5e742de3de8f8011c47602052604060002090565b90600182811c92168015611686575b602083101461165757565b7f4e487b7100000000000000000000000000000000000000000000000000000000600052602260045260246000fd5b91607f169161164c565b604051906000827f2569078dfb4b0305704d3008e7403993ae9601b85f7ae5e742de3de8f8011c4954916116c38361163d565b808352926001811690811561176857506001146116e9575b6116e79250038361098b565b565b507f2569078dfb4b0305704d3008e7403993ae9601b85f7ae5e742de3de8f8011c49600090815290917f52ec6bedc82acfa7819738f765069a31117e7483e8ea612c55a33bd45a4d477a5b81831061174c5750509060206116e7928201016116db565b6020919350806001915483858901015201910190918492611734565b602092506116e79491507fffffffffffffffffffffffffffffffffffffffffffffffffffffffffffffff001682840152151560051b8201016116db565b90604051918260008254926117b98461163d565b808452936001811690811561182557506001146117de575b506116e79250038361098b565b90506000929192526020600020906000915b8183106118095750509060206116e792820101386117d1565b60209193508060019154838589010152019101909184926117f0565b602093506116e79592507fffffffffffffffffffffffffffffffffffffffffffffffffffffffffffffff0091501682840152151560051b820101386117d1565b91909173ffffffffffffffffffffffffffffffffffffffff6118868361245c565b9116928373ffffffffffffffffffffffffffffffffffffffff831603611b6f5760008381527f2569078dfb4b0305704d3008e7403993ae9601b85f7ae5e742de3de8f8011c4660205260409020805492906118fd73ffffffffffffffffffffffffffffffffffffffff871633908114908614171590565b611b58575b73ffffffffffffffffffffffffffffffffffffffff93611b4e575b506119678573ffffffffffffffffffffffffffffffffffffffff166000527f2569078dfb4b0305704d3008e7403993ae9601b85f7ae5e742de3de8f8011c45602052604060002090565b80547fffffffffffffffffffffffffffffffffffffffffffffffffffffffffffffffff0190556119d68273ffffffffffffffffffffffffffffffffffffffff166000527f2569078dfb4b0305704d3008e7403993ae9601b85f7ae5e742de3de8f8011c45602052604060002090565b8054600101905573ffffffffffffffffffffffffffffffffffffffff82164260a01b177c020000000000000000000000000000000000000000000000000000000017611a4b856000527f2569078dfb4b0305704d3008e7403993ae9601b85f7ae5e742de3de8f8011c44602052604060002090565b557c0200000000000000000000000000000000000000000000000000000000811615611aa7575b501680927fddf252ad1be2c89b69c2b068fc378daa952ba7f163c4a11628f55a4df523b3ef600080a415611aa257565b6123b4565b60018401611ade816000527f2569078dfb4b0305704d3008e7403993ae9601b85f7ae5e742de3de8f8011c44602052604060002090565b5415611aeb575b50611a72565b7f2569078dfb4b0305704d3008e7403993ae9601b85f7ae5e742de3de8f8011c40548114611ae557611b46906000527f2569078dfb4b0305704d3008e7403993ae9601b85f7ae5e742de3de8f8011c44602052604060002090565b553880611ae5565b600090553861191d565b611b6561125d338861221d565b156119025761238a565b612360565b929190611b82828286611865565b803b611b8f575b50505050565b611b9893612f02565b15611ba65738808080611b89565b7fd1a57ed60000000000000000000000000000000000000000000000000000000060005260046000fd5b7ff0c57e16840df040f15088dc2f81fe391c3923bec73e23a9662efc9c229c6a00549067ffffffffffffffff611c16604084901c60ff16159367ffffffffffffffff1690565b1680159081611e0b575b6001149081611e01575b159081611df8575b50611dce57611cb39082611caa60017fffffffffffffffffffffffffffffffffffffffffffffffff00000000000000007ff0c57e16840df040f15088dc2f81fe391c3923bec73e23a9662efc9c229c6a005416177ff0c57e16840df040f15088dc2f81fe391c3923bec73e23a9662efc9c229c6a0055565b611d5357611e13565b611cb957565b611d247fffffffffffffffffffffffffffffffffffffffffffffff00ffffffffffffffff7ff0c57e16840df040f15088dc2f81fe391c3923bec73e23a9662efc9c229c6a0054167ff0c57e16840df040f15088dc2f81fe391c3923bec73e23a9662efc9c229c6a0055565b604051600181527fc7f505b2f371ae2175ee4913f4499e1f2633a7b5936321eed1cdaeb6115181d290602090a1565b611dc9680100000000000000007fffffffffffffffffffffffffffffffffffffffffffffff00ffffffffffffffff7ff0c57e16840df040f15088dc2f81fe391c3923bec73e23a9662efc9c229c6a005416177ff0c57e16840df040f15088dc2f81fe391c3923bec73e23a9662efc9c229c6a0055565b611e13565b7ff92ee8a90000000000000000000000000000000000000000000000000000000060005260046000fd5b90501538611c32565b303b159150611c2a565b839150611c20565b9060405191611e2360608461098b565b602483527f426c6f636b636861696e20496e20556e696c616720436f6e666572656e63652060208401527f32303234000000000000000000000000000000000000000000000000000000006040840152604051611e8160408261098b565b600881527f42495543323032340000000000000000000000000000000000000000000000006020820152611ee460ff7fee151c8401928dc223602bb187aff91b9a56c7cae5476ef1b3287b085a16c85f5460081c16611edf81613000565b613000565b835167ffffffffffffffff81116109cc57611f2881611f237f2569078dfb4b0305704d3008e7403993ae9601b85f7ae5e742de3de8f8011c425461163d565b612bc8565b6020601f8211600114611fe95781611fa59392611f7e92611fdb9798600092611fde575b50507fffffffffffffffffffffffffffffffffffffffffffffffffffffffffffffffff8260011b9260031b1c19161790565b7f2569078dfb4b0305704d3008e7403993ae9601b85f7ae5e742de3de8f8011c4255612c8c565b611fce60007f2569078dfb4b0305704d3008e7403993ae9601b85f7ae5e742de3de8f8011c4055565b611fd661308b565b612827565b50565b015190503880611f4c565b7f2569078dfb4b0305704d3008e7403993ae9601b85f7ae5e742de3de8f8011c426000527fffffffffffffffffffffffffffffffffffffffffffffffffffffffffffffffe08216957f933ecf8acb7824b680a8d16f3ff3db8864228d986aa4c2ebab1eeb2703b4beb39660005b8181106120d85750966001928492611fa59695611fdb999a106120a1575b505050811b017f2569078dfb4b0305704d3008e7403993ae9601b85f7ae5e742de3de8f8011c4255612c8c565b01517fffffffffffffffffffffffffffffffffffffffffffffffffffffffffffffffff60f88460031b161c19169055388080612074565b83830151895560019098019760209384019301612056565b6120f981612271565b156121b4576000527f2569078dfb4b0305704d3008e7403993ae9601b85f7ae5e742de3de8f8011c4a60205261213260406000206117a5565b61213a611690565b9081519081156121ae57805161214f57505090565b91602082936103b79361216c604051968795858088019101610340565b830161218082518093858085019101610340565b0101037fffffffffffffffffffffffffffffffffffffffffffffffffffffffffffffffe0810183528261098b565b91505090565b7fa14c4b500000000000000000000000000000000000000000000000000000000060005260046000fd5b91908110156121ee5760051b0190565b7f4e487b7100000000000000000000000000000000000000000000000000000000600052603260045260246000fd5b60ff916106e961226c9273ffffffffffffffffffffffffffffffffffffffff166000527f2569078dfb4b0305704d3008e7403993ae9601b85f7ae5e742de3de8f8011c47602052604060002090565b541690565b906000917f2569078dfb4b0305704d3008e7403993ae9601b85f7ae5e742de3de8f8011c405481106122a05750565b9091505b6122d7816000527f2569078dfb4b0305704d3008e7403993ae9601b85f7ae5e742de3de8f8011c44602052604060002090565b548061233b57506000811561230e57507fffffffffffffffffffffffffffffffffffffffffffffffffffffffffffffffff016122a4565b807f4e487b7100000000000000000000000000000000000000000000000000000000602492526011600452fd5b7c01000000000000000000000000000000000000000000000000000000009150161590565b7fa11481000000000000000000000000000000000000000000000000000000000060005260046000fd5b7f59c896be0000000000000000000000000000000000000000000000000000000060005260046000fd5b7fea553b340000000000000000000000000000000000000000000000000000000060005260046000fd5b7fdf2d9b420000000000000000000000000000000000000000000000000000000060005260046000fd5b7fb562e8dd0000000000000000000000000000000000000000000000000000000060005260046000fd5b7f2e0763000000000000000000000000000000000000000000000000000000000060005260046000fd5b61248f816000527f2569078dfb4b0305704d3008e7403993ae9601b85f7ae5e742de3de8f8011c44602052604060002090565b549081156124bf57507c010000000000000000000000000000000000000000000000000000000081166123de5790565b90507f2569078dfb4b0305704d3008e7403993ae9601b85f7ae5e742de3de8f8011c40548110156123de577fffffffffffffffffffffffffffffffffffffffffffffffffffffffffffffffff905b01612541816000527f2569078dfb4b0305704d3008e7403993ae9601b85f7ae5e742de3de8f8011c44602052604060002090565b5490811561259957507c01000000000000000000000000000000000000000000000000000000008116156103b7577fdf2d9b420000000000000000000000000000000000000000000000000000000060005260046000fd5b7fffffffffffffffffffffffffffffffffffffffffffffffffffffffffffffffff915061250d565b3360009081527fb7db2dd08fcb62d0c9e08c51941cae53c267786a0b75803fb7960902fc8ef97d602052604090205460ff16156125fa57565b7fe2517d3f0000000000000000000000000000000000000000000000000000000060005233600452600060245260446000fd5b806000527f02dd7bc7dec4dceedda775e58dd541e08a116c6c53815c0bd028192f7b62680060205260ff6126853360406000209073ffffffffffffffffffffffffffffffffffffffff16600052602052604060002090565b54161561268f5750565b7fe2517d3f000000000000000000000000000000000000000000000000000000006000523360045260245260446000fd5b73ffffffffffffffffffffffffffffffffffffffff7f2569078dfb4b0305704d3008e7403993ae9601b85f7ae5e742de3de8f8011c4054917c02000000000000000000000000000000000000000000000000000000004260a01b1782821617612752846000527f2569078dfb4b0305704d3008e7403993ae9601b85f7ae5e742de3de8f8011c44602052604060002090565b5561279c8173ffffffffffffffffffffffffffffffffffffffff166000527f2569078dfb4b0305704d3008e7403993ae9601b85f7ae5e742de3de8f8011c45602052604060002090565b680100000000000000018154019055169081156124325760018101909260015b156127f0575b60008484827fddf252ad1be2c89b69c2b068fc378daa952ba7f163c4a11628f55a4df523b3ef8180a46127bc565b92600101928184036127c25792506116e791507f2569078dfb4b0305704d3008e7403993ae9601b85f7ae5e742de3de8f8011c4055565b73ffffffffffffffffffffffffffffffffffffffff811660009081527fb7db2dd08fcb62d0c9e08c51941cae53c267786a0b75803fb7960902fc8ef97d602052604090205460ff1661290b5773ffffffffffffffffffffffffffffffffffffffff1660008181527fb7db2dd08fcb62d0c9e08c51941cae53c267786a0b75803fb7960902fc8ef97d6020526040812080547fffffffffffffffffffffffffffffffffffffffffffffffffffffffffffffff001660011790553391907f2f8788117e7eff1d82e926ec794901d17c78024a50270940304540a733656f0d8180a4600190565b50600090565b806000527f02dd7bc7dec4dceedda775e58dd541e08a116c6c53815c0bd028192f7b62680060205260ff6129698360406000209073ffffffffffffffffffffffffffffffffffffffff16600052602052604060002090565b5416612a3157806000527f02dd7bc7dec4dceedda775e58dd541e08a116c6c53815c0bd028192f7b6268006020526129c58260406000209073ffffffffffffffffffffffffffffffffffffffff16600052602052604060002090565b60017fffffffffffffffffffffffffffffffffffffffffffffffffffffffffffffff0082541617905573ffffffffffffffffffffffffffffffffffffffff339216907f2f8788117e7eff1d82e926ec794901d17c78024a50270940304540a733656f0d600080a4600190565b5050600090565b806000527f02dd7bc7dec4dceedda775e58dd541e08a116c6c53815c0bd028192f7b62680060205260ff612a908360406000209073ffffffffffffffffffffffffffffffffffffffff16600052602052604060002090565b541615612a3157806000527f02dd7bc7dec4dceedda775e58dd541e08a116c6c53815c0bd028192f7b626800602052612aed8260406000209073ffffffffffffffffffffffffffffffffffffffff16600052602052604060002090565b7fffffffffffffffffffffffffffffffffffffffffffffffffffffffffffffff00815416905573ffffffffffffffffffffffffffffffffffffffff339216907ff6391f5c32d9c69d2a47ea670b442974b53935d1edc7fd64eb21e047a839171b600080a4600190565b601f8111612b62575050565b7f2569078dfb4b0305704d3008e7403993ae9601b85f7ae5e742de3de8f8011c496000526020600020906020601f840160051c83019310612bbe575b601f0160051c01905b818110612bb2575050565b60008155600101612ba7565b9091508190612b9e565b601f8111612bd4575050565b7f2569078dfb4b0305704d3008e7403993ae9601b85f7ae5e742de3de8f8011c426000526020600020906020601f840160051c83019310612c30575b601f0160051c01905b818110612c24575050565b60008155600101612c19565b9091508190612c10565b601f8211612c4757505050565b6000526020600020906020601f840160051c83019310612c82575b601f0160051c01905b818110612c76575050565b60008155600101612c6b565b9091508190612c62565b90815167ffffffffffffffff81116109cc57612cf281612ccc7f2569078dfb4b0305704d3008e7403993ae9601b85f7ae5e742de3de8f8011c435461163d565b7f2569078dfb4b0305704d3008e7403993ae9601b85f7ae5e742de3de8f8011c43612c3a565b602092601f8211600114612d6457612d4092938291600092611fde5750507fffffffffffffffffffffffffffffffffffffffffffffffffffffffffffffffff8260011b9260031b1c19161790565b7f2569078dfb4b0305704d3008e7403993ae9601b85f7ae5e742de3de8f8011c4355565b7f2569078dfb4b0305704d3008e7403993ae9601b85f7ae5e742de3de8f8011c436000527fffffffffffffffffffffffffffffffffffffffffffffffffffffffffffffffe08216937f617167b76dcc8247761fd21f427ad8ec3be6b3be203aed34e3aac08b4d31817c9160005b868110612e455750836001959610612e0e575b505050811b017f2569078dfb4b0305704d3008e7403993ae9601b85f7ae5e742de3de8f8011c4355565b01517fffffffffffffffffffffffffffffffffffffffffffffffffffffffffffffffff60f88460031b161c19169055388080612de4565b91926020600181928685015181550194019201612dd1565b9091612e746103b793604084526040840190610363565b916020818403910152610363565b908160209103126101e657516103b7816101bc565b909273ffffffffffffffffffffffffffffffffffffffff608093816103b7979616845216602083015260408201528160608201520190610363565b3d15612efd573d90612ee3826109d1565b91612ef1604051938461098b565b82523d6000602084013e565b606090565b90602092600073ffffffffffffffffffffffffffffffffffffffff612f599694604051978896879586937f150b7a020000000000000000000000000000000000000000000000000000000085523360048601612e97565b0393165af160009181612fcf575b50612f8857612f74612ed2565b805115612f8357805190602001fd5b611ba6565b7fffffffff00000000000000000000000000000000000000000000000000000000167f150b7a02000000000000000000000000000000000000000000000000000000001490565b612ff291925060203d602011612ff9575b612fea818361098b565b810190612e82565b9038612f67565b503d612fe0565b1561300757565b60846040517f08c379a000000000000000000000000000000000000000000000000000000000815260206004820152603460248201527f455243373231415f5f496e697469616c697a61626c653a20636f6e747261637460448201527f206973206e6f7420696e697469616c697a696e670000000000000000000000006064820152fd5b60ff7ff0c57e16840df040f15088dc2f81fe391c3923bec73e23a9662efc9c229c6a005460401c16156130ba57565b7fd7e6bcf80000000000000000000000000000000000000000000000000000000060005260046000fdfea2646970667358221220a4eebacf19059a276b2e27e86944bc1d9c7589ee04fb6cd419cce437a043fb6264736f6c634300081a0033",
        "nonce": "0x31",
        "chainId": "0x46f"
      },
      "additionalContracts": [],
      "isFixedGasLimit": false
    },
    {
      "hash": "0x2de277d73f63d58f13ca6b3106647b9ada5cb1db52d9a1551e0c07507dfc84d4",
      "transactionType": "CALL",
      "contractName": null,
      "contractAddress": "0xe639110d69ec5b5c4eca926271fa2f82ee94a2d3",
      "function": "diamondCut((address,uint8,bytes4[])[],address,bytes)",
      "arguments": [
        "[(0x6c93025be7Ef1a258B121786D19691Ae55992F01, 0, [0x26e395eb, 0xf3839ad4, 0x9df05287, 0x6fd261de])]",
        "0x0000000000000000000000000000000000000000",
        "0x"
      ],
      "transaction": {
        "from": "0x7d413f244a0e9a0b9c8d7f9afa1177ee3a2837fa",
        "to": "0xe639110d69ec5b5c4eca926271fa2f82ee94a2d3",
        "gas": "0x4dabb",
        "value": "0x0",
        "input": "0x1f931c1c0000000000000000000000000000000000000000000000000000000000000060000000000000000000000000000000000000000000000000000000000000000000000000000000000000000000000000000000000000000000000000000001a0000000000000000000000000000000000000000000000000000000000000000100000000000000000000000000000000000000000000000000000000000000200000000000000000000000006c93025be7ef1a258b121786d19691ae55992f0100000000000000000000000000000000000000000000000000000000000000000000000000000000000000000000000000000000000000000000000000000060000000000000000000000000000000000000000000000000000000000000000426e395eb00000000000000000000000000000000000000000000000000000000f3839ad4000000000000000000000000000000000000000000000000000000009df05287000000000000000000000000000000000000000000000000000000006fd261de000000000000000000000000000000000000000000000000000000000000000000000000000000000000000000000000000000000000000000000000",
        "nonce": "0x32",
        "chainId": "0x46f"
      },
      "additionalContracts": [],
      "isFixedGasLimit": false
    },
    {
      "hash": "0x2aadc6f80b56e0a276d0681568b8374920c32c26b4b6616b86199abcdaec1f87",
      "transactionType": "CALL",
      "contractName": "BIUC2024",
      "contractAddress": "0x1917fcb17298789d8caab3ee172561aeceb60e03",
      "function": "initialize(address)",
      "arguments": [
        "0x7D413F244A0e9A0b9C8D7F9AFA1177eE3a2837fa"
      ],
      "transaction": {
        "from": "0x7d413f244a0e9a0b9c8d7f9afa1177ee3a2837fa",
        "to": "0x1917fcb17298789d8caab3ee172561aeceb60e03",
        "gas": "0x3e7cd",
        "value": "0x0",
        "input": "0xc4d66de80000000000000000000000007d413f244a0e9a0b9c8d7f9afa1177ee3a2837fa",
        "nonce": "0x33",
        "chainId": "0x46f"
      },
      "additionalContracts": [],
      "isFixedGasLimit": false
    },
    {
      "hash": "0xc303324e65e960b04dd04c0141f0ba8752e4c7274f6e1f356b5bdf9b4466648c",
      "transactionType": "CALL",
      "contractName": "BIUC2024",
      "contractAddress": "0x1917fcb17298789d8caab3ee172561aeceb60e03",
      "function": "setBaseURI(string)",
      "arguments": [
        "ipfs://Qmd6bfQX58SJYJEAmS8R8AFKd7SbP9Gpr95932ZA9uAt6e"
      ],
      "transaction": {
        "from": "0x7d413f244a0e9a0b9c8d7f9afa1177ee3a2837fa",
        "to": "0x1917fcb17298789d8caab3ee172561aeceb60e03",
        "gas": "0x20277",
        "value": "0x0",
        "input": "0x55f804b300000000000000000000000000000000000000000000000000000000000000200000000000000000000000000000000000000000000000000000000000000035697066733a2f2f516d6436626651583538534a594a45416d5338523841464b64375362503947707239353933325a413975417436650000000000000000000000",
        "nonce": "0x34",
        "chainId": "0x46f"
      },
      "additionalContracts": [],
      "isFixedGasLimit": false
    },
    {
      "hash": "0xb75c69bf4c9f2d63f256ce4debb40b1291f63d8a4531972c4b13c657c92518a0",
      "transactionType": "CALL",
      "contractName": "BIUC2024",
      "contractAddress": "0x1917fcb17298789d8caab3ee172561aeceb60e03",
      "function": "grantRole(bytes32,address)",
      "arguments": [
        "0x0000000000000000000000000000000000000000000000000000000000000000",
        "0xe639110D69ec5b5C4ECa926271fa2f82Ee94A2D3"
      ],
      "transaction": {
        "from": "0x7d413f244a0e9a0b9c8d7f9afa1177ee3a2837fa",
        "to": "0x1917fcb17298789d8caab3ee172561aeceb60e03",
        "gas": "0x11296",
        "value": "0x0",
        "input": "0x2f2ff15d0000000000000000000000000000000000000000000000000000000000000000000000000000000000000000e639110d69ec5b5c4eca926271fa2f82ee94a2d3",
        "nonce": "0x35",
        "chainId": "0x46f"
      },
      "additionalContracts": [],
      "isFixedGasLimit": false
    },
    {
      "hash": "0x5410a98a7d9621b11e8ce4ab11fa1524b088ccc608af7bf7d3f1fd31174ee9a5",
      "transactionType": "CALL",
      "contractName": "BIUC2024",
      "contractAddress": "0x1917fcb17298789d8caab3ee172561aeceb60e03",
      "function": "grantRole(bytes32,address)",
      "arguments": [
        "0x0000000000000000000000000000000000000000000000000000000000000000",
        "0xc408235a9A01767d70B41C98d92F2dC7B0d959f4"
      ],
      "transaction": {
        "from": "0x7d413f244a0e9a0b9c8d7f9afa1177ee3a2837fa",
        "to": "0x1917fcb17298789d8caab3ee172561aeceb60e03",
        "gas": "0x11296",
        "value": "0x0",
        "input": "0x2f2ff15d0000000000000000000000000000000000000000000000000000000000000000000000000000000000000000c408235a9a01767d70b41c98d92f2dc7b0d959f4",
        "nonce": "0x36",
        "chainId": "0x46f"
      },
      "additionalContracts": [],
      "isFixedGasLimit": false
    },
    {
      "hash": "0x288eaf4b275750ad0913c3b46a4c1a2578780f96bd924071e6359c0988197c4b",
      "transactionType": "CALL",
      "contractName": "BIUC2024",
      "contractAddress": "0x1917fcb17298789d8caab3ee172561aeceb60e03",
      "function": "grantRole(bytes32,address)",
      "arguments": [
        "0x0000000000000000000000000000000000000000000000000000000000000000",
        "0x7D413F244A0e9A0b9C8D7F9AFA1177eE3a2837fa"
      ],
      "transaction": {
        "from": "0x7d413f244a0e9a0b9c8d7f9afa1177ee3a2837fa",
        "to": "0x1917fcb17298789d8caab3ee172561aeceb60e03",
        "gas": "0x98b3",
        "value": "0x0",
        "input": "0x2f2ff15d00000000000000000000000000000000000000000000000000000000000000000000000000000000000000007d413f244a0e9a0b9c8d7f9afa1177ee3a2837fa",
        "nonce": "0x37",
        "chainId": "0x46f"
      },
      "additionalContracts": [],
      "isFixedGasLimit": false
    },
    {
      "hash": "0xe0605078058ba596e6d7f7b5663dcdfeeed84b8a548ce9b0bc43c590d4481d1a",
      "transactionType": "CALL",
      "contractName": null,
      "contractAddress": "0xe639110d69ec5b5c4eca926271fa2f82ee94a2d3",
      "function": "grantRole(bytes32,address)",
      "arguments": [
        "0x09bbebe62c1bb2a40021d9ad68c463da0ceccd5f8653d0d1f56090833d3e5677",
        "0xc408235a9A01767d70B41C98d92F2dC7B0d959f4"
      ],
      "transaction": {
        "from": "0x7d413f244a0e9a0b9c8d7f9afa1177ee3a2837fa",
        "to": "0xe639110d69ec5b5c4eca926271fa2f82ee94a2d3",
        "gas": "0x12e71",
        "value": "0x0",
        "input": "0x2f2ff15d09bbebe62c1bb2a40021d9ad68c463da0ceccd5f8653d0d1f56090833d3e5677000000000000000000000000c408235a9a01767d70b41c98d92f2dc7b0d959f4",
        "nonce": "0x38",
        "chainId": "0x46f"
      },
      "additionalContracts": [],
      "isFixedGasLimit": false
    },
    {
      "hash": "0xcf748cf0856b776ccbf02f862ee0c9c688d4d0a3e7a35369a2ff6217cd3509ef",
      "transactionType": "CALL",
      "contractName": null,
      "contractAddress": "0xe639110d69ec5b5c4eca926271fa2f82ee94a2d3",
      "function": "grantRole(bytes32,address)",
      "arguments": [
        "0x09bbebe62c1bb2a40021d9ad68c463da0ceccd5f8653d0d1f56090833d3e5677",
        "0x7D413F244A0e9A0b9C8D7F9AFA1177eE3a2837fa"
      ],
      "transaction": {
        "from": "0x7d413f244a0e9a0b9c8d7f9afa1177ee3a2837fa",
        "to": "0xe639110d69ec5b5c4eca926271fa2f82ee94a2d3",
        "gas": "0x12e71",
        "value": "0x0",
        "input": "0x2f2ff15d09bbebe62c1bb2a40021d9ad68c463da0ceccd5f8653d0d1f56090833d3e56770000000000000000000000007d413f244a0e9a0b9c8d7f9afa1177ee3a2837fa",
        "nonce": "0x39",
        "chainId": "0x46f"
      },
      "additionalContracts": [],
      "isFixedGasLimit": false
    },
    {
      "hash": "0xb430d7036b577fd8c4f53ffd373054eb48916b3d015eee4d21de8e5f239b59df",
      "transactionType": "CALL",
      "contractName": null,
      "contractAddress": "0xe639110d69ec5b5c4eca926271fa2f82ee94a2d3",
      "function": "setBIUC2024NFT(address)",
      "arguments": [
        "0x1917FCb17298789D8CaAB3eE172561AEcEB60e03"
      ],
      "transaction": {
        "from": "0x7d413f244a0e9a0b9c8d7f9afa1177ee3a2837fa",
        "to": "0xe639110d69ec5b5c4eca926271fa2f82ee94a2d3",
        "gas": "0x1124c",
        "value": "0x0",
        "input": "0x26e395eb0000000000000000000000001917fcb17298789d8caab3ee172561aeceb60e03",
        "nonce": "0x3a",
        "chainId": "0x46f"
      },
      "additionalContracts": [],
      "isFixedGasLimit": false
    }
  ],
  "receipts": [
    {
      "status": "0x1",
      "cumulativeGasUsed": "0x75e5d",
      "logs": [],
      "logsBloom": "0x00000000000000000000000000000000000000000000000000000000000000000000000000000000000000000000000000000000000000000000000000000000000000000000000000000000000000000000000000000000000000000000000000000000000000000000000000000000000000000000000000000000000000000000000000000000000000000000000000000000000000000000000000000000000000000000000000000000000000000000000000000000000000000000000000000000000000000000000000000000000000000000000000000000000000000000000000000000000000000000000000000000000000000000000000000000",
      "type": "0x2",
      "transactionHash": "0x000f7b0d6a489fe490e0e2f3118559de16330661711dca9328774479ebcd5cbf",
      "transactionIndex": "0x1",
      "blockHash": "0x122e4ce65c1a46c4601b388a10206dd8333096e77ec0af0d65aa139be1f52890",
      "blockNumber": "0x80c1b2",
      "gasUsed": "0x6b306",
      "effectiveGasPrice": "0x407",
      "from": "0x7d413f244a0e9a0b9c8d7f9afa1177ee3a2837fa",
      "to": null,
      "contractAddress": "0x6c93025be7ef1a258b121786d19691ae55992f01",
      "l1BaseFeeScalar": "0x60a4",
      "l1BlobBaseFee": "0xdf54",
      "l1BlobBaseFeeScalar": "0xc3a30",
      "l1Fee": "0x87b9bb84bdb",
      "l1GasPrice": "0x5b7a557d9",
      "l1GasUsed": "0x3bf8"
    },
    {
      "status": "0x1",
      "cumulativeGasUsed": "0x31672f",
      "logs": [],
      "logsBloom": "0x00000000000000000000000000000000000000000000000000000000000000000000000000000000000000000000000000000000000000000000000000000000000000000000000000000000000000000000000000000000000000000000000000000000000000000000000000000000000000000000000000000000000000000000000000000000000000000000000000000000000000000000000000000000000000000000000000000000000000000000000000000000000000000000000000000000000000000000000000000000000000000000000000000000000000000000000000000000000000000000000000000000000000000000000000000000",
      "type": "0x2",
      "transactionHash": "0xc1e628a45a20853bb13cbf89b9a5f0456b2f5eb49b4da345dd9923696efb204c",
      "transactionIndex": "0x2",
      "blockHash": "0x122e4ce65c1a46c4601b388a10206dd8333096e77ec0af0d65aa139be1f52890",
      "blockNumber": "0x80c1b2",
      "gasUsed": "0x2a08d2",
      "effectiveGasPrice": "0x407",
      "from": "0x7d413f244a0e9a0b9c8d7f9afa1177ee3a2837fa",
      "to": null,
      "contractAddress": "0x1917fcb17298789d8caab3ee172561aeceb60e03",
      "l1BaseFeeScalar": "0x60a4",
      "l1BlobBaseFee": "0xdf54",
      "l1BlobBaseFeeScalar": "0xc3a30",
      "l1Fee": "0x2a9e5cc2aa19",
      "l1GasPrice": "0x5b7a557d9",
      "l1GasUsed": "0x12d4d"
    },
    {
      "status": "0x1",
      "cumulativeGasUsed": "0x34eae7",
      "logs": [
        {
          "address": "0xe639110d69ec5b5c4eca926271fa2f82ee94a2d3",
          "topics": [
            "0x8faa70878671ccd212d20771b795c50af8fd3ff6cf27f4bde57e5d4de0aeb673"
          ],
          "data": "0x0000000000000000000000000000000000000000000000000000000000000060000000000000000000000000000000000000000000000000000000000000000000000000000000000000000000000000000000000000000000000000000001a0000000000000000000000000000000000000000000000000000000000000000100000000000000000000000000000000000000000000000000000000000000200000000000000000000000006c93025be7ef1a258b121786d19691ae55992f0100000000000000000000000000000000000000000000000000000000000000000000000000000000000000000000000000000000000000000000000000000060000000000000000000000000000000000000000000000000000000000000000426e395eb00000000000000000000000000000000000000000000000000000000f3839ad4000000000000000000000000000000000000000000000000000000009df05287000000000000000000000000000000000000000000000000000000006fd261de000000000000000000000000000000000000000000000000000000000000000000000000000000000000000000000000000000000000000000000000",
          "blockHash": "0x122e4ce65c1a46c4601b388a10206dd8333096e77ec0af0d65aa139be1f52890",
          "blockNumber": "0x80c1b2",
          "transactionHash": "0x2de277d73f63d58f13ca6b3106647b9ada5cb1db52d9a1551e0c07507dfc84d4",
          "transactionIndex": "0x3",
          "logIndex": "0x0",
          "removed": false
        }
      ],
      "logsBloom": "0x00000000000000000000000000000000000000000000000000000000000000000000000000000000000000000000000000000000000000000000000000000000000000000000000000000000000000000000000001000000000800000000000000000000000000000000000000000000000000000000000000000000000000000020000000000000010000000000000000000000000000000000000000000000000000000000000000000000000000000000000000000000000000000000000000000000000000000100000000000000000000000000000100000000000000000000000000000000000000000000000000000000000000000000000000000000",
      "type": "0x2",
      "transactionHash": "0x2de277d73f63d58f13ca6b3106647b9ada5cb1db52d9a1551e0c07507dfc84d4",
      "transactionIndex": "0x3",
      "blockHash": "0x122e4ce65c1a46c4601b388a10206dd8333096e77ec0af0d65aa139be1f52890",
      "blockNumber": "0x80c1b2",
      "gasUsed": "0x383b8",
      "effectiveGasPrice": "0x407",
      "from": "0x7d413f244a0e9a0b9c8d7f9afa1177ee3a2837fa",
      "to": "0xe639110d69ec5b5c4eca926271fa2f82ee94a2d3",
      "contractAddress": null,
      "l1BaseFeeScalar": "0x60a4",
      "l1BlobBaseFee": "0xdf54",
      "l1BlobBaseFeeScalar": "0xc3a30",
      "l1Fee": "0x12f132a27d8",
      "l1GasPrice": "0x5b7a557d9",
      "l1GasUsed": "0x85e"
    },
    {
      "status": "0x1",
      "cumulativeGasUsed": "0x37bebe",
      "logs": [
        {
          "address": "0x1917fcb17298789d8caab3ee172561aeceb60e03",
          "topics": [
            "0x2f8788117e7eff1d82e926ec794901d17c78024a50270940304540a733656f0d",
            "0x0000000000000000000000000000000000000000000000000000000000000000",
            "0x0000000000000000000000007d413f244a0e9a0b9c8d7f9afa1177ee3a2837fa",
            "0x0000000000000000000000007d413f244a0e9a0b9c8d7f9afa1177ee3a2837fa"
          ],
          "data": "0x",
          "blockHash": "0x122e4ce65c1a46c4601b388a10206dd8333096e77ec0af0d65aa139be1f52890",
          "blockNumber": "0x80c1b2",
          "transactionHash": "0x2aadc6f80b56e0a276d0681568b8374920c32c26b4b6616b86199abcdaec1f87",
          "transactionIndex": "0x4",
          "logIndex": "0x1",
          "removed": false
        },
        {
          "address": "0x1917fcb17298789d8caab3ee172561aeceb60e03",
          "topics": [
            "0xc7f505b2f371ae2175ee4913f4499e1f2633a7b5936321eed1cdaeb6115181d2"
          ],
          "data": "0x0000000000000000000000000000000000000000000000000000000000000001",
          "blockHash": "0x122e4ce65c1a46c4601b388a10206dd8333096e77ec0af0d65aa139be1f52890",
          "blockNumber": "0x80c1b2",
          "transactionHash": "0x2aadc6f80b56e0a276d0681568b8374920c32c26b4b6616b86199abcdaec1f87",
          "transactionIndex": "0x4",
          "logIndex": "0x2",
          "removed": false
        }
      ],
      "logsBloom": "0x00000004000000000000000000000000000000000000000020000000000000000000000000000000000000008000000000000000004000000000000000000000000000000000000000000000000000000000000000000000000000000000000000000000020000000000000000000800000000000000000000000000000000000000000000000000000800000000000000000000000080000000000000000000000000000000000800000000000000000000000000000000001000000000000000000000000000000000000000000000000000000004000100000000000020000000000000000000000000000000000000000000000000000000400100000000",
      "type": "0x2",
      "transactionHash": "0x2aadc6f80b56e0a276d0681568b8374920c32c26b4b6616b86199abcdaec1f87",
      "transactionIndex": "0x4",
      "blockHash": "0x122e4ce65c1a46c4601b388a10206dd8333096e77ec0af0d65aa139be1f52890",
      "blockNumber": "0x80c1b2",
      "gasUsed": "0x2d3d7",
      "effectiveGasPrice": "0x407",
      "from": "0x7d413f244a0e9a0b9c8d7f9afa1177ee3a2837fa",
      "to": "0x1917fcb17298789d8caab3ee172561aeceb60e03",
      "contractAddress": null,
      "l1BaseFeeScalar": "0x60a4",
      "l1BlobBaseFee": "0xdf54",
      "l1BlobBaseFeeScalar": "0xc3a30",
      "l1Fee": "0xe2513b338a",
      "l1GasPrice": "0x5b7a557d9",
      "l1GasUsed": "0x640"
    },
    {
      "status": "0x1",
      "cumulativeGasUsed": "0x393335",
      "logs": [
        {
          "address": "0x1917fcb17298789d8caab3ee172561aeceb60e03",
          "topics": [
            "0xc9c7c3fe08b88b4df9d4d47ef47d2c43d55c025a0ba88ca442580ed9e7348a16"
          ],
          "data": "0x0000000000000000000000000000000000000000000000000000000000000040000000000000000000000000000000000000000000000000000000000000006000000000000000000000000000000000000000000000000000000000000000000000000000000000000000000000000000000000000000000000000000000035697066733a2f2f516d6436626651583538534a594a45416d5338523841464b64375362503947707239353933325a413975417436650000000000000000000000",
          "blockHash": "0x122e4ce65c1a46c4601b388a10206dd8333096e77ec0af0d65aa139be1f52890",
          "blockNumber": "0x80c1b2",
          "transactionHash": "0xc303324e65e960b04dd04c0141f0ba8752e4c7274f6e1f356b5bdf9b4466648c",
          "transactionIndex": "0x5",
          "logIndex": "0x3",
          "removed": false
        }
      ],
      "logsBloom": "0x00000000000000000000000000000000000000000000000020000000000000000000000000000000000000000000000400000000004000000000000000000000000000000000000000000000000000000000000000000000000000000000000000000000000000000000000000000000000000000000000000000000000000000000000000000000000000000000000000000000000000000000000000000000000000000000000800000000000000000000000000000000000000000000000000000000000000000000000000000000000000000001000000000000000000000000000000000000400000000000000000000000000000000000000000000000",
      "type": "0x2",
      "transactionHash": "0xc303324e65e960b04dd04c0141f0ba8752e4c7274f6e1f356b5bdf9b4466648c",
      "transactionIndex": "0x5",
      "blockHash": "0x122e4ce65c1a46c4601b388a10206dd8333096e77ec0af0d65aa139be1f52890",
      "blockNumber": "0x80c1b2",
      "gasUsed": "0x17477",
      "effectiveGasPrice": "0x407",
      "from": "0x7d413f244a0e9a0b9c8d7f9afa1177ee3a2837fa",
      "to": "0x1917fcb17298789d8caab3ee172561aeceb60e03",
      "contractAddress": null,
      "l1BaseFeeScalar": "0x60a4",
      "l1BlobBaseFee": "0xdf54",
      "l1BlobBaseFeeScalar": "0xc3a30",
      "l1Fee": "0xffbf0a8b0d",
      "l1GasPrice": "0x5b7a557d9",
      "l1GasUsed": "0x710"
    },
    {
      "status": "0x1",
      "cumulativeGasUsed": "0x39fa02",
      "logs": [
        {
          "address": "0x1917fcb17298789d8caab3ee172561aeceb60e03",
          "topics": [
            "0x2f8788117e7eff1d82e926ec794901d17c78024a50270940304540a733656f0d",
            "0x0000000000000000000000000000000000000000000000000000000000000000",
            "0x000000000000000000000000e639110d69ec5b5c4eca926271fa2f82ee94a2d3",
            "0x0000000000000000000000007d413f244a0e9a0b9c8d7f9afa1177ee3a2837fa"
          ],
          "data": "0x",
          "blockHash": "0x122e4ce65c1a46c4601b388a10206dd8333096e77ec0af0d65aa139be1f52890",
          "blockNumber": "0x80c1b2",
          "transactionHash": "0xb75c69bf4c9f2d63f256ce4debb40b1291f63d8a4531972c4b13c657c92518a0",
          "transactionIndex": "0x6",
          "logIndex": "0x4",
          "removed": false
        }
      ],
      "logsBloom": "0x00000004000000000000000000000000000000000000000020000000000000000000000000000000000000008000000000000000004000000000000000000000000000000040000000000000000000000000000000000000000000000000000000000000020000000000000000400800000000000000000000000000000000000000000000000000000000000000000000000000000000000000000000000000000000000000000800000000000000000000000000000000001000000000000000000000000000000000000000000000000000000000000100000000000020000000000000000800000000000000000000000000000000000000400100000000",
      "type": "0x2",
      "transactionHash": "0xb75c69bf4c9f2d63f256ce4debb40b1291f63d8a4531972c4b13c657c92518a0",
      "transactionIndex": "0x6",
      "blockHash": "0x122e4ce65c1a46c4601b388a10206dd8333096e77ec0af0d65aa139be1f52890",
      "blockNumber": "0x80c1b2",
      "gasUsed": "0xc6cd",
      "effectiveGasPrice": "0x407",
      "from": "0x7d413f244a0e9a0b9c8d7f9afa1177ee3a2837fa",
      "to": "0x1917fcb17298789d8caab3ee172561aeceb60e03",
      "contractAddress": null,
      "l1BaseFeeScalar": "0x60a4",
      "l1BlobBaseFee": "0xdf54",
      "l1BlobBaseFeeScalar": "0xc3a30",
      "l1Fee": "0xe2513b338a",
      "l1GasPrice": "0x5b7a557d9",
      "l1GasUsed": "0x640"
    },
    {
      "status": "0x1",
      "cumulativeGasUsed": "0x3ac0cf",
      "logs": [
        {
          "address": "0x1917fcb17298789d8caab3ee172561aeceb60e03",
          "topics": [
            "0x2f8788117e7eff1d82e926ec794901d17c78024a50270940304540a733656f0d",
            "0x0000000000000000000000000000000000000000000000000000000000000000",
            "0x000000000000000000000000c408235a9a01767d70b41c98d92f2dc7b0d959f4",
            "0x0000000000000000000000007d413f244a0e9a0b9c8d7f9afa1177ee3a2837fa"
          ],
          "data": "0x",
          "blockHash": "0x122e4ce65c1a46c4601b388a10206dd8333096e77ec0af0d65aa139be1f52890",
          "blockNumber": "0x80c1b2",
          "transactionHash": "0x5410a98a7d9621b11e8ce4ab11fa1524b088ccc608af7bf7d3f1fd31174ee9a5",
          "transactionIndex": "0x7",
          "logIndex": "0x5",
          "removed": false
        }
      ],
      "logsBloom": "0x00000004000000000000000000000000000000000000000020000000000000000000000000000000000000008000000000000000004000000000000000000000000000000000000000000000000000000000000000000000000000000000000000000000020000000000000000010800000000000000000000000000000000000000000000000000000000000000000000000000000000000000000000000000000000000000000800000000000000000000000000000000001000000000000000000000000000000000000000000000000000000000000100000000000020000000000000000000000400000000000000010000000000000000400100000000",
      "type": "0x2",
      "transactionHash": "0x5410a98a7d9621b11e8ce4ab11fa1524b088ccc608af7bf7d3f1fd31174ee9a5",
      "transactionIndex": "0x7",
      "blockHash": "0x122e4ce65c1a46c4601b388a10206dd8333096e77ec0af0d65aa139be1f52890",
      "blockNumber": "0x80c1b2",
      "gasUsed": "0xc6cd",
      "effectiveGasPrice": "0x407",
      "from": "0x7d413f244a0e9a0b9c8d7f9afa1177ee3a2837fa",
      "to": "0x1917fcb17298789d8caab3ee172561aeceb60e03",
      "contractAddress": null,
      "l1BaseFeeScalar": "0x60a4",
      "l1BlobBaseFee": "0xdf54",
      "l1BlobBaseFeeScalar": "0xc3a30",
      "l1Fee": "0xe2513b338a",
      "l1GasPrice": "0x5b7a557d9",
      "l1GasUsed": "0x640"
    },
    {
      "status": "0x1",
      "cumulativeGasUsed": "0x3b2938",
      "logs": [],
      "logsBloom": "0x00000000000000000000000000000000000000000000000000000000000000000000000000000000000000000000000000000000000000000000000000000000000000000000000000000000000000000000000000000000000000000000000000000000000000000000000000000000000000000000000000000000000000000000000000000000000000000000000000000000000000000000000000000000000000000000000000000000000000000000000000000000000000000000000000000000000000000000000000000000000000000000000000000000000000000000000000000000000000000000000000000000000000000000000000000000",
      "type": "0x2",
      "transactionHash": "0x288eaf4b275750ad0913c3b46a4c1a2578780f96bd924071e6359c0988197c4b",
      "transactionIndex": "0x8",
      "blockHash": "0x122e4ce65c1a46c4601b388a10206dd8333096e77ec0af0d65aa139be1f52890",
      "blockNumber": "0x80c1b2",
      "gasUsed": "0x6869",
      "effectiveGasPrice": "0x407",
      "from": "0x7d413f244a0e9a0b9c8d7f9afa1177ee3a2837fa",
      "to": "0x1917fcb17298789d8caab3ee172561aeceb60e03",
      "contractAddress": null,
      "l1BaseFeeScalar": "0x60a4",
      "l1BlobBaseFee": "0xdf54",
      "l1BlobBaseFeeScalar": "0xc3a30",
      "l1Fee": "0xe2513b338a",
      "l1GasPrice": "0x5b7a557d9",
      "l1GasUsed": "0x640"
    },
    {
      "status": "0x1",
      "cumulativeGasUsed": "0x3c042f",
      "logs": [
        {
          "address": "0xe639110d69ec5b5c4eca926271fa2f82ee94a2d3",
          "topics": [
            "0x2f8788117e7eff1d82e926ec794901d17c78024a50270940304540a733656f0d",
            "0x09bbebe62c1bb2a40021d9ad68c463da0ceccd5f8653d0d1f56090833d3e5677",
            "0x000000000000000000000000c408235a9a01767d70b41c98d92f2dc7b0d959f4",
            "0x0000000000000000000000007d413f244a0e9a0b9c8d7f9afa1177ee3a2837fa"
          ],
          "data": "0x",
          "blockHash": "0x122e4ce65c1a46c4601b388a10206dd8333096e77ec0af0d65aa139be1f52890",
          "blockNumber": "0x80c1b2",
          "transactionHash": "0xe0605078058ba596e6d7f7b5663dcdfeeed84b8a548ce9b0bc43c590d4481d1a",
          "transactionIndex": "0x9",
          "logIndex": "0x6",
          "removed": false
        }
      ],
      "logsBloom": "0x00800004000000000000000000000000000000000000000000000000000000000000800000000000000000008000000000000000000000000000000000000000000000000000000000000000000000000000000000000000000000000000000000000000000000000000000000010000000000000000000000000000000000000000000000000000010000000000000000000000000000000000000000000000000000000000000000000000000000000000000000000000001000000000000000000000000000000100000000000000000000000000000100000000000000000000000000000000000400000000000000110000000000000000400100000000",
      "type": "0x2",
      "transactionHash": "0xe0605078058ba596e6d7f7b5663dcdfeeed84b8a548ce9b0bc43c590d4481d1a",
      "transactionIndex": "0x9",
      "blockHash": "0x122e4ce65c1a46c4601b388a10206dd8333096e77ec0af0d65aa139be1f52890",
      "blockNumber": "0x80c1b2",
      "gasUsed": "0xdaf7",
      "effectiveGasPrice": "0x407",
      "from": "0x7d413f244a0e9a0b9c8d7f9afa1177ee3a2837fa",
      "to": "0xe639110d69ec5b5c4eca926271fa2f82ee94a2d3",
      "contractAddress": null,
      "l1BaseFeeScalar": "0x60a4",
      "l1BlobBaseFee": "0xdf54",
      "l1BlobBaseFeeScalar": "0xc3a30",
      "l1Fee": "0xe722a82f47",
      "l1GasPrice": "0x5b7a557d9",
      "l1GasUsed": "0x662"
    },
    {
      "status": "0x1",
      "cumulativeGasUsed": "0x3cdf26",
      "logs": [
        {
          "address": "0xe639110d69ec5b5c4eca926271fa2f82ee94a2d3",
          "topics": [
            "0x2f8788117e7eff1d82e926ec794901d17c78024a50270940304540a733656f0d",
            "0x09bbebe62c1bb2a40021d9ad68c463da0ceccd5f8653d0d1f56090833d3e5677",
            "0x0000000000000000000000007d413f244a0e9a0b9c8d7f9afa1177ee3a2837fa",
            "0x0000000000000000000000007d413f244a0e9a0b9c8d7f9afa1177ee3a2837fa"
          ],
          "data": "0x",
          "blockHash": "0x122e4ce65c1a46c4601b388a10206dd8333096e77ec0af0d65aa139be1f52890",
          "blockNumber": "0x80c1b2",
          "transactionHash": "0xcf748cf0856b776ccbf02f862ee0c9c688d4d0a3e7a35369a2ff6217cd3509ef",
          "transactionIndex": "0xa",
          "logIndex": "0x7",
          "removed": false
        }
      ],
      "logsBloom": "0x00800004000000000000000000000000000000000000000000000000000000000000800000000000000000008000000000000000000000000000000000000000000000000000000000000000000000000000000000000000000000000000000000000000000000000000000000000000000000000000000000000000000000000000000000000000010000000000000000000000000000000000000000000000000000000000000000000000000000000000000000000000001000000000000000000000000000000100000000000000000000000000000100000000000000000000000000000000000000000000000000100000000000000000400100000000",
      "type": "0x2",
      "transactionHash": "0xcf748cf0856b776ccbf02f862ee0c9c688d4d0a3e7a35369a2ff6217cd3509ef",
      "transactionIndex": "0xa",
      "blockHash": "0x122e4ce65c1a46c4601b388a10206dd8333096e77ec0af0d65aa139be1f52890",
      "blockNumber": "0x80c1b2",
      "gasUsed": "0xdaf7",
      "effectiveGasPrice": "0x407",
      "from": "0x7d413f244a0e9a0b9c8d7f9afa1177ee3a2837fa",
      "to": "0xe639110d69ec5b5c4eca926271fa2f82ee94a2d3",
      "contractAddress": null,
      "l1BaseFeeScalar": "0x60a4",
      "l1BlobBaseFee": "0xdf54",
      "l1BlobBaseFeeScalar": "0xc3a30",
      "l1Fee": "0xe722a82f47",
      "l1GasPrice": "0x5b7a557d9",
      "l1GasUsed": "0x662"
    },
    {
      "status": "0x1",
      "cumulativeGasUsed": "0x3da5bd",
      "logs": [],
      "logsBloom": "0x00000000000000000000000000000000000000000000000000000000000000000000000000000000000000000000000000000000000000000000000000000000000000000000000000000000000000000000000000000000000000000000000000000000000000000000000000000000000000000000000000000000000000000000000000000000000000000000000000000000000000000000000000000000000000000000000000000000000000000000000000000000000000000000000000000000000000000000000000000000000000000000000000000000000000000000000000000000000000000000000000000000000000000000000000000000",
      "type": "0x2",
      "transactionHash": "0xb430d7036b577fd8c4f53ffd373054eb48916b3d015eee4d21de8e5f239b59df",
      "transactionIndex": "0xb",
      "blockHash": "0x122e4ce65c1a46c4601b388a10206dd8333096e77ec0af0d65aa139be1f52890",
      "blockNumber": "0x80c1b2",
      "gasUsed": "0xc697",
      "effectiveGasPrice": "0x407",
      "from": "0x7d413f244a0e9a0b9c8d7f9afa1177ee3a2837fa",
      "to": "0xe639110d69ec5b5c4eca926271fa2f82ee94a2d3",
      "contractAddress": null,
      "l1BaseFeeScalar": "0x60a4",
      "l1BlobBaseFee": "0xdf54",
      "l1BlobBaseFeeScalar": "0xc3a30",
      "l1Fee": "0xe2513b338a",
      "l1GasPrice": "0x5b7a557d9",
      "l1GasUsed": "0x640"
    }
  ],
  "libraries": [],
  "pending": [],
  "returns": {},
  "timestamp": 1731605215,
  "chain": 1135,
  "commit": "d4d5db7"
}