{
  "transactions": [
    {
      "hash": "0x0742c4d5bf2849bfddf05c1b4efd492972092fe713acd335b1c977cbfcdd19d3",
      "transactionType": "CREATE",
      "contractName": "BDRLS2024Facet",
      "contractAddress": "0xf398d745b7e40ea290ea6016e9ef37749f1eae3b",
      "function": null,
      "arguments": null,
      "transaction": {
        "from": "0x7d413f244a0e9a0b9c8d7f9afa1177ee3a2837fa",
        "gas": "0xcad92",
        "value": "0x0",
        "input": "0x60808060405234601557610ab0908161001b8239f35b600080fdfe6080604052600436101561001257600080fd5b6000803560e01c806316554192146108355780634cf3ce60146107b05780635733e6ce1461068057806360261b901461060f578063c9f333ee1461013f578063d9eb197c146100c25763f9649e8a1461006a57600080fd5b346100bf5760207ffffffffffffffffffffffffffffffffffffffffffffffffffffffffffffffffc3601126100bf576004359060048210156100bf57602060ff6100b38461091f565b54166040519015158152f35b80fd5b50346100bf5760207ffffffffffffffffffffffffffffffffffffffffffffffffffffffffffffffffc3601126100bf57600435600481101561013b5761010f9061010a6109ef565b61091f565b60017fffffffffffffffffffffffffffffffffffffffffffffffffffffffffffffff0082541617905580f35b5080fd5b50346100bf5761014e36610876565b906101576109ef565b60ff6101628361091f565b5416156105d757600160ff6101a08461019b8573ffffffffffffffffffffffffffffffffffffffff16600052600c602052604060002090565b610967565b54161515146105745773ffffffffffffffffffffffffffffffffffffffff600a54169083604051927f70a0823100000000000000000000000000000000000000000000000000000000845273ffffffffffffffffffffffffffffffffffffffff831693846004820152602081602481855afa908115610569578391610533575b50156104c5575b50506004831015908161049857600184036103bd57600d5468010000000000000000811015610390576001810180600d5581101561036357600d86527fd7b6990105719101dabeb77144f2a3385c8033acd3af97e9423a695e81ad1eb50180547fffffffffffffffffffffffff0000000000000000000000000000000000000000168417905573ffffffffffffffffffffffffffffffffffffffff166000908152600c602052604090206102dc908490610967565b60017fffffffffffffffffffffffffffffffffffffffffffffffffffffffffffffff00825416179055610336577f7e4de0d19aa4d0d334336912538b7c23716a164154925979abaf26e26c1703326020604051428152a380f35b6024837f4e487b710000000000000000000000000000000000000000000000000000000081526021600452fd5b6024867f4e487b710000000000000000000000000000000000000000000000000000000081526032600452fd5b6024867f4e487b710000000000000000000000000000000000000000000000000000000081526041600452fd5b8491506002840361046957600e5468010000000000000000811015610390576001810180600e5581101561036357600e86527fbb7b4a454dc3493923482f07822329ed19e8244eff582cc204f8554c3620c3fd0180547fffffffffffffffffffffffff000000000000000000000000000000000000000016841790556102dc90849061019b9073ffffffffffffffffffffffffffffffffffffffff16600052600c602052604060002090565b60248560ff867f6cac31a600000000000000000000000000000000000000000000000000000000835216600452fd5b6024857f4e487b710000000000000000000000000000000000000000000000000000000081526021600452fd5b803b1561013b5781906024604051809481937f2a240ef00000000000000000000000000000000000000000000000000000000083528860048401525af1801561052857610514575b8490610227565b846105219195929561097f565b923861050d565b6040513d87823e3d90fd5b90506020813d602011610561575b8161054e6020938361097f565b8101031261055d575138610220565b8280fd5b3d9150610541565b6040513d85823e3d90fd5b6024838360048110156105ac577f1e5040a200000000000000000000000000000000000000000000000000000000825260ff16600452fd5b507f4e487b710000000000000000000000000000000000000000000000000000000081526021600452fd5b6024838360048110156105ac577f835f146400000000000000000000000000000000000000000000000000000000825260ff16600452fd5b50346100bf5760207ffffffffffffffffffffffffffffffffffffffffffffffffffffffffffffffffc3601126100bf57600435600481101561013b576106579061010a6109ef565b7fffffffffffffffffffffffffffffffffffffffffffffffffffffffffffffff00815416905580f35b50346100bf57807ffffffffffffffffffffffffffffffffffffffffffffffffffffffffffffffffc3601126100bf57604051600d548082528160208101600d85526020852092855b8181106107815750506106dd9250038261097f565b604051600e8054808352908452909260208401917fbb7b4a454dc3493923482f07822329ed19e8244eff582cc204f8554c3620c3fd915b81811061075557610743856107518861072f8189038261097f565b6040519384936040855260408501906108d5565b9083820360208501526108d5565b0390f35b825473ffffffffffffffffffffffffffffffffffffffff16845260209093019260019283019201610714565b845473ffffffffffffffffffffffffffffffffffffffff168352600194850194869450602090930192016106c8565b50346100bf5760207ffffffffffffffffffffffffffffffffffffffffffffffffffffffffffffffffc3601126100bf5760043573ffffffffffffffffffffffffffffffffffffffff811680910361013b576108096109ef565b7fffffffffffffffffffffffff0000000000000000000000000000000000000000600a541617600a5580f35b50346100bf57602060ff6100b361019b61084e36610876565b919073ffffffffffffffffffffffffffffffffffffffff16600052600c602052604060002090565b7ffffffffffffffffffffffffffffffffffffffffffffffffffffffffffffffffc60409101126108d05760043573ffffffffffffffffffffffffffffffffffffffff811681036108d0579060243560048110156108d05790565b600080fd5b906020808351928381520192019060005b8181106108f35750505090565b825173ffffffffffffffffffffffffffffffffffffffff168452602093840193909201916001016108e6565b600481101561093857600052600b602052604060002090565b7f4e487b7100000000000000000000000000000000000000000000000000000000600052602160045260246000fd5b90600481101561093857600052602052604060002090565b90601f7fffffffffffffffffffffffffffffffffffffffffffffffffffffffffffffffe0910116810190811067ffffffffffffffff8211176109c057604052565b7f4e487b7100000000000000000000000000000000000000000000000000000000600052604160045260246000fd5b3360009081527f335be051cbfa49b7bb1e2d84276d0d5484e64ec5b7e502100cb9d429b13c013a602052604090205460ff1615610a2857565b7fe2517d3f00000000000000000000000000000000000000000000000000000000600052336004527f5b509f946c91f18f87114e5a89d1211d92a04277863d2533be167aa9bbf004d360245260446000fdfea264697066735822122086db0b45681d1f4367335725426c0ce8bb749617ba7767bfee009b6b6e2bd9ab64736f6c634300081a0033",
        "nonce": "0x14",
        "chainId": "0x46f"
      },
      "additionalContracts": [],
      "isFixedGasLimit": false
    },
    {
      "hash": "0x49e6edb497d2b2bae36c012809db71af77919a6d8ccf0f6ad2e10280ff53387d",
      "transactionType": "CREATE",
      "contractName": "BDRLS2024",
      "contractAddress": "0x18ebfca1075285708f911818655d22c21572d433",
      "function": null,
      "arguments": null,
      "transaction": {
        "from": "0x7d413f244a0e9a0b9c8d7f9afa1177ee3a2837fa",
        "gas": "0x349440",
        "value": "0x0",
        "input": "0x60808060405234601557612f39908161001b8239f35b600080fdfe6080604052600436101561001257600080fd5b60003560e01c806301ffc9a7146101a757806306fdde03146101a2578063081812fc1461019d578063095ea7b31461019857806318160ddd1461019357806323b872dd1461018e578063248a9ca3146101895780632a240ef0146101845780632f2ff15d1461017f57806336568abe1461017a57806342842e0e1461017557806355f804b3146101705780636352211e1461016b57806370a082311461016657806391d148541461016157806395d89b411461015c578063a217fddf14610157578063a22cb46514610152578063b88d4fde1461014d578063c4d66de814610148578063c87b56dd14610143578063d3c1c8381461013e578063d547741f14610139578063d67b06c1146101345763e985e9c51461012f57600080fd5b611434565b6113f0565b61138e565b611344565b6112bd565b611065565b611002565b610f19565b610efd565b610e17565b610d94565b610cd3565b610c97565b610a32565b610927565b6108b7565b610850565b610823565b6107cf565b6107bb565b61072e565b610596565b6104df565b6103aa565b6101db565b7fffffffff000000000000000000000000000000000000000000000000000000008116036101d657565b600080fd5b346101d65760206003193601126101d6576102737fffffffff0000000000000000000000000000000000000000000000000000000060043561021c816101ac565b167f01ffc9a70000000000000000000000000000000000000000000000000000000081149081908215610306575b82156102dc575b82156102b2575b8215610277575b505060405190151581529081906020820190565b0390f35b7f7965db0b0000000000000000000000000000000000000000000000000000000014915081156102aa575b50388061025f565b9050386102a2565b7f7965db0b0000000000000000000000000000000000000000000000000000000081149250610258565b7f5b5e139f0000000000000000000000000000000000000000000000000000000081149250610251565b7f80ac58cd000000000000000000000000000000000000000000000000000000008114925061024a565b60005b8381106103435750506000910152565b8181015183820152602001610333565b907fffffffffffffffffffffffffffffffffffffffffffffffffffffffffffffffe0601f60209361038f81518092818752878088019101610330565b0116010190565b9060206103a7928181520190610353565b90565b346101d65760006003193601126101d65760405160007f2569078dfb4b0305704d3008e7403993ae9601b85f7ae5e742de3de8f8011c42546103eb816114ad565b808452906001811690811561049d575060011461041f575b610273836104138185038261097b565b60405191829182610396565b7f2569078dfb4b0305704d3008e7403993ae9601b85f7ae5e742de3de8f8011c4260009081527f933ecf8acb7824b680a8d16f3ff3db8864228d986aa4c2ebab1eeb2703b4beb3939250905b80821061048357509091508101602001610413610403565b91926001816020925483858801015201910190929161046b565b7fffffffffffffffffffffffffffffffffffffffffffffffffffffffffffffff001660208086019190915291151560051b840190910191506104139050610403565b346101d65760206003193601126101d6576004356104fc816120ba565b1561054e576000527f2569078dfb4b0305704d3008e7403993ae9601b85f7ae5e742de3de8f8011c46602052602073ffffffffffffffffffffffffffffffffffffffff60406000205416604051908152f35b7fcf4700e40000000000000000000000000000000000000000000000000000000060005260046000fd5b73ffffffffffffffffffffffffffffffffffffffff8116036101d657565b60406003193601126101d6576004356105ae81610578565b6024359073ffffffffffffffffffffffffffffffffffffffff6105d083612251565b169081330361068a575b73ffffffffffffffffffffffffffffffffffffffff90836000527f2569078dfb4b0305704d3008e7403993ae9601b85f7ae5e742de3de8f8011c466020526106618160406000209073ffffffffffffffffffffffffffffffffffffffff167fffffffffffffffffffffffff0000000000000000000000000000000000000000825416179055565b16907f8c5be1e5ebec7d5bd14f71427d1e84f3dd0314c0f7b2291e5b200ac8c7c3b925600080a4005b60ff6106fe336106d98573ffffffffffffffffffffffffffffffffffffffff166000527f2569078dfb4b0305704d3008e7403993ae9601b85f7ae5e742de3de8f8011c47602052604060002090565b9073ffffffffffffffffffffffffffffffffffffffff16600052602052604060002090565b54166105da577fcfb3b9420000000000000000000000000000000000000000000000000000000060005260046000fd5b346101d65760006003193601126101d65760207f2569078dfb4b0305704d3008e7403993ae9601b85f7ae5e742de3de8f8011c40547f2569078dfb4b0305704d3008e7403993ae9601b85f7ae5e742de3de8f8011c41549003604051908152f35b60031960609101126101d6576004356107a781610578565b906024356107b481610578565b9060443590565b6107cd6107c73661078f565b916116d5565b005b346101d65760206003193601126101d657602061081b6004356000527f02dd7bc7dec4dceedda775e58dd541e08a116c6c53815c0bd028192f7b62680060205260016040600020015490565b604051908152f35b346101d65760206003193601126101d6576107cd60043561084381610578565b61084b6123b6565b6124b5565b346101d65760406003193601126101d6576107cd60243560043561087382610578565b6108b26108ad826000527f02dd7bc7dec4dceedda775e58dd541e08a116c6c53815c0bd028192f7b62680060205260016040600020015490565b612422565b612730565b346101d65760406003193601126101d6576004356024356108d781610578565b3373ffffffffffffffffffffffffffffffffffffffff8216036108fd576107cd91612857565b7f6697b2320000000000000000000000000000000000000000000000000000000060005260046000fd5b6107cd6109333661078f565b906040519261094360208561097b565b600084526119e4565b7f4e487b7100000000000000000000000000000000000000000000000000000000600052604160045260246000fd5b90601f7fffffffffffffffffffffffffffffffffffffffffffffffffffffffffffffffe0910116810190811067ffffffffffffffff8211176109bc57604052565b61094c565b67ffffffffffffffff81116109bc57601f017fffffffffffffffffffffffffffffffffffffffffffffffffffffffffffffffe01660200190565b929192610a07826109c1565b91610a15604051938461097b565b8294818452818301116101d6578281602093846000960137010152565b346101d65760206003193601126101d65760043567ffffffffffffffff81116101d657366023820112156101d657610a749036906024816004013591016109fb565b610a7c6123b6565b610a84611500565b9080519167ffffffffffffffff83116109bc57610aca83610ac57f2569078dfb4b0305704d3008e7403993ae9601b85f7ae5e742de3de8f8011c49546114ad565b612975565b6020601f8411600114610b7957837fc9c7c3fe08b88b4df9d4d47ef47d2c43d55c025a0ba88ca442580ed9e7348a1694610b3792600091610b6e575b507fffffffffffffffffffffffffffffffffffffffffffffffffffffffffffffffff8260011b9260031b1c19161790565b7f2569078dfb4b0305704d3008e7403993ae9601b85f7ae5e742de3de8f8011c49555b610b6960405192839283612c7c565b0390a1005b905084015138610b06565b7f2569078dfb4b0305704d3008e7403993ae9601b85f7ae5e742de3de8f8011c496000527fffffffffffffffffffffffffffffffffffffffffffffffffffffffffffffffe08416907f52ec6bedc82acfa7819738f765069a31117e7483e8ea612c55a33bd45a4d477a9160005b818110610c7f57509185917fc9c7c3fe08b88b4df9d4d47ef47d2c43d55c025a0ba88ca442580ed9e7348a169660019410610c48575b5050811b017f2569078dfb4b0305704d3008e7403993ae9601b85f7ae5e742de3de8f8011c4955610b5a565b8501517fffffffffffffffffffffffffffffffffffffffffffffffffffffffffffffffff60f88460031b161c191690553880610c1c565b91926020600181928689015181550194019201610be6565b346101d65760206003193601126101d657602073ffffffffffffffffffffffffffffffffffffffff610cca600435612251565b16604051908152f35b346101d65760206003193601126101d657600435610cf081610578565b73ffffffffffffffffffffffffffffffffffffffff811615610d6a5767ffffffffffffffff610d6060209273ffffffffffffffffffffffffffffffffffffffff166000527f2569078dfb4b0305704d3008e7403993ae9601b85f7ae5e742de3de8f8011c45602052604060002090565b5416604051908152f35b7f8f4eb6040000000000000000000000000000000000000000000000000000000060005260046000fd5b346101d65760406003193601126101d657602060ff610e0b602435600435610dbb82610578565b6000527f02dd7bc7dec4dceedda775e58dd541e08a116c6c53815c0bd028192f7b626800845260406000209073ffffffffffffffffffffffffffffffffffffffff16600052602052604060002090565b54166040519015158152f35b346101d65760006003193601126101d65760405160007f2569078dfb4b0305704d3008e7403993ae9601b85f7ae5e742de3de8f8011c4354610e58816114ad565b808452906001811690811561049d5750600114610e7f57610273836104138185038261097b565b7f2569078dfb4b0305704d3008e7403993ae9601b85f7ae5e742de3de8f8011c4360009081527f617167b76dcc8247761fd21f427ad8ec3be6b3be203aed34e3aac08b4d31817c939250905b808210610ee357509091508101602001610413610403565b919260018160209254838588010152019101909291610ecb565b346101d65760006003193601126101d657602060405160008152f35b346101d65760406003193601126101d657600435610f3681610578565b602435908115158092036101d65780610fa773ffffffffffffffffffffffffffffffffffffffff926106d93373ffffffffffffffffffffffffffffffffffffffff166000527f2569078dfb4b0305704d3008e7403993ae9601b85f7ae5e742de3de8f8011c47602052604060002090565b7fffffffffffffffffffffffffffffffffffffffffffffffffffffffffffffff0081541660ff851617905560405192835216907f17307eab39ab6107e8899845ad3d59bd9653f200f220920489ca2b5937696c3160203392a3005b60806003193601126101d65760043561101a81610578565b6024359061102782610578565b6044356064359267ffffffffffffffff84116101d657366023850112156101d65761105f6107cd9436906024816004013591016109fb565b926119e4565b346101d65760206003193601126101d65760043561108281610578565b7fee151c8401928dc223602bb187aff91b9a56c7cae5476ef1b3287b085a16c85f5460ff8160081c166000146112b357303b155b1561122f576110dc906110d19060081c60ff161590565b1590565b918261114d57611a40565b6110e257005b6107cd7fffffffffffffffffffffffffffffffffffffffffffffffffffffffffffff00ff7fee151c8401928dc223602bb187aff91b9a56c7cae5476ef1b3287b085a16c85f54167fee151c8401928dc223602bb187aff91b9a56c7cae5476ef1b3287b085a16c85f55565b6111bc6101007fffffffffffffffffffffffffffffffffffffffffffffffffffffffffffff00ff7fee151c8401928dc223602bb187aff91b9a56c7cae5476ef1b3287b085a16c85f5416177fee151c8401928dc223602bb187aff91b9a56c7cae5476ef1b3287b085a16c85f55565b61122a60017fffffffffffffffffffffffffffffffffffffffffffffffffffffffffffffff007fee151c8401928dc223602bb187aff91b9a56c7cae5476ef1b3287b085a16c85f5416177fee151c8401928dc223602bb187aff91b9a56c7cae5476ef1b3287b085a16c85f55565b611a40565b60846040517f08c379a000000000000000000000000000000000000000000000000000000000815260206004820152603760248201527f455243373231415f5f496e697469616c697a61626c653a20636f6e747261637460448201527f20697320616c726561647920696e697469616c697a65640000000000000000006064820152fd5b60ff8116156110b6565b346101d65760206003193601126101d6576102736112dc600435611f39565b604051918291602083526020830190610353565b9060206003198301126101d65760043567ffffffffffffffff81116101d657826023820112156101d65780600401359267ffffffffffffffff84116101d65760248460051b830101116101d6576024019190565b346101d657611352366112f0565b61135a6123b6565b60005b81811061136657005b80611388816113786001948688612027565b3561138281610578565b336116d5565b0161135d565b346101d65760406003193601126101d6576107cd6024356004356113b182610578565b6113eb6108ad826000527f02dd7bc7dec4dceedda775e58dd541e08a116c6c53815c0bd028192f7b62680060205260016040600020015490565b612857565b346101d6576113fe366112f0565b906114076123b6565b60005b82811061141357005b8061142e6114246001938686612027565b3561084b81610578565b0161140a565b346101d65760406003193601126101d657602060ff610e0b60043561145881610578565b6106d96024359161146883610578565b73ffffffffffffffffffffffffffffffffffffffff166000527f2569078dfb4b0305704d3008e7403993ae9601b85f7ae5e742de3de8f8011c47602052604060002090565b90600182811c921680156114f6575b60208310146114c757565b7f4e487b7100000000000000000000000000000000000000000000000000000000600052602260045260246000fd5b91607f16916114bc565b604051906000827f2569078dfb4b0305704d3008e7403993ae9601b85f7ae5e742de3de8f8011c495491611533836114ad565b80835292600181169081156115d85750600114611559575b6115579250038361097b565b565b507f2569078dfb4b0305704d3008e7403993ae9601b85f7ae5e742de3de8f8011c49600090815290917f52ec6bedc82acfa7819738f765069a31117e7483e8ea612c55a33bd45a4d477a5b8183106115bc5750509060206115579282010161154b565b60209193508060019154838589010152019101909184926115a4565b602092506115579491507fffffffffffffffffffffffffffffffffffffffffffffffffffffffffffffff001682840152151560051b82010161154b565b9060405191826000825492611629846114ad565b8084529360018116908115611695575060011461164e575b506115579250038361097b565b90506000929192526020600020906000915b8183106116795750509060206115579282010138611641565b6020919350806001915483858901015201910190918492611660565b602093506115579592507fffffffffffffffffffffffffffffffffffffffffffffffffffffffffffffff0091501682840152151560051b82010138611641565b91909173ffffffffffffffffffffffffffffffffffffffff6116f683612251565b9116928373ffffffffffffffffffffffffffffffffffffffff8316036119df5760008381527f2569078dfb4b0305704d3008e7403993ae9601b85f7ae5e742de3de8f8011c46602052604090208054929061176d73ffffffffffffffffffffffffffffffffffffffff871633908114908614171590565b6119c8575b73ffffffffffffffffffffffffffffffffffffffff936119be575b506117d78573ffffffffffffffffffffffffffffffffffffffff166000527f2569078dfb4b0305704d3008e7403993ae9601b85f7ae5e742de3de8f8011c45602052604060002090565b80547fffffffffffffffffffffffffffffffffffffffffffffffffffffffffffffffff0190556118468273ffffffffffffffffffffffffffffffffffffffff166000527f2569078dfb4b0305704d3008e7403993ae9601b85f7ae5e742de3de8f8011c45602052604060002090565b8054600101905573ffffffffffffffffffffffffffffffffffffffff82164260a01b177c0200000000000000000000000000000000000000000000000000000000176118bb856000527f2569078dfb4b0305704d3008e7403993ae9601b85f7ae5e742de3de8f8011c44602052604060002090565b557c0200000000000000000000000000000000000000000000000000000000811615611917575b501680927fddf252ad1be2c89b69c2b068fc378daa952ba7f163c4a11628f55a4df523b3ef600080a41561191257565b6121fd565b6001840161194e816000527f2569078dfb4b0305704d3008e7403993ae9601b85f7ae5e742de3de8f8011c44602052604060002090565b541561195b575b506118e2565b7f2569078dfb4b0305704d3008e7403993ae9601b85f7ae5e742de3de8f8011c40548114611955576119b6906000527f2569078dfb4b0305704d3008e7403993ae9601b85f7ae5e742de3de8f8011c44602052604060002090565b553880611955565b600090553861178d565b6119d56110cd3388612066565b15611772576121d3565b6121a9565b9291906119f28282866116d5565b803b6119ff575b50505050565b611a0893612d21565b15611a1657388080806119f9565b7fd1a57ed60000000000000000000000000000000000000000000000000000000060005260046000fd5b7ff0c57e16840df040f15088dc2f81fe391c3923bec73e23a9662efc9c229c6a00549067ffffffffffffffff611a86604084901c60ff16159367ffffffffffffffff1690565b1680159081611c7b575b6001149081611c71575b159081611c68575b50611c3e57611b239082611b1a60017fffffffffffffffffffffffffffffffffffffffffffffffff00000000000000007ff0c57e16840df040f15088dc2f81fe391c3923bec73e23a9662efc9c229c6a005416177ff0c57e16840df040f15088dc2f81fe391c3923bec73e23a9662efc9c229c6a0055565b611bc357611c83565b611b2957565b611b947fffffffffffffffffffffffffffffffffffffffffffffff00ffffffffffffffff7ff0c57e16840df040f15088dc2f81fe391c3923bec73e23a9662efc9c229c6a0054167ff0c57e16840df040f15088dc2f81fe391c3923bec73e23a9662efc9c229c6a0055565b604051600181527fc7f505b2f371ae2175ee4913f4499e1f2633a7b5936321eed1cdaeb6115181d290602090a1565b611c39680100000000000000007fffffffffffffffffffffffffffffffffffffffffffffff00ffffffffffffffff7ff0c57e16840df040f15088dc2f81fe391c3923bec73e23a9662efc9c229c6a005416177ff0c57e16840df040f15088dc2f81fe391c3923bec73e23a9662efc9c229c6a0055565b611c83565b7ff92ee8a90000000000000000000000000000000000000000000000000000000060005260046000fd5b90501538611aa2565b303b159150611a9a565b839150611a90565b90604091825192611c94818561097b565b600e84527f423c3e6465722f65737320332e300000000000000000000000000000000000006020850152611cca8151918261097b565b600981527f4252444c533230323400000000000000000000000000000000000000000000006020820152611d2d60ff7fee151c8401928dc223602bb187aff91b9a56c7cae5476ef1b3287b085a16c85f5460081c16611d2881612e1f565b612e1f565b835167ffffffffffffffff81116109bc57611d7181611d6c7f2569078dfb4b0305704d3008e7403993ae9601b85f7ae5e742de3de8f8011c42546114ad565b6129e7565b6020601f8211600114611e325781611dee9392611dc792611e249798600092611e27575b50507fffffffffffffffffffffffffffffffffffffffffffffffffffffffffffffffff8260011b9260031b1c19161790565b7f2569078dfb4b0305704d3008e7403993ae9601b85f7ae5e742de3de8f8011c4255612aab565b611e1760007f2569078dfb4b0305704d3008e7403993ae9601b85f7ae5e742de3de8f8011c4055565b611e1f612eaa565b612646565b50565b015190503880611d95565b7f2569078dfb4b0305704d3008e7403993ae9601b85f7ae5e742de3de8f8011c426000527fffffffffffffffffffffffffffffffffffffffffffffffffffffffffffffffe08216957f933ecf8acb7824b680a8d16f3ff3db8864228d986aa4c2ebab1eeb2703b4beb39660005b818110611f215750966001928492611dee9695611e24999a10611eea575b505050811b017f2569078dfb4b0305704d3008e7403993ae9601b85f7ae5e742de3de8f8011c4255612aab565b01517fffffffffffffffffffffffffffffffffffffffffffffffffffffffffffffffff60f88460031b161c19169055388080611ebd565b83830151895560019098019760209384019301611e9f565b611f42816120ba565b15611ffd576000527f2569078dfb4b0305704d3008e7403993ae9601b85f7ae5e742de3de8f8011c4a602052611f7b6040600020611615565b611f83611500565b908151908115611ff7578051611f9857505090565b91602082936103a793611fb5604051968795858088019101610330565b8301611fc982518093858085019101610330565b0101037fffffffffffffffffffffffffffffffffffffffffffffffffffffffffffffffe0810183528261097b565b91505090565b7fa14c4b500000000000000000000000000000000000000000000000000000000060005260046000fd5b91908110156120375760051b0190565b7f4e487b7100000000000000000000000000000000000000000000000000000000600052603260045260246000fd5b60ff916106d96120b59273ffffffffffffffffffffffffffffffffffffffff166000527f2569078dfb4b0305704d3008e7403993ae9601b85f7ae5e742de3de8f8011c47602052604060002090565b541690565b906000917f2569078dfb4b0305704d3008e7403993ae9601b85f7ae5e742de3de8f8011c405481106120e95750565b9091505b612120816000527f2569078dfb4b0305704d3008e7403993ae9601b85f7ae5e742de3de8f8011c44602052604060002090565b548061218457506000811561215757507fffffffffffffffffffffffffffffffffffffffffffffffffffffffffffffffff016120ed565b807f4e487b7100000000000000000000000000000000000000000000000000000000602492526011600452fd5b7c01000000000000000000000000000000000000000000000000000000009150161590565b7fa11481000000000000000000000000000000000000000000000000000000000060005260046000fd5b7f59c896be0000000000000000000000000000000000000000000000000000000060005260046000fd5b7fea553b340000000000000000000000000000000000000000000000000000000060005260046000fd5b7fdf2d9b420000000000000000000000000000000000000000000000000000000060005260046000fd5b612284816000527f2569078dfb4b0305704d3008e7403993ae9601b85f7ae5e742de3de8f8011c44602052604060002090565b549081156122b457507c010000000000000000000000000000000000000000000000000000000081166122275790565b90507f2569078dfb4b0305704d3008e7403993ae9601b85f7ae5e742de3de8f8011c4054811015612227577fffffffffffffffffffffffffffffffffffffffffffffffffffffffffffffffff905b01612336816000527f2569078dfb4b0305704d3008e7403993ae9601b85f7ae5e742de3de8f8011c44602052604060002090565b5490811561238e57507c01000000000000000000000000000000000000000000000000000000008116156103a7577fdf2d9b420000000000000000000000000000000000000000000000000000000060005260046000fd5b7fffffffffffffffffffffffffffffffffffffffffffffffffffffffffffffffff9150612302565b3360009081527fb7db2dd08fcb62d0c9e08c51941cae53c267786a0b75803fb7960902fc8ef97d602052604090205460ff16156123ef57565b7fe2517d3f0000000000000000000000000000000000000000000000000000000060005233600452600060245260446000fd5b806000527f02dd7bc7dec4dceedda775e58dd541e08a116c6c53815c0bd028192f7b62680060205260ff61247a3360406000209073ffffffffffffffffffffffffffffffffffffffff16600052602052604060002090565b5416156124845750565b7fe2517d3f000000000000000000000000000000000000000000000000000000006000523360045260245260446000fd5b73ffffffffffffffffffffffffffffffffffffffff7f2569078dfb4b0305704d3008e7403993ae9601b85f7ae5e742de3de8f8011c4054917c02000000000000000000000000000000000000000000000000000000004260a01b1782821617612547846000527f2569078dfb4b0305704d3008e7403993ae9601b85f7ae5e742de3de8f8011c44602052604060002090565b556125918173ffffffffffffffffffffffffffffffffffffffff166000527f2569078dfb4b0305704d3008e7403993ae9601b85f7ae5e742de3de8f8011c45602052604060002090565b6801000000000000000181540190551690811561261c5760018101909260015b156125e5575b60008484827fddf252ad1be2c89b69c2b068fc378daa952ba7f163c4a11628f55a4df523b3ef8180a46125b1565b92600101928184036125b757925061155791507f2569078dfb4b0305704d3008e7403993ae9601b85f7ae5e742de3de8f8011c4055565b7f2e0763000000000000000000000000000000000000000000000000000000000060005260046000fd5b73ffffffffffffffffffffffffffffffffffffffff811660009081527fb7db2dd08fcb62d0c9e08c51941cae53c267786a0b75803fb7960902fc8ef97d602052604090205460ff1661272a5773ffffffffffffffffffffffffffffffffffffffff1660008181527fb7db2dd08fcb62d0c9e08c51941cae53c267786a0b75803fb7960902fc8ef97d6020526040812080547fffffffffffffffffffffffffffffffffffffffffffffffffffffffffffffff001660011790553391907f2f8788117e7eff1d82e926ec794901d17c78024a50270940304540a733656f0d8180a4600190565b50600090565b806000527f02dd7bc7dec4dceedda775e58dd541e08a116c6c53815c0bd028192f7b62680060205260ff6127888360406000209073ffffffffffffffffffffffffffffffffffffffff16600052602052604060002090565b541661285057806000527f02dd7bc7dec4dceedda775e58dd541e08a116c6c53815c0bd028192f7b6268006020526127e48260406000209073ffffffffffffffffffffffffffffffffffffffff16600052602052604060002090565b60017fffffffffffffffffffffffffffffffffffffffffffffffffffffffffffffff0082541617905573ffffffffffffffffffffffffffffffffffffffff339216907f2f8788117e7eff1d82e926ec794901d17c78024a50270940304540a733656f0d600080a4600190565b5050600090565b806000527f02dd7bc7dec4dceedda775e58dd541e08a116c6c53815c0bd028192f7b62680060205260ff6128af8360406000209073ffffffffffffffffffffffffffffffffffffffff16600052602052604060002090565b54161561285057806000527f02dd7bc7dec4dceedda775e58dd541e08a116c6c53815c0bd028192f7b62680060205261290c8260406000209073ffffffffffffffffffffffffffffffffffffffff16600052602052604060002090565b7fffffffffffffffffffffffffffffffffffffffffffffffffffffffffffffff00815416905573ffffffffffffffffffffffffffffffffffffffff339216907ff6391f5c32d9c69d2a47ea670b442974b53935d1edc7fd64eb21e047a839171b600080a4600190565b601f8111612981575050565b7f2569078dfb4b0305704d3008e7403993ae9601b85f7ae5e742de3de8f8011c496000526020600020906020601f840160051c830193106129dd575b601f0160051c01905b8181106129d1575050565b600081556001016129c6565b90915081906129bd565b601f81116129f3575050565b7f2569078dfb4b0305704d3008e7403993ae9601b85f7ae5e742de3de8f8011c426000526020600020906020601f840160051c83019310612a4f575b601f0160051c01905b818110612a43575050565b60008155600101612a38565b9091508190612a2f565b601f8211612a6657505050565b6000526020600020906020601f840160051c83019310612aa1575b601f0160051c01905b818110612a95575050565b60008155600101612a8a565b9091508190612a81565b90815167ffffffffffffffff81116109bc57612b1181612aeb7f2569078dfb4b0305704d3008e7403993ae9601b85f7ae5e742de3de8f8011c43546114ad565b7f2569078dfb4b0305704d3008e7403993ae9601b85f7ae5e742de3de8f8011c43612a59565b602092601f8211600114612b8357612b5f92938291600092611e275750507fffffffffffffffffffffffffffffffffffffffffffffffffffffffffffffffff8260011b9260031b1c19161790565b7f2569078dfb4b0305704d3008e7403993ae9601b85f7ae5e742de3de8f8011c4355565b7f2569078dfb4b0305704d3008e7403993ae9601b85f7ae5e742de3de8f8011c436000527fffffffffffffffffffffffffffffffffffffffffffffffffffffffffffffffe08216937f617167b76dcc8247761fd21f427ad8ec3be6b3be203aed34e3aac08b4d31817c9160005b868110612c645750836001959610612c2d575b505050811b017f2569078dfb4b0305704d3008e7403993ae9601b85f7ae5e742de3de8f8011c4355565b01517fffffffffffffffffffffffffffffffffffffffffffffffffffffffffffffffff60f88460031b161c19169055388080612c03565b91926020600181928685015181550194019201612bf0565b9091612c936103a793604084526040840190610353565b916020818403910152610353565b908160209103126101d657516103a7816101ac565b909273ffffffffffffffffffffffffffffffffffffffff608093816103a7979616845216602083015260408201528160608201520190610353565b3d15612d1c573d90612d02826109c1565b91612d10604051938461097b565b82523d6000602084013e565b606090565b90602092600073ffffffffffffffffffffffffffffffffffffffff612d789694604051978896879586937f150b7a020000000000000000000000000000000000000000000000000000000085523360048601612cb6565b0393165af160009181612dee575b50612da757612d93612cf1565b805115612da257805190602001fd5b611a16565b7fffffffff00000000000000000000000000000000000000000000000000000000167f150b7a02000000000000000000000000000000000000000000000000000000001490565b612e1191925060203d602011612e18575b612e09818361097b565b810190612ca1565b9038612d86565b503d612dff565b15612e2657565b60846040517f08c379a000000000000000000000000000000000000000000000000000000000815260206004820152603460248201527f455243373231415f5f496e697469616c697a61626c653a20636f6e747261637460448201527f206973206e6f7420696e697469616c697a696e670000000000000000000000006064820152fd5b60ff7ff0c57e16840df040f15088dc2f81fe391c3923bec73e23a9662efc9c229c6a005460401c1615612ed957565b7fd7e6bcf80000000000000000000000000000000000000000000000000000000060005260046000fdfea264697066735822122079bdcf4813be3e2aace091019dc778eb9d86da4befb59afc7863ddeec3f2344864736f6c634300081a0033",
        "nonce": "0x15",
        "chainId": "0x46f"
      },
      "additionalContracts": [],
      "isFixedGasLimit": false
    },
    {
      "hash": "0x2fe99d66a921ef6c660241240f6827220ca0ab486f8df724d4f9ce462412289a",
      "transactionType": "CALL",
      "contractName": null,
      "contractAddress": "0xe639110d69ec5b5c4eca926271fa2f82ee94a2d3",
      "function": "diamondCut((address,uint8,bytes4[])[],address,bytes)",
      "arguments": [
        "[(0xf398D745B7e40eA290EA6016e9ef37749f1EaE3B, 0, [0x4cf3ce60, 0xd9eb197c, 0x60261b90, 0xc9f333ee, 0x16554192, 0x5733e6ce, 0xf9649e8a])]",
        "0x0000000000000000000000000000000000000000",
        "0x"
      ],
      "transaction": {
        "from": "0x7d413f244a0e9a0b9c8d7f9afa1177ee3a2837fa",
        "to": "0xe639110d69ec5b5c4eca926271fa2f82ee94a2d3",
        "gas": "0x6c6e5",
        "value": "0x0",
        "input": "0x1f931c1c00000000000000000000000000000000000000000000000000000000000000600000000000000000000000000000000000000000000000000000000000000000000000000000000000000000000000000000000000000000000000000000020000000000000000000000000000000000000000000000000000000000000000010000000000000000000000000000000000000000000000000000000000000020000000000000000000000000f398d745b7e40ea290ea6016e9ef37749f1eae3b0000000000000000000000000000000000000000000000000000000000000000000000000000000000000000000000000000000000000000000000000000006000000000000000000000000000000000000000000000000000000000000000074cf3ce6000000000000000000000000000000000000000000000000000000000d9eb197c0000000000000000000000000000000000000000000000000000000060261b9000000000000000000000000000000000000000000000000000000000c9f333ee0000000000000000000000000000000000000000000000000000000016554192000000000000000000000000000000000000000000000000000000005733e6ce00000000000000000000000000000000000000000000000000000000f9649e8a000000000000000000000000000000000000000000000000000000000000000000000000000000000000000000000000000000000000000000000000",
        "nonce": "0x16",
        "chainId": "0x46f"
      },
      "additionalContracts": [],
      "isFixedGasLimit": false
    },
    {
      "hash": "0xc14f3c2b572da3c1fe555341ced11add5435e3731c9d473a7ea0a2b6babd511e",
      "transactionType": "CALL",
      "contractName": "BDRLS2024",
      "contractAddress": "0x18ebfca1075285708f911818655d22c21572d433",
      "function": "initialize(address)",
      "arguments": [
        "0x7D413F244A0e9A0b9C8D7F9AFA1177eE3a2837fa"
      ],
      "transaction": {
        "from": "0x7d413f244a0e9a0b9c8d7f9afa1177ee3a2837fa",
        "to": "0x18ebfca1075285708f911818655d22c21572d433",
        "gas": "0x2f867",
        "value": "0x0",
        "input": "0xc4d66de80000000000000000000000007d413f244a0e9a0b9c8d7f9afa1177ee3a2837fa",
        "nonce": "0x17",
        "chainId": "0x46f"
      },
      "additionalContracts": [],
      "isFixedGasLimit": false
    },
    {
      "hash": "0x4abb511907e17d6d97b84446a614247448e2b86dd8cf62ada517798ba961ca26",
      "transactionType": "CALL",
      "contractName": "BDRLS2024",
      "contractAddress": "0x18ebfca1075285708f911818655d22c21572d433",
      "function": "setBaseURI(string)",
      "arguments": [
        "ipfs://QmZm5ZFrYCaLsqjccShtPjq4DuEyvmm6qgu2W9NFs9giw1"
      ],
      "transaction": {
        "from": "0x7d413f244a0e9a0b9c8d7f9afa1177ee3a2837fa",
        "to": "0x18ebfca1075285708f911818655d22c21572d433",
        "gas": "0x20277",
        "value": "0x0",
        "input": "0x55f804b300000000000000000000000000000000000000000000000000000000000000200000000000000000000000000000000000000000000000000000000000000035697066733a2f2f516d5a6d355a46725943614c73716a6363536874506a713444754579766d6d367167753257394e467339676977310000000000000000000000",
        "nonce": "0x18",
        "chainId": "0x46f"
      },
      "additionalContracts": [],
      "isFixedGasLimit": false
    },
    {
      "hash": "0xec9e3cd0dfb81acb8c21c88e662f9fc3c3ebfae213aa77be3dc9b0519ef2c313",
      "transactionType": "CALL",
      "contractName": "BDRLS2024",
      "contractAddress": "0x18ebfca1075285708f911818655d22c21572d433",
      "function": "grantRole(bytes32,address)",
      "arguments": [
        "0x0000000000000000000000000000000000000000000000000000000000000000",
        "0xe639110D69ec5b5C4ECa926271fa2f82Ee94A2D3"
      ],
      "transaction": {
        "from": "0x7d413f244a0e9a0b9c8d7f9afa1177ee3a2837fa",
        "to": "0x18ebfca1075285708f911818655d22c21572d433",
        "gas": "0x11296",
        "value": "0x0",
        "input": "0x2f2ff15d0000000000000000000000000000000000000000000000000000000000000000000000000000000000000000e639110d69ec5b5c4eca926271fa2f82ee94a2d3",
        "nonce": "0x19",
        "chainId": "0x46f"
      },
      "additionalContracts": [],
      "isFixedGasLimit": false
    },
    {
      "hash": "0xf8a651919d14fe6c097402f0291be891d9e4cacb98df09a102a6785251dd5643",
      "transactionType": "CALL",
      "contractName": "BDRLS2024",
      "contractAddress": "0x18ebfca1075285708f911818655d22c21572d433",
      "function": "grantRole(bytes32,address)",
      "arguments": [
        "0x0000000000000000000000000000000000000000000000000000000000000000",
        "0xc408235a9A01767d70B41C98d92F2dC7B0d959f4"
      ],
      "transaction": {
        "from": "0x7d413f244a0e9a0b9c8d7f9afa1177ee3a2837fa",
        "to": "0x18ebfca1075285708f911818655d22c21572d433",
        "gas": "0x11296",
        "value": "0x0",
        "input": "0x2f2ff15d0000000000000000000000000000000000000000000000000000000000000000000000000000000000000000c408235a9a01767d70b41c98d92f2dc7b0d959f4",
        "nonce": "0x1a",
        "chainId": "0x46f"
      },
      "additionalContracts": [],
      "isFixedGasLimit": false
    },
    {
      "hash": "0x3e2be170a43cb93c7ba8d0b0d33e65a693488961d1c600a04cc24716259259b8",
      "transactionType": "CALL",
      "contractName": "BDRLS2024",
      "contractAddress": "0x18ebfca1075285708f911818655d22c21572d433",
      "function": "grantRole(bytes32,address)",
      "arguments": [
        "0x0000000000000000000000000000000000000000000000000000000000000000",
        "0x7D413F244A0e9A0b9C8D7F9AFA1177eE3a2837fa"
      ],
      "transaction": {
        "from": "0x7d413f244a0e9a0b9c8d7f9afa1177ee3a2837fa",
        "to": "0x18ebfca1075285708f911818655d22c21572d433",
        "gas": "0x98b3",
        "value": "0x0",
        "input": "0x2f2ff15d00000000000000000000000000000000000000000000000000000000000000000000000000000000000000007d413f244a0e9a0b9c8d7f9afa1177ee3a2837fa",
        "nonce": "0x1b",
        "chainId": "0x46f"
      },
      "additionalContracts": [],
      "isFixedGasLimit": false
    },
    {
      "hash": "0xdfb44bf563c55e46afc16ac243fc37f1ea074a47b0e4083da3755c08d5803c4c",
      "transactionType": "CALL",
      "contractName": null,
      "contractAddress": "0xe639110d69ec5b5c4eca926271fa2f82ee94a2d3",
      "function": "grantRole(bytes32,address)",
      "arguments": [
        "0x5b509f946c91f18f87114e5a89d1211d92a04277863d2533be167aa9bbf004d3",
        "0xc408235a9A01767d70B41C98d92F2dC7B0d959f4"
      ],
      "transaction": {
        "from": "0x7d413f244a0e9a0b9c8d7f9afa1177ee3a2837fa",
        "to": "0xe639110d69ec5b5c4eca926271fa2f82ee94a2d3",
        "gas": "0x1404d",
        "value": "0x0",
        "input": "0x2f2ff15d5b509f946c91f18f87114e5a89d1211d92a04277863d2533be167aa9bbf004d3000000000000000000000000c408235a9a01767d70b41c98d92f2dc7b0d959f4",
        "nonce": "0x1c",
        "chainId": "0x46f"
      },
      "additionalContracts": [],
      "isFixedGasLimit": false
    },
    {
      "hash": "0x91738d46db40a99fbc7fd75f9e8a986a00c54e4b624586547d7c95e60c0385cf",
      "transactionType": "CALL",
      "contractName": null,
      "contractAddress": "0xe639110d69ec5b5c4eca926271fa2f82ee94a2d3",
      "function": "grantRole(bytes32,address)",
      "arguments": [
        "0x5b509f946c91f18f87114e5a89d1211d92a04277863d2533be167aa9bbf004d3",
        "0x7D413F244A0e9A0b9C8D7F9AFA1177eE3a2837fa"
      ],
      "transaction": {
        "from": "0x7d413f244a0e9a0b9c8d7f9afa1177ee3a2837fa",
        "to": "0xe639110d69ec5b5c4eca926271fa2f82ee94a2d3",
        "gas": "0x1404d",
        "value": "0x0",
        "input": "0x2f2ff15d5b509f946c91f18f87114e5a89d1211d92a04277863d2533be167aa9bbf004d30000000000000000000000007d413f244a0e9a0b9c8d7f9afa1177ee3a2837fa",
        "nonce": "0x1d",
        "chainId": "0x46f"
      },
      "additionalContracts": [],
      "isFixedGasLimit": false
    },
    {
      "hash": "0xb625bfebf17c69e9a4fdfe6873a3bbd354fc29c23f3ccf3fe39702a9ca3794da",
      "transactionType": "CALL",
      "contractName": null,
      "contractAddress": "0xe639110d69ec5b5c4eca926271fa2f82ee94a2d3",
      "function": "setBDRLS2024NFT(address)",
      "arguments": [
        "0x18eBFCa1075285708F911818655d22C21572D433"
      ],
      "transaction": {
        "from": "0x7d413f244a0e9a0b9c8d7f9afa1177ee3a2837fa",
        "to": "0xe639110d69ec5b5c4eca926271fa2f82ee94a2d3",
        "gas": "0x1126a",
        "value": "0x0",
        "input": "0x4cf3ce6000000000000000000000000018ebfca1075285708f911818655d22c21572d433",
        "nonce": "0x1e",
        "chainId": "0x46f"
      },
      "additionalContracts": [],
      "isFixedGasLimit": false
    }
  ],
  "receipts": [
    {
      "status": "0x1",
      "cumulativeGasUsed": "0xa6c91",
      "logs": [],
      "logsBloom": "0x00000000000000000000000000000000000000000000000000000000000000000000000000000000000000000000000000000000000000000000000000000000000000000000000000000000000000000000000000000000000000000000000000000000000000000000000000000000000000000000000000000000000000000000000000000000000000000000000000000000000000000000000000000000000000000000000000000000000000000000000000000000000000000000000000000000000000000000000000000000000000000000000000000000000000000000000000000000000000000000000000000000000000000000000000000000",
      "type": "0x2",
      "transactionHash": "0x0742c4d5bf2849bfddf05c1b4efd492972092fe713acd335b1c977cbfcdd19d3",
      "transactionIndex": "0x1",
      "blockHash": "0x87eeeca75c01d35fefcceb5b69dbae173dc8db422e44b7eab613ac83df0850a5",
      "blockNumber": "0x77a89a",
      "gasUsed": "0x9c146",
      "effectiveGasPrice": "0x407",
      "from": "0x7d413f244a0e9a0b9c8d7f9afa1177ee3a2837fa",
      "to": null,
      "contractAddress": "0xf398d745b7e40ea290ea6016e9ef37749f1eae3b",
      "l1BaseFeeScalar": "0x60a4",
      "l1BlobBaseFee": "0x1ec78987",
      "l1BlobBaseFeeScalar": "0xc3a30",
      "l1Fee": "0x54dd0d9ce1c",
      "l1GasPrice": "0x26ca6cf01",
      "l1GasUsed": "0x505c"
    },
    {
      "status": "0x1",
      "cumulativeGasUsed": "0x32e191",
      "logs": [],
      "logsBloom": "0x00000000000000000000000000000000000000000000000000000000000000000000000000000000000000000000000000000000000000000000000000000000000000000000000000000000000000000000000000000000000000000000000000000000000000000000000000000000000000000000000000000000000000000000000000000000000000000000000000000000000000000000000000000000000000000000000000000000000000000000000000000000000000000000000000000000000000000000000000000000000000000000000000000000000000000000000000000000000000000000000000000000000000000000000000000000",
      "type": "0x2",
      "transactionHash": "0x49e6edb497d2b2bae36c012809db71af77919a6d8ccf0f6ad2e10280ff53387d",
      "transactionIndex": "0x2",
      "blockHash": "0x87eeeca75c01d35fefcceb5b69dbae173dc8db422e44b7eab613ac83df0850a5",
      "blockNumber": "0x77a89a",
      "gasUsed": "0x287500",
      "effectiveGasPrice": "0x407",
      "from": "0x7d413f244a0e9a0b9c8d7f9afa1177ee3a2837fa",
      "to": null,
      "contractAddress": "0x18ebfca1075285708f911818655d22c21572d433",
      "l1BaseFeeScalar": "0x60a4",
      "l1BlobBaseFee": "0x1ec78987",
      "l1BlobBaseFeeScalar": "0xc3a30",
      "l1Fee": "0x134e854ac690",
      "l1GasPrice": "0x26ca6cf01",
      "l1GasUsed": "0x12484"
    },
    {
      "status": "0x1",
      "cumulativeGasUsed": "0x3783d2",
      "logs": [
        {
          "address": "0xe639110d69ec5b5c4eca926271fa2f82ee94a2d3",
          "topics": [
            "0x8faa70878671ccd212d20771b795c50af8fd3ff6cf27f4bde57e5d4de0aeb673"
          ],
          "data": "0x00000000000000000000000000000000000000000000000000000000000000600000000000000000000000000000000000000000000000000000000000000000000000000000000000000000000000000000000000000000000000000000020000000000000000000000000000000000000000000000000000000000000000010000000000000000000000000000000000000000000000000000000000000020000000000000000000000000f398d745b7e40ea290ea6016e9ef37749f1eae3b0000000000000000000000000000000000000000000000000000000000000000000000000000000000000000000000000000000000000000000000000000006000000000000000000000000000000000000000000000000000000000000000074cf3ce6000000000000000000000000000000000000000000000000000000000d9eb197c0000000000000000000000000000000000000000000000000000000060261b9000000000000000000000000000000000000000000000000000000000c9f333ee0000000000000000000000000000000000000000000000000000000016554192000000000000000000000000000000000000000000000000000000005733e6ce00000000000000000000000000000000000000000000000000000000f9649e8a000000000000000000000000000000000000000000000000000000000000000000000000000000000000000000000000000000000000000000000000",
          "blockHash": "0x87eeeca75c01d35fefcceb5b69dbae173dc8db422e44b7eab613ac83df0850a5",
          "blockNumber": "0x77a89a",
          "transactionHash": "0x2fe99d66a921ef6c660241240f6827220ca0ab486f8df724d4f9ce462412289a",
          "transactionIndex": "0x3",
          "logIndex": "0x0",
          "removed": false
        }
      ],
      "logsBloom": "0x00000000000000000000000000000000000000000000000000000000000000000000000000000000000000000000000000000000000000000000000000000000000000000000000000000000000000000000000001000000000800000000000000000000000000000000000000000000000000000000000000000000000000000020000000000000010000000000000000000000000000000000000000000000000000000000000000000000000000000000000000000000000000000000000000000000000000000100000000000000000000000000000100000000000000000000000000000000000000000000000000000000000000000000000000000000",
      "type": "0x2",
      "transactionHash": "0x2fe99d66a921ef6c660241240f6827220ca0ab486f8df724d4f9ce462412289a",
      "transactionIndex": "0x3",
      "blockHash": "0x87eeeca75c01d35fefcceb5b69dbae173dc8db422e44b7eab613ac83df0850a5",
      "blockNumber": "0x77a89a",
      "gasUsed": "0x4a241",
      "effectiveGasPrice": "0x407",
      "from": "0x7d413f244a0e9a0b9c8d7f9afa1177ee3a2837fa",
      "to": "0xe639110d69ec5b5c4eca926271fa2f82ee94a2d3",
      "contractAddress": null,
      "l1BaseFeeScalar": "0x60a4",
      "l1BlobBaseFee": "0x1ec78987",
      "l1BlobBaseFeeScalar": "0xc3a30",
      "l1Fee": "0xa1bc83a963",
      "l1GasPrice": "0x26ca6cf01",
      "l1GasUsed": "0x992"
    },
    {
      "status": "0x1",
      "cumulativeGasUsed": "0x39aa57",
      "logs": [
        {
          "address": "0x18ebfca1075285708f911818655d22c21572d433",
          "topics": [
            "0x2f8788117e7eff1d82e926ec794901d17c78024a50270940304540a733656f0d",
            "0x0000000000000000000000000000000000000000000000000000000000000000",
            "0x0000000000000000000000007d413f244a0e9a0b9c8d7f9afa1177ee3a2837fa",
            "0x0000000000000000000000007d413f244a0e9a0b9c8d7f9afa1177ee3a2837fa"
          ],
          "data": "0x",
          "blockHash": "0x87eeeca75c01d35fefcceb5b69dbae173dc8db422e44b7eab613ac83df0850a5",
          "blockNumber": "0x77a89a",
          "transactionHash": "0xc14f3c2b572da3c1fe555341ced11add5435e3731c9d473a7ea0a2b6babd511e",
          "transactionIndex": "0x4",
          "logIndex": "0x1",
          "removed": false
        },
        {
          "address": "0x18ebfca1075285708f911818655d22c21572d433",
          "topics": [
            "0xc7f505b2f371ae2175ee4913f4499e1f2633a7b5936321eed1cdaeb6115181d2"
          ],
          "data": "0x0000000000000000000000000000000000000000000000000000000000000001",
          "blockHash": "0x87eeeca75c01d35fefcceb5b69dbae173dc8db422e44b7eab613ac83df0850a5",
          "blockNumber": "0x77a89a",
          "transactionHash": "0xc14f3c2b572da3c1fe555341ced11add5435e3731c9d473a7ea0a2b6babd511e",
          "transactionIndex": "0x4",
          "logIndex": "0x2",
          "removed": false
        }
      ],
      "logsBloom": "0x00000004000000000000000000000000000000000000000000000000000000000800000000000000000000008000000000000000000000000000000000000000000000000000000000000000000000000000000000000000000000000000000000000000020000000000000000000800000000000000000000000000000000000000000000000000000800000000000000000000000080000000000000000000000000000000000000000000000000000000000000000000001000000000000000400000000000000002000000000000000000000004000100000000000020000000000000000000000000000000000000000000000000000000400100000000",
      "type": "0x2",
      "transactionHash": "0xc14f3c2b572da3c1fe555341ced11add5435e3731c9d473a7ea0a2b6babd511e",
      "transactionIndex": "0x4",
      "blockHash": "0x87eeeca75c01d35fefcceb5b69dbae173dc8db422e44b7eab613ac83df0850a5",
      "blockNumber": "0x77a89a",
      "gasUsed": "0x22685",
      "effectiveGasPrice": "0x407",
      "from": "0x7d413f244a0e9a0b9c8d7f9afa1177ee3a2837fa",
      "to": "0x18ebfca1075285708f911818655d22c21572d433",
      "contractAddress": null,
      "l1BaseFeeScalar": "0x60a4",
      "l1BlobBaseFee": "0x1ec78987",
      "l1BlobBaseFeeScalar": "0xc3a30",
      "l1Fee": "0x699a50cfd3",
      "l1GasPrice": "0x26ca6cf01",
      "l1GasUsed": "0x640"
    },
    {
      "status": "0x1",
      "cumulativeGasUsed": "0x3b1ece",
      "logs": [
        {
          "address": "0x18ebfca1075285708f911818655d22c21572d433",
          "topics": [
            "0xc9c7c3fe08b88b4df9d4d47ef47d2c43d55c025a0ba88ca442580ed9e7348a16"
          ],
          "data": "0x0000000000000000000000000000000000000000000000000000000000000040000000000000000000000000000000000000000000000000000000000000006000000000000000000000000000000000000000000000000000000000000000000000000000000000000000000000000000000000000000000000000000000035697066733a2f2f516d5a6d355a46725943614c73716a6363536874506a713444754579766d6d367167753257394e467339676977310000000000000000000000",
          "blockHash": "0x87eeeca75c01d35fefcceb5b69dbae173dc8db422e44b7eab613ac83df0850a5",
          "blockNumber": "0x77a89a",
          "transactionHash": "0x4abb511907e17d6d97b84446a614247448e2b86dd8cf62ada517798ba961ca26",
          "transactionIndex": "0x5",
          "logIndex": "0x3",
          "removed": false
        }
      ],
      "logsBloom": "0x00000000000000000000000000000000000000000000000000000000000000000800000000000000000000000000000400000000000000000000000000000000000000000000000000000000000000000000000000000000000000000000000000000000000000000000000000000000000000000000000000000000000000000000000000000000000000000000000000000000000000000000000000000000000000000000000000000000000000000000000000000000000000000000000000400000000000000002000000000000000000000001000000000000000000000000000000000000400000000000000000000000000000000000000000000000",
      "type": "0x2",
      "transactionHash": "0x4abb511907e17d6d97b84446a614247448e2b86dd8cf62ada517798ba961ca26",
      "transactionIndex": "0x5",
      "blockHash": "0x87eeeca75c01d35fefcceb5b69dbae173dc8db422e44b7eab613ac83df0850a5",
      "blockNumber": "0x77a89a",
      "gasUsed": "0x17477",
      "effectiveGasPrice": "0x407",
      "from": "0x7d413f244a0e9a0b9c8d7f9afa1177ee3a2837fa",
      "to": "0x18ebfca1075285708f911818655d22c21572d433",
      "contractAddress": null,
      "l1BaseFeeScalar": "0x60a4",
      "l1BlobBaseFee": "0x1ec78987",
      "l1BlobBaseFeeScalar": "0xc3a30",
      "l1Fee": "0x7755b224df",
      "l1GasPrice": "0x26ca6cf01",
      "l1GasUsed": "0x710"
    },
    {
      "status": "0x1",
      "cumulativeGasUsed": "0x3be59b",
      "logs": [
        {
          "address": "0x18ebfca1075285708f911818655d22c21572d433",
          "topics": [
            "0x2f8788117e7eff1d82e926ec794901d17c78024a50270940304540a733656f0d",
            "0x0000000000000000000000000000000000000000000000000000000000000000",
            "0x000000000000000000000000e639110d69ec5b5c4eca926271fa2f82ee94a2d3",
            "0x0000000000000000000000007d413f244a0e9a0b9c8d7f9afa1177ee3a2837fa"
          ],
          "data": "0x",
          "blockHash": "0x87eeeca75c01d35fefcceb5b69dbae173dc8db422e44b7eab613ac83df0850a5",
          "blockNumber": "0x77a89a",
          "transactionHash": "0xec9e3cd0dfb81acb8c21c88e662f9fc3c3ebfae213aa77be3dc9b0519ef2c313",
          "transactionIndex": "0x6",
          "logIndex": "0x4",
          "removed": false
        }
      ],
      "logsBloom": "0x00000004000000000000000000000000000000000000000000000000000000000800000000000000000000008000000000000000000000000000000000000000000000000040000000000000000000000000000000000000000000000000000000000000020000000000000000400800000000000000000000000000000000000000000000000000000000000000000000000000000000000000000000000000000000000000000000000000000000000000000000000000001000000000000000400000000000000002000000000000000000000000000100000000000020000000000000000800000000000000000000000000000000000000400100000000",
      "type": "0x2",
      "transactionHash": "0xec9e3cd0dfb81acb8c21c88e662f9fc3c3ebfae213aa77be3dc9b0519ef2c313",
      "transactionIndex": "0x6",
      "blockHash": "0x87eeeca75c01d35fefcceb5b69dbae173dc8db422e44b7eab613ac83df0850a5",
      "blockNumber": "0x77a89a",
      "gasUsed": "0xc6cd",
      "effectiveGasPrice": "0x407",
      "from": "0x7d413f244a0e9a0b9c8d7f9afa1177ee3a2837fa",
      "to": "0x18ebfca1075285708f911818655d22c21572d433",
      "contractAddress": null,
      "l1BaseFeeScalar": "0x60a4",
      "l1BlobBaseFee": "0x1ec78987",
      "l1BlobBaseFeeScalar": "0xc3a30",
      "l1Fee": "0x699a50cfd3",
      "l1GasPrice": "0x26ca6cf01",
      "l1GasUsed": "0x640"
    },
    {
      "status": "0x1",
      "cumulativeGasUsed": "0x3cac68",
      "logs": [
        {
          "address": "0x18ebfca1075285708f911818655d22c21572d433",
          "topics": [
            "0x2f8788117e7eff1d82e926ec794901d17c78024a50270940304540a733656f0d",
            "0x0000000000000000000000000000000000000000000000000000000000000000",
            "0x000000000000000000000000c408235a9a01767d70b41c98d92f2dc7b0d959f4",
            "0x0000000000000000000000007d413f244a0e9a0b9c8d7f9afa1177ee3a2837fa"
          ],
          "data": "0x",
          "blockHash": "0x87eeeca75c01d35fefcceb5b69dbae173dc8db422e44b7eab613ac83df0850a5",
          "blockNumber": "0x77a89a",
          "transactionHash": "0xf8a651919d14fe6c097402f0291be891d9e4cacb98df09a102a6785251dd5643",
          "transactionIndex": "0x7",
          "logIndex": "0x5",
          "removed": false
        }
      ],
      "logsBloom": "0x00000004000000000000000000000000000000000000000000000000000000000800000000000000000000008000000000000000000000000000000000000000000000000000000000000000000000000000000000000000000000000000000000000000020000000000000000010800000000000000000000000000000000000000000000000000000000000000000000000000000000000000000000000000000000000000000000000000000000000000000000000000001000000000000000400000000000000002000000000000000000000000000100000000000020000000000000000000000400000000000000010000000000000000400100000000",
      "type": "0x2",
      "transactionHash": "0xf8a651919d14fe6c097402f0291be891d9e4cacb98df09a102a6785251dd5643",
      "transactionIndex": "0x7",
      "blockHash": "0x87eeeca75c01d35fefcceb5b69dbae173dc8db422e44b7eab613ac83df0850a5",
      "blockNumber": "0x77a89a",
      "gasUsed": "0xc6cd",
      "effectiveGasPrice": "0x407",
      "from": "0x7d413f244a0e9a0b9c8d7f9afa1177ee3a2837fa",
      "to": "0x18ebfca1075285708f911818655d22c21572d433",
      "contractAddress": null,
      "l1BaseFeeScalar": "0x60a4",
      "l1BlobBaseFee": "0x1ec78987",
      "l1BlobBaseFeeScalar": "0xc3a30",
      "l1Fee": "0x699a50cfd3",
      "l1GasPrice": "0x26ca6cf01",
      "l1GasUsed": "0x640"
    },
    {
      "status": "0x1",
      "cumulativeGasUsed": "0x3d14d1",
      "logs": [],
      "logsBloom": "0x00000000000000000000000000000000000000000000000000000000000000000000000000000000000000000000000000000000000000000000000000000000000000000000000000000000000000000000000000000000000000000000000000000000000000000000000000000000000000000000000000000000000000000000000000000000000000000000000000000000000000000000000000000000000000000000000000000000000000000000000000000000000000000000000000000000000000000000000000000000000000000000000000000000000000000000000000000000000000000000000000000000000000000000000000000000",
      "type": "0x2",
      "transactionHash": "0x3e2be170a43cb93c7ba8d0b0d33e65a693488961d1c600a04cc24716259259b8",
      "transactionIndex": "0x8",
      "blockHash": "0x87eeeca75c01d35fefcceb5b69dbae173dc8db422e44b7eab613ac83df0850a5",
      "blockNumber": "0x77a89a",
      "gasUsed": "0x6869",
      "effectiveGasPrice": "0x407",
      "from": "0x7d413f244a0e9a0b9c8d7f9afa1177ee3a2837fa",
      "to": "0x18ebfca1075285708f911818655d22c21572d433",
      "contractAddress": null,
      "l1BaseFeeScalar": "0x60a4",
      "l1BlobBaseFee": "0x1ec78987",
      "l1BlobBaseFeeScalar": "0xc3a30",
      "l1Fee": "0x699a50cfd3",
      "l1GasPrice": "0x26ca6cf01",
      "l1GasUsed": "0x640"
    },
    {
      "status": "0x1",
      "cumulativeGasUsed": "0x3defd4",
      "logs": [
        {
          "address": "0xe639110d69ec5b5c4eca926271fa2f82ee94a2d3",
          "topics": [
            "0x2f8788117e7eff1d82e926ec794901d17c78024a50270940304540a733656f0d",
            "0x5b509f946c91f18f87114e5a89d1211d92a04277863d2533be167aa9bbf004d3",
            "0x000000000000000000000000c408235a9a01767d70b41c98d92f2dc7b0d959f4",
            "0x0000000000000000000000007d413f244a0e9a0b9c8d7f9afa1177ee3a2837fa"
          ],
          "data": "0x",
          "blockHash": "0x87eeeca75c01d35fefcceb5b69dbae173dc8db422e44b7eab613ac83df0850a5",
          "blockNumber": "0x77a89a",
          "transactionHash": "0xdfb44bf563c55e46afc16ac243fc37f1ea074a47b0e4083da3755c08d5803c4c",
          "transactionIndex": "0x9",
          "logIndex": "0x6",
          "removed": false
        }
      ],
      "logsBloom": "0x00000004000000000000000000000000000000000000000000000000000000000040000000000000000000008000000000000000000000000000000000000000000000000000000000000000000000000000000000800000000000000000000000000000000000000000000000010000000000000000000000000000000000000000000000000000010000000000000000000000000000000000000000000000000000000000000000000000000000000400000000000000001000000000000000000000000000000100000000000000000000000000000100000000000000000000000000000000000400000000000000010000000000000000400100000000",
      "type": "0x2",
      "transactionHash": "0xdfb44bf563c55e46afc16ac243fc37f1ea074a47b0e4083da3755c08d5803c4c",
      "transactionIndex": "0x9",
      "blockHash": "0x87eeeca75c01d35fefcceb5b69dbae173dc8db422e44b7eab613ac83df0850a5",
      "blockNumber": "0x77a89a",
      "gasUsed": "0xdb03",
      "effectiveGasPrice": "0x407",
      "from": "0x7d413f244a0e9a0b9c8d7f9afa1177ee3a2837fa",
      "to": "0xe639110d69ec5b5c4eca926271fa2f82ee94a2d3",
      "contractAddress": null,
      "l1BaseFeeScalar": "0x60a4",
      "l1BlobBaseFee": "0x1ec78987",
      "l1BlobBaseFeeScalar": "0xc3a30",
      "l1Fee": "0x6bd9d96651",
      "l1GasPrice": "0x26ca6cf01",
      "l1GasUsed": "0x662"
    },
    {
      "status": "0x1",
      "cumulativeGasUsed": "0x3ecad7",
      "logs": [
        {
          "address": "0xe639110d69ec5b5c4eca926271fa2f82ee94a2d3",
          "topics": [
            "0x2f8788117e7eff1d82e926ec794901d17c78024a50270940304540a733656f0d",
            "0x5b509f946c91f18f87114e5a89d1211d92a04277863d2533be167aa9bbf004d3",
            "0x0000000000000000000000007d413f244a0e9a0b9c8d7f9afa1177ee3a2837fa",
            "0x0000000000000000000000007d413f244a0e9a0b9c8d7f9afa1177ee3a2837fa"
          ],
          "data": "0x",
          "blockHash": "0x87eeeca75c01d35fefcceb5b69dbae173dc8db422e44b7eab613ac83df0850a5",
          "blockNumber": "0x77a89a",
          "transactionHash": "0x91738d46db40a99fbc7fd75f9e8a986a00c54e4b624586547d7c95e60c0385cf",
          "transactionIndex": "0xa",
          "logIndex": "0x7",
          "removed": false
        }
      ],
      "logsBloom": "0x00000004000000000000000000000000000000000000000000000000000000000040000000000000000000008000000000000000000000000000000000000000000000000000000000000000000000000000000000800000000000000000000000000000000000000000000000000000000000000000000000000000000000000000000000000000010000000000000000000000000000000000000000000000000000000000000000000000000000000400000000000000001000000000000000000000000000000100000000000000000000000000000100000000000000000000000000000000000000000000000000000000000000000000400100000000",
      "type": "0x2",
      "transactionHash": "0x91738d46db40a99fbc7fd75f9e8a986a00c54e4b624586547d7c95e60c0385cf",
      "transactionIndex": "0xa",
      "blockHash": "0x87eeeca75c01d35fefcceb5b69dbae173dc8db422e44b7eab613ac83df0850a5",
      "blockNumber": "0x77a89a",
      "gasUsed": "0xdb03",
      "effectiveGasPrice": "0x407",
      "from": "0x7d413f244a0e9a0b9c8d7f9afa1177ee3a2837fa",
      "to": "0xe639110d69ec5b5c4eca926271fa2f82ee94a2d3",
      "contractAddress": null,
      "l1BaseFeeScalar": "0x60a4",
      "l1BlobBaseFee": "0x1ec78987",
      "l1BlobBaseFeeScalar": "0xc3a30",
      "l1Fee": "0x6bd9d96651",
      "l1GasPrice": "0x26ca6cf01",
      "l1GasUsed": "0x662"
    },
    {
      "status": "0x1",
      "cumulativeGasUsed": "0x3f9184",
      "logs": [],
      "logsBloom": "0x00000000000000000000000000000000000000000000000000000000000000000000000000000000000000000000000000000000000000000000000000000000000000000000000000000000000000000000000000000000000000000000000000000000000000000000000000000000000000000000000000000000000000000000000000000000000000000000000000000000000000000000000000000000000000000000000000000000000000000000000000000000000000000000000000000000000000000000000000000000000000000000000000000000000000000000000000000000000000000000000000000000000000000000000000000000",
      "type": "0x2",
      "transactionHash": "0xb625bfebf17c69e9a4fdfe6873a3bbd354fc29c23f3ccf3fe39702a9ca3794da",
      "transactionIndex": "0xb",
      "blockHash": "0x87eeeca75c01d35fefcceb5b69dbae173dc8db422e44b7eab613ac83df0850a5",
      "blockNumber": "0x77a89a",
      "gasUsed": "0xc6ad",
      "effectiveGasPrice": "0x407",
      "from": "0x7d413f244a0e9a0b9c8d7f9afa1177ee3a2837fa",
      "to": "0xe639110d69ec5b5c4eca926271fa2f82ee94a2d3",
      "contractAddress": null,
      "l1BaseFeeScalar": "0x60a4",
      "l1BlobBaseFee": "0x1ec78987",
      "l1BlobBaseFeeScalar": "0xc3a30",
      "l1Fee": "0x699a50cfd3",
      "l1GasPrice": "0x26ca6cf01",
      "l1GasUsed": "0x640"
    }
  ],
  "libraries": [],
  "pending": [],
  "returns": {},
  "timestamp": 1730412724,
  "chain": 1135,
  "commit": "cc54ab0"
}