{
  "transactions": [
    {
      "hash": "0xcdad04c1dce4edd36dad179240bc7da4f35c87a24bb8354872164cbedd96e554",
      "transactionType": "CALL",
      "contractName": null,
      "contractAddress": "0xe639110d69ec5b5c4eca926271fa2f82ee94a2d3",
      "function": "diamondCut((address,uint8,bytes4[])[],address,bytes)",
      "arguments": [
        "[(0x0000000000000000000000000000000000000000, 2, [0xfb139f54, 0x40599dcf, 0xdd8fe54e, 0xdae36df6])]",
        "0x0000000000000000000000000000000000000000",
        "0x"
      ],
      "transaction": {
        "from": "0x7d413f244a0e9a0b9c8d7f9afa1177ee3a2837fa",
        "to": "0xe639110d69ec5b5c4eca926271fa2f82ee94a2d3",
        "gas": "0x1a766",
        "value": "0x0",
        "input": "0x1f931c1c0000000000000000000000000000000000000000000000000000000000000060000000000000000000000000000000000000000000000000000000000000000000000000000000000000000000000000000000000000000000000000000001a0000000000000000000000000000000000000000000000000000000000000000100000000000000000000000000000000000000000000000000000000000000200000000000000000000000000000000000000000000000000000000000000000000000000000000000000000000000000000000000000000000000000000000200000000000000000000000000000000000000000000000000000000000000600000000000000000000000000000000000000000000000000000000000000004fb139f540000000000000000000000000000000000000000000000000000000040599dcf00000000000000000000000000000000000000000000000000000000dd8fe54e00000000000000000000000000000000000000000000000000000000dae36df6000000000000000000000000000000000000000000000000000000000000000000000000000000000000000000000000000000000000000000000000",
        "nonce": "0x4b",
        "chainId": "0x46f"
      },
      "additionalContracts": [],
      "isFixedGasLimit": false
    }
  ],
  "receipts": [
    {
      "status": "0x1",
      "cumulativeGasUsed": "0x1ccf0",
      "logs": [
        {
          "address": "0xe639110d69ec5b5c4eca926271fa2f82ee94a2d3",
          "topics": [
            "0x8faa70878671ccd212d20771b795c50af8fd3ff6cf27f4bde57e5d4de0aeb673"
          ],
          "data": "0x0000000000000000000000000000000000000000000000000000000000000060000000000000000000000000000000000000000000000000000000000000000000000000000000000000000000000000000000000000000000000000000001a0000000000000000000000000000000000000000000000000000000000000000100000000000000000000000000000000000000000000000000000000000000200000000000000000000000000000000000000000000000000000000000000000000000000000000000000000000000000000000000000000000000000000000200000000000000000000000000000000000000000000000000000000000000600000000000000000000000000000000000000000000000000000000000000004fb139f540000000000000000000000000000000000000000000000000000000040599dcf00000000000000000000000000000000000000000000000000000000dd8fe54e00000000000000000000000000000000000000000000000000000000dae36df6000000000000000000000000000000000000000000000000000000000000000000000000000000000000000000000000000000000000000000000000",
          "blockHash": "0xb80986b01d273d4afb73e0436db431e033b615504dbd0ad713c691ac6652c7b5",
          "blockNumber": "0x8917d6",
          "transactionHash": "0xcdad04c1dce4edd36dad179240bc7da4f35c87a24bb8354872164cbedd96e554",
          "transactionIndex": "0x1",
          "logIndex": "0x0",
          "removed": false
        }
      ],
      "logsBloom": "0x00000000000000000000000000000000000000000000000000000000000000000000000000000000000000000000000000000000000000000000000000000000000000000000000000000000000000000000000001000000000800000000000000000000000000000000000000000000000000000000000000000000000000000020000000000000010000000000000000000000000000000000000000000000000000000000000000000000000000000000000000000000000000000000000000000000000000000100000000000000000000000000000100000000000000000000000000000000000000000000000000000000000000000000000000000000",
      "type": "0x2",
      "transactionHash": "0xcdad04c1dce4edd36dad179240bc7da4f35c87a24bb8354872164cbedd96e554",
      "transactionIndex": "0x1",
      "blockHash": "0xb80986b01d273d4afb73e0436db431e033b615504dbd0ad713c691ac6652c7b5",
      "blockNumber": "0x8917d6",
      "gasUsed": "0x12181",
      "effectiveGasPrice": "0x100792",
      "from": "0x7d413f244a0e9a0b9c8d7f9afa1177ee3a2837fa",
      "to": "0xe639110d69ec5b5c4eca926271fa2f82ee94a2d3",
      "contractAddress": null,
      "l1BaseFeeScalar": "0x60a4",
      "l1BlobBaseFee": "0x214b31c7",
      "l1BlobBaseFeeScalar": "0xc3a30",
      "l1Fee": "0x7a9ec2baaf",
      "l1GasPrice": "0x245864d6a",
      "l1GasUsed": "0x7a3"
    }
  ],
  "libraries": [],
  "pending": [],
  "returns": {},
  "timestamp": 1732697860,
  "chain": 1135,
  "commit": "d4d5db7"
}