{
  "transactions": [
    {
      "hash": "0x3ffb3255fcba802ae214b78265724929be8f7e3df5b5edf3d7bf17dba7da4637",
      "transactionType": "CALL",
      "contractName": null,
      "contractAddress": "0xe639110d69ec5b5c4eca926271fa2f82ee94a2d3",
      "function": "diamondCut((address,uint8,bytes4[])[],address,bytes)",
      "arguments": [
        "[(0x0000000000000000000000000000000000000000, 2, [0x059fa3e5, 0xf5f03e46, 0x3d3a0188, 0x3cef5c38, 0x6f1537fb, 0xce715db4, 0xb7af5e31]), (0x0000000000000000000000000000000000000000, 2, [0xb4313e68, 0x5ac450cf, 0xb6c0a1e1, 0x3348d7bd]), (0x0000000000000000000000000000000000000000, 2, [0x4cf3ce60, 0xd9eb197c, 0x60261b90, 0xc9f333ee, 0x16554192, 0x5733e6ce, 0xf9649e8a])]",
        "0x0000000000000000000000000000000000000000",
        "0x"
      ],
      "transaction": {
        "from": "0x7d413f244a0e9a0b9c8d7f9afa1177ee3a2837fa",
        "to": "0xe639110d69ec5b5c4eca926271fa2f82ee94a2d3",
        "gas": "0x464ee",
        "value": "0x0",
        "input": "0x1f931c1c0000000000000000000000000000000000000000000000000000000000000060000000000000000000000000000000000000000000000000000000000000000000000000000000000000000000000000000000000000000000000000000004a00000000000000000000000000000000000000000000000000000000000000003000000000000000000000000000000000000000000000000000000000000006000000000000000000000000000000000000000000000000000000000000001c000000000000000000000000000000000000000000000000000000000000002c00000000000000000000000000000000000000000000000000000000000000000000000000000000000000000000000000000000000000000000000000000000200000000000000000000000000000000000000000000000000000000000000600000000000000000000000000000000000000000000000000000000000000007059fa3e500000000000000000000000000000000000000000000000000000000f5f03e46000000000000000000000000000000000000000000000000000000003d3a0188000000000000000000000000000000000000000000000000000000003cef5c38000000000000000000000000000000000000000000000000000000006f1537fb00000000000000000000000000000000000000000000000000000000ce715db400000000000000000000000000000000000000000000000000000000b7af5e31000000000000000000000000000000000000000000000000000000000000000000000000000000000000000000000000000000000000000000000000000000000000000000000000000000000000000000000000000000000000000200000000000000000000000000000000000000000000000000000000000000600000000000000000000000000000000000000000000000000000000000000004b4313e68000000000000000000000000000000000000000000000000000000005ac450cf00000000000000000000000000000000000000000000000000000000b6c0a1e1000000000000000000000000000000000000000000000000000000003348d7bd0000000000000000000000000000000000000000000000000000000000000000000000000000000000000000000000000000000000000000000000000000000000000000000000000000000000000000000000000000000000000002000000000000000000000000000000000000000000000000000000000000006000000000000000000000000000000000000000000000000000000000000000074cf3ce6000000000000000000000000000000000000000000000000000000000d9eb197c0000000000000000000000000000000000000000000000000000000060261b9000000000000000000000000000000000000000000000000000000000c9f333ee0000000000000000000000000000000000000000000000000000000016554192000000000000000000000000000000000000000000000000000000005733e6ce00000000000000000000000000000000000000000000000000000000f9649e8a000000000000000000000000000000000000000000000000000000000000000000000000000000000000000000000000000000000000000000000000",
        "nonce": "0x3b",
        "chainId": "0x46f"
      },
      "additionalContracts": [],
      "isFixedGasLimit": false
    }
  ],
  "receipts": [
    {
      "status": "0x1",
      "cumulativeGasUsed": "0x3d9c6",
      "logs": [
        {
          "address": "0xe639110d69ec5b5c4eca926271fa2f82ee94a2d3",
          "topics": [
            "0x8faa70878671ccd212d20771b795c50af8fd3ff6cf27f4bde57e5d4de0aeb673"
          ],
          "data": "0x0000000000000000000000000000000000000000000000000000000000000060000000000000000000000000000000000000000000000000000000000000000000000000000000000000000000000000000000000000000000000000000004a00000000000000000000000000000000000000000000000000000000000000003000000000000000000000000000000000000000000000000000000000000006000000000000000000000000000000000000000000000000000000000000001c000000000000000000000000000000000000000000000000000000000000002c00000000000000000000000000000000000000000000000000000000000000000000000000000000000000000000000000000000000000000000000000000000200000000000000000000000000000000000000000000000000000000000000600000000000000000000000000000000000000000000000000000000000000007059fa3e500000000000000000000000000000000000000000000000000000000f5f03e46000000000000000000000000000000000000000000000000000000003d3a0188000000000000000000000000000000000000000000000000000000003cef5c38000000000000000000000000000000000000000000000000000000006f1537fb00000000000000000000000000000000000000000000000000000000ce715db400000000000000000000000000000000000000000000000000000000b7af5e31000000000000000000000000000000000000000000000000000000000000000000000000000000000000000000000000000000000000000000000000000000000000000000000000000000000000000000000000000000000000000200000000000000000000000000000000000000000000000000000000000000600000000000000000000000000000000000000000000000000000000000000004b4313e68000000000000000000000000000000000000000000000000000000005ac450cf00000000000000000000000000000000000000000000000000000000b6c0a1e1000000000000000000000000000000000000000000000000000000003348d7bd0000000000000000000000000000000000000000000000000000000000000000000000000000000000000000000000000000000000000000000000000000000000000000000000000000000000000000000000000000000000000002000000000000000000000000000000000000000000000000000000000000006000000000000000000000000000000000000000000000000000000000000000074cf3ce6000000000000000000000000000000000000000000000000000000000d9eb197c0000000000000000000000000000000000000000000000000000000060261b9000000000000000000000000000000000000000000000000000000000c9f333ee0000000000000000000000000000000000000000000000000000000016554192000000000000000000000000000000000000000000000000000000005733e6ce00000000000000000000000000000000000000000000000000000000f9649e8a000000000000000000000000000000000000000000000000000000000000000000000000000000000000000000000000000000000000000000000000",
          "blockHash": "0x2f7e510336dcd7f538386b3d0536495f919b83e23e1dcde0e3ad36040c3de5b3",
          "blockNumber": "0x80c37d",
          "transactionHash": "0x3ffb3255fcba802ae214b78265724929be8f7e3df5b5edf3d7bf17dba7da4637",
          "transactionIndex": "0x1",
          "logIndex": "0x0",
          "removed": false
        }
      ],
      "logsBloom": "0x00000000000000000000000000000000000000000000000000000000000000000000000000000000000000000000000000000000000000000000000000000000000000000000000000000000000000000000000001000000000800000000000000000000000000000000000000000000000000000000000000000000000000000020000000000000010000000000000000000000000000000000000000000000000000000000000000000000000000000000000000000000000000000000000000000000000000000100000000000000000000000000000100000000000000000000000000000000000000000000000000000000000000000000000000000000",
      "type": "0x2",
      "transactionHash": "0x3ffb3255fcba802ae214b78265724929be8f7e3df5b5edf3d7bf17dba7da4637",
      "transactionIndex": "0x1",
      "blockHash": "0x2f7e510336dcd7f538386b3d0536495f919b83e23e1dcde0e3ad36040c3de5b3",
      "blockNumber": "0x80c37d",
      "gasUsed": "0x32e6f",
      "effectiveGasPrice": "0x5f5e506",
      "from": "0x7d413f244a0e9a0b9c8d7f9afa1177ee3a2837fa",
      "to": "0xe639110d69ec5b5c4eca926271fa2f82ee94a2d3",
      "contractAddress": null,
      "l1BaseFeeScalar": "0x60a4",
      "l1BlobBaseFee": "0x65d7",
      "l1BlobBaseFeeScalar": "0xc3a30",
      "l1Fee": "0x27771794381",
      "l1GasPrice": "0x67bfe739b",
      "l1GasUsed": "0xf60"
    }
  ],
  "libraries": [],
  "pending": [],
  "returns": {},
  "timestamp": 1731606097,
  "chain": 1135,
  "commit": "d4d5db7"
}