{
  "transactions": [
    {
      "hash": "0x23795703bd9a6cd77f31fd5d3d03ef07054f42e92f4b241a6b47d651e357eecc",
      "transactionType": "CALL",
      "contractName": null,
      "contractAddress": "0xe639110d69ec5b5c4eca926271fa2f82ee94a2d3",
      "function": "diamondCut((address,uint8,bytes4[])[],address,bytes)",
      "arguments": [
        "[(0x0000000000000000000000000000000000000000, 2, [0x26e395eb, 0xf3839ad4, 0x9df05287, 0x6fd261de])]",
        "0x0000000000000000000000000000000000000000",
        "0x"
      ],
      "transaction": {
        "from": "0x7d413f244a0e9a0b9c8d7f9afa1177ee3a2837fa",
        "to": "0xe639110d69ec5b5c4eca926271fa2f82ee94a2d3",
        "gas": "0x1a766",
        "value": "0x0",
        "input": "0x1f931c1c0000000000000000000000000000000000000000000000000000000000000060000000000000000000000000000000000000000000000000000000000000000000000000000000000000000000000000000000000000000000000000000001a000000000000000000000000000000000000000000000000000000000000000010000000000000000000000000000000000000000000000000000000000000020000000000000000000000000000000000000000000000000000000000000000000000000000000000000000000000000000000000000000000000000000000020000000000000000000000000000000000000000000000000000000000000060000000000000000000000000000000000000000000000000000000000000000426e395eb00000000000000000000000000000000000000000000000000000000f3839ad4000000000000000000000000000000000000000000000000000000009df05287000000000000000000000000000000000000000000000000000000006fd261de000000000000000000000000000000000000000000000000000000000000000000000000000000000000000000000000000000000000000000000000",
        "nonce": "0x3c",
        "chainId": "0x46f"
      },
      "additionalContracts": [],
      "isFixedGasLimit": false
    }
  ],
  "receipts": [
    {
      "status": "0x1",
      "cumulativeGasUsed": "0x1f8a4",
      "logs": [
        {
          "address": "0xe639110d69ec5b5c4eca926271fa2f82ee94a2d3",
          "topics": [
            "0x8faa70878671ccd212d20771b795c50af8fd3ff6cf27f4bde57e5d4de0aeb673"
          ],
          "data": "0x0000000000000000000000000000000000000000000000000000000000000060000000000000000000000000000000000000000000000000000000000000000000000000000000000000000000000000000000000000000000000000000001a000000000000000000000000000000000000000000000000000000000000000010000000000000000000000000000000000000000000000000000000000000020000000000000000000000000000000000000000000000000000000000000000000000000000000000000000000000000000000000000000000000000000000020000000000000000000000000000000000000000000000000000000000000060000000000000000000000000000000000000000000000000000000000000000426e395eb00000000000000000000000000000000000000000000000000000000f3839ad4000000000000000000000000000000000000000000000000000000009df05287000000000000000000000000000000000000000000000000000000006fd261de000000000000000000000000000000000000000000000000000000000000000000000000000000000000000000000000000000000000000000000000",
          "blockHash": "0x03a3032fb36bd7f1127362d57c7814665696ec314324c0e184a5efc190413d50",
          "blockNumber": "0x81d4f9",
          "transactionHash": "0x23795703bd9a6cd77f31fd5d3d03ef07054f42e92f4b241a6b47d651e357eecc",
          "transactionIndex": "0x1",
          "logIndex": "0x0",
          "removed": false
        }
      ],
      "logsBloom": "0x00000000000000000000000000000000000000000000000000000000000000000000000000000000000000000000000000000000000000000000000000000000000000000000000000000000000000000000000001000000000800000000000000000000000000000000000000000000000000000000000000000000000000000020000000000000010000000000000000000000000000000000000000000000000000000000000000000000000000000000000000000000000000000000000000000000000000000100000000000000000000000000000100000000000000000000000000000000000000000000000000000000000000000000000000000000",
      "type": "0x2",
      "transactionHash": "0x23795703bd9a6cd77f31fd5d3d03ef07054f42e92f4b241a6b47d651e357eecc",
      "transactionIndex": "0x1",
      "blockHash": "0x03a3032fb36bd7f1127362d57c7814665696ec314324c0e184a5efc190413d50",
      "blockNumber": "0x81d4f9",
      "gasUsed": "0x12181",
      "effectiveGasPrice": "0x407",
      "from": "0x7d413f244a0e9a0b9c8d7f9afa1177ee3a2837fa",
      "to": "0xe639110d69ec5b5c4eca926271fa2f82ee94a2d3",
      "contractAddress": null,
      "l1BaseFeeScalar": "0x60a4",
      "l1BlobBaseFee": "0xed15d41e",
      "l1BlobBaseFeeScalar": "0xc3a30",
      "l1Fee": "0xd355cdd9da",
      "l1GasPrice": "0x29df39e5d",
      "l1GasUsed": "0x76d"
    }
  ],
  "libraries": [],
  "pending": [],
  "returns": {},
  "timestamp": 1731746121,
  "chain": 1135,
  "commit": "d4d5db7"
}