{
  "transactions": [
    {
      "hash": "0xce9a76dcbe4fa147d6974d30bffba9836d7dec1e444a71620be3ec4ed719f0f1",
      "transactionType": "CALL",
      "contractName": null,
      "contractAddress": "0xfa8c40cf7eac88a9da6d002c44c284be844b020c",
      "function": "diamondCut((address,uint8,bytes4[])[],address,bytes)",
      "arguments": [
        "[(0x0000000000000000000000000000000000000000, 2, [0x26e395eb, 0xf3839ad4, 0x9df05287, 0x6fd261de])]",
        "0x0000000000000000000000000000000000000000",
        "0x"
      ],
      "transaction": {
        "from": "0xfb0c1e0a4ded6df74e5caa07924aa3f8272ad0b8",
        "to": "0xfa8c40cf7eac88a9da6d002c44c284be844b020c",
        "gas": "0x1a766",
        "value": "0x0",
        "input": "0x1f931c1c0000000000000000000000000000000000000000000000000000000000000060000000000000000000000000000000000000000000000000000000000000000000000000000000000000000000000000000000000000000000000000000001a000000000000000000000000000000000000000000000000000000000000000010000000000000000000000000000000000000000000000000000000000000020000000000000000000000000000000000000000000000000000000000000000000000000000000000000000000000000000000000000000000000000000000020000000000000000000000000000000000000000000000000000000000000060000000000000000000000000000000000000000000000000000000000000000426e395eb00000000000000000000000000000000000000000000000000000000f3839ad4000000000000000000000000000000000000000000000000000000009df05287000000000000000000000000000000000000000000000000000000006fd261de000000000000000000000000000000000000000000000000000000000000000000000000000000000000000000000000000000000000000000000000",
        "nonce": "0xbb",
        "chainId": "0x106a"
      },
      "additionalContracts": [],
      "isFixedGasLimit": false
    }
  ],
  "receipts": [
    {
      "status": "0x1",
      "cumulativeGasUsed": "0x1cca8",
      "logs": [
        {
          "address": "0xfa8c40cf7eac88a9da6d002c44c284be844b020c",
          "topics": [
            "0x8faa70878671ccd212d20771b795c50af8fd3ff6cf27f4bde57e5d4de0aeb673"
          ],
          "data": "0x0000000000000000000000000000000000000000000000000000000000000060000000000000000000000000000000000000000000000000000000000000000000000000000000000000000000000000000000000000000000000000000001a000000000000000000000000000000000000000000000000000000000000000010000000000000000000000000000000000000000000000000000000000000020000000000000000000000000000000000000000000000000000000000000000000000000000000000000000000000000000000000000000000000000000000020000000000000000000000000000000000000000000000000000000000000060000000000000000000000000000000000000000000000000000000000000000426e395eb00000000000000000000000000000000000000000000000000000000f3839ad4000000000000000000000000000000000000000000000000000000009df05287000000000000000000000000000000000000000000000000000000006fd261de000000000000000000000000000000000000000000000000000000000000000000000000000000000000000000000000000000000000000000000000",
          "blockHash": "0x630172dfb761834576664d20e360480b781813ea9ce13d0a08661e9b9b21a493",
          "blockNumber": "0xc9aa9e",
          "transactionHash": "0xce9a76dcbe4fa147d6974d30bffba9836d7dec1e444a71620be3ec4ed719f0f1",
          "transactionIndex": "0x1",
          "logIndex": "0x0",
          "removed": false
        }
      ],
      "logsBloom": "0x00000000000000000000000000000000010000000000000000000000000000000000000000000000000000000000000000000000000000000000000000000000000000000000000000000000000000000000000001000000000800000000000000000000000000000000000000000000000000000000000000000000000000000020000000000000000000000000000000000000000000000000000000000000000000000000000000000000000000020000000000000000000000000000000000000000000000000000000000000000000200000000000000000000000000000000000000000000000000000000000000000000000000000000000000000000",
      "type": "0x2",
      "transactionHash": "0xce9a76dcbe4fa147d6974d30bffba9836d7dec1e444a71620be3ec4ed719f0f1",
      "transactionIndex": "0x1",
      "blockHash": "0x630172dfb761834576664d20e360480b781813ea9ce13d0a08661e9b9b21a493",
      "blockNumber": "0xc9aa9e",
      "gasUsed": "0x12181",
      "effectiveGasPrice": "0xfe",
      "from": "0xfb0c1e0a4ded6df74e5caa07924aa3f8272ad0b8",
      "to": "0xfa8c40cf7eac88a9da6d002c44c284be844b020c",
      "contractAddress": null,
      "l1BaseFeeScalar": "0x2af8",
      "l1BlobBaseFee": "0x1",
      "l1BlobBaseFeeScalar": "0x109618",
      "l1Fee": "0x54bd16cc8",
      "l1GasPrice": "0x405bfad5",
      "l1GasUsed": "0x77b"
    }
  ],
  "libraries": [],
  "pending": [],
  "returns": {},
  "timestamp": 1731745821,
  "chain": 4202,
  "commit": "d4d5db7"
}