{
  "transactions": [
    {
      "hash": "0x85589e9014598564e6532f22b1f8c792af2fcb5d8c6944d26e9a627b987cd066",
      "transactionType": "CALL",
      "contractName": null,
      "contractAddress": "0xfa8c40cf7eac88a9da6d002c44c284be844b020c",
      "function": "diamondCut((address,uint8,bytes4[])[],address,bytes)",
      "arguments": [
        "[(0x0000000000000000000000000000000000000000, 2, [0x059fa3e5, 0xf5f03e46, 0x3d3a0188, 0x3cef5c38, 0x6f1537fb, 0xce715db4, 0xb7af5e31]), (0x0000000000000000000000000000000000000000, 2, [0xb4313e68, 0x5ac450cf, 0xb6c0a1e1, 0x3348d7bd]), (0x0000000000000000000000000000000000000000, 2, [0x4cf3ce60, 0xd9eb197c, 0x60261b90, 0xc9f333ee, 0x16554192, 0x5733e6ce, 0xf9649e8a])]",
        "0x0000000000000000000000000000000000000000",
        "0x"
      ],
      "transaction": {
        "from": "0xfb0c1e0a4ded6df74e5caa07924aa3f8272ad0b8",
        "to": "0xfa8c40cf7eac88a9da6d002c44c284be844b020c",
        "gas": "0x469b8",
        "value": "0x0",
        "input": "0x1f931c1c0000000000000000000000000000000000000000000000000000000000000060000000000000000000000000000000000000000000000000000000000000000000000000000000000000000000000000000000000000000000000000000004a00000000000000000000000000000000000000000000000000000000000000003000000000000000000000000000000000000000000000000000000000000006000000000000000000000000000000000000000000000000000000000000001c000000000000000000000000000000000000000000000000000000000000002c00000000000000000000000000000000000000000000000000000000000000000000000000000000000000000000000000000000000000000000000000000000200000000000000000000000000000000000000000000000000000000000000600000000000000000000000000000000000000000000000000000000000000007059fa3e500000000000000000000000000000000000000000000000000000000f5f03e46000000000000000000000000000000000000000000000000000000003d3a0188000000000000000000000000000000000000000000000000000000003cef5c38000000000000000000000000000000000000000000000000000000006f1537fb00000000000000000000000000000000000000000000000000000000ce715db400000000000000000000000000000000000000000000000000000000b7af5e31000000000000000000000000000000000000000000000000000000000000000000000000000000000000000000000000000000000000000000000000000000000000000000000000000000000000000000000000000000000000000200000000000000000000000000000000000000000000000000000000000000600000000000000000000000000000000000000000000000000000000000000004b4313e68000000000000000000000000000000000000000000000000000000005ac450cf00000000000000000000000000000000000000000000000000000000b6c0a1e1000000000000000000000000000000000000000000000000000000003348d7bd0000000000000000000000000000000000000000000000000000000000000000000000000000000000000000000000000000000000000000000000000000000000000000000000000000000000000000000000000000000000000002000000000000000000000000000000000000000000000000000000000000006000000000000000000000000000000000000000000000000000000000000000074cf3ce6000000000000000000000000000000000000000000000000000000000d9eb197c0000000000000000000000000000000000000000000000000000000060261b9000000000000000000000000000000000000000000000000000000000c9f333ee0000000000000000000000000000000000000000000000000000000016554192000000000000000000000000000000000000000000000000000000005733e6ce00000000000000000000000000000000000000000000000000000000f9649e8a000000000000000000000000000000000000000000000000000000000000000000000000000000000000000000000000000000000000000000000000",
        "nonce": "0xb9",
        "chainId": "0x106a"
      },
      "additionalContracts": [],
      "isFixedGasLimit": false
    }
  ],
  "receipts": [
    {
      "status": "0x1",
      "cumulativeGasUsed": "0x3dd25",
      "logs": [
        {
          "address": "0xfa8c40cf7eac88a9da6d002c44c284be844b020c",
          "topics": [
            "0x8faa70878671ccd212d20771b795c50af8fd3ff6cf27f4bde57e5d4de0aeb673"
          ],
          "data": "0x0000000000000000000000000000000000000000000000000000000000000060000000000000000000000000000000000000000000000000000000000000000000000000000000000000000000000000000000000000000000000000000004a00000000000000000000000000000000000000000000000000000000000000003000000000000000000000000000000000000000000000000000000000000006000000000000000000000000000000000000000000000000000000000000001c000000000000000000000000000000000000000000000000000000000000002c00000000000000000000000000000000000000000000000000000000000000000000000000000000000000000000000000000000000000000000000000000000200000000000000000000000000000000000000000000000000000000000000600000000000000000000000000000000000000000000000000000000000000007059fa3e500000000000000000000000000000000000000000000000000000000f5f03e46000000000000000000000000000000000000000000000000000000003d3a0188000000000000000000000000000000000000000000000000000000003cef5c38000000000000000000000000000000000000000000000000000000006f1537fb00000000000000000000000000000000000000000000000000000000ce715db400000000000000000000000000000000000000000000000000000000b7af5e31000000000000000000000000000000000000000000000000000000000000000000000000000000000000000000000000000000000000000000000000000000000000000000000000000000000000000000000000000000000000000200000000000000000000000000000000000000000000000000000000000000600000000000000000000000000000000000000000000000000000000000000004b4313e68000000000000000000000000000000000000000000000000000000005ac450cf00000000000000000000000000000000000000000000000000000000b6c0a1e1000000000000000000000000000000000000000000000000000000003348d7bd0000000000000000000000000000000000000000000000000000000000000000000000000000000000000000000000000000000000000000000000000000000000000000000000000000000000000000000000000000000000000002000000000000000000000000000000000000000000000000000000000000006000000000000000000000000000000000000000000000000000000000000000074cf3ce6000000000000000000000000000000000000000000000000000000000d9eb197c0000000000000000000000000000000000000000000000000000000060261b9000000000000000000000000000000000000000000000000000000000c9f333ee0000000000000000000000000000000000000000000000000000000016554192000000000000000000000000000000000000000000000000000000005733e6ce00000000000000000000000000000000000000000000000000000000f9649e8a000000000000000000000000000000000000000000000000000000000000000000000000000000000000000000000000000000000000000000000000",
          "blockHash": "0xa5bb7aeb6fa81b10aea4aaf161ec24c399c3d0c74fd5c8d89477f2cb0487e982",
          "blockNumber": "0xc898e7",
          "transactionHash": "0x85589e9014598564e6532f22b1f8c792af2fcb5d8c6944d26e9a627b987cd066",
          "transactionIndex": "0x1",
          "logIndex": "0x0",
          "removed": false
        }
      ],
      "logsBloom": "0x00000000000000000000000000000000010000000000000000000000000000000000000000000000000000000000000000000000000000000000000000000000000000000000000000000000000000000000000001000000000800000000000000000000000000000000000000000000000000000000000000000000000000000020000000000000000000000000000000000000000000000000000000000000000000000000000000000000000000020000000000000000000000000000000000000000000000000000000000000000000200000000000000000000000000000000000000000000000000000000000000000000000000000000000000000000",
      "type": "0x2",
      "transactionHash": "0x85589e9014598564e6532f22b1f8c792af2fcb5d8c6944d26e9a627b987cd066",
      "transactionIndex": "0x1",
      "blockHash": "0xa5bb7aeb6fa81b10aea4aaf161ec24c399c3d0c74fd5c8d89477f2cb0487e982",
      "blockNumber": "0xc898e7",
      "gasUsed": "0x331e6",
      "effectiveGasPrice": "0xfe",
      "from": "0xfb0c1e0a4ded6df74e5caa07924aa3f8272ad0b8",
      "to": "0xfa8c40cf7eac88a9da6d002c44c284be844b020c",
      "contractAddress": null,
      "l1BaseFeeScalar": "0x2af8",
      "l1BlobBaseFee": "0x22c",
      "l1BlobBaseFeeScalar": "0x109618",
      "l1Fee": "0x963663dea",
      "l1GasPrice": "0x38781d0f",
      "l1GasUsed": "0xf1d"
    }
  ],
  "libraries": [],
  "pending": [],
  "returns": {},
  "timestamp": 1731605678,
  "chain": 4202,
  "commit": "d4d5db7"
}