{
  "transactions": [
    {
      "hash": "0xeee88d9fa63c57a3e421f526ef95a3b6a23682be038c23cf1f4df898dbdc8548",
      "transactionType": "CALL",
      "contractName": null,
      "contractAddress": "0xfa8c40cf7eac88a9da6d002c44c284be844b020c",
      "function": "diamondCut((address,uint8,bytes4[])[],address,bytes)",
      "arguments": [
        "[(0x0000000000000000000000000000000000000000, 2, [0xfb139f54, 0x40599dcf, 0xdd8fe54e, 0xdae36df6])]",
        "0x0000000000000000000000000000000000000000",
        "0x"
      ],
      "transaction": {
        "from": "0xfb0c1e0a4ded6df74e5caa07924aa3f8272ad0b8",
        "to": "0xfa8c40cf7eac88a9da6d002c44c284be844b020c",
        "gas": "0x1a766",
        "value": "0x0",
        "input": "0x1f931c1c0000000000000000000000000000000000000000000000000000000000000060000000000000000000000000000000000000000000000000000000000000000000000000000000000000000000000000000000000000000000000000000001a0000000000000000000000000000000000000000000000000000000000000000100000000000000000000000000000000000000000000000000000000000000200000000000000000000000000000000000000000000000000000000000000000000000000000000000000000000000000000000000000000000000000000000200000000000000000000000000000000000000000000000000000000000000600000000000000000000000000000000000000000000000000000000000000004fb139f540000000000000000000000000000000000000000000000000000000040599dcf00000000000000000000000000000000000000000000000000000000dd8fe54e00000000000000000000000000000000000000000000000000000000dae36df6000000000000000000000000000000000000000000000000000000000000000000000000000000000000000000000000000000000000000000000000",
        "nonce": "0xc7",
        "chainId": "0x106a"
      },
      "additionalContracts": [],
      "isFixedGasLimit": false
    }
  ],
  "receipts": [
    {
      "status": "0x1",
      "cumulativeGasUsed": "0x1ccc0",
      "logs": [
        {
          "address": "0xfa8c40cf7eac88a9da6d002c44c284be844b020c",
          "topics": [
            "0x8faa70878671ccd212d20771b795c50af8fd3ff6cf27f4bde57e5d4de0aeb673"
          ],
          "data": "0x0000000000000000000000000000000000000000000000000000000000000060000000000000000000000000000000000000000000000000000000000000000000000000000000000000000000000000000000000000000000000000000001a0000000000000000000000000000000000000000000000000000000000000000100000000000000000000000000000000000000000000000000000000000000200000000000000000000000000000000000000000000000000000000000000000000000000000000000000000000000000000000000000000000000000000000200000000000000000000000000000000000000000000000000000000000000600000000000000000000000000000000000000000000000000000000000000004fb139f540000000000000000000000000000000000000000000000000000000040599dcf00000000000000000000000000000000000000000000000000000000dd8fe54e00000000000000000000000000000000000000000000000000000000dae36df6000000000000000000000000000000000000000000000000000000000000000000000000000000000000000000000000000000000000000000000000",
          "blockHash": "0xbca82d7ad417bed8997d40a97a38d15999753c787e51771725a145a0e5c2cb5b",
          "blockNumber": "0xd0ee26",
          "transactionHash": "0xeee88d9fa63c57a3e421f526ef95a3b6a23682be038c23cf1f4df898dbdc8548",
          "transactionIndex": "0x1",
          "logIndex": "0x0",
          "removed": false
        }
      ],
      "logsBloom": "0x00000000000000000000000000000000010000000000000000000000000000000000000000000000000000000000000000000000000000000000000000000000000000000000000000000000000000000000000001000000000800000000000000000000000000000000000000000000000000000000000000000000000000000020000000000000000000000000000000000000000000000000000000000000000000000000000000000000000000020000000000000000000000000000000000000000000000000000000000000000000200000000000000000000000000000000000000000000000000000000000000000000000000000000000000000000",
      "type": "0x2",
      "transactionHash": "0xeee88d9fa63c57a3e421f526ef95a3b6a23682be038c23cf1f4df898dbdc8548",
      "transactionIndex": "0x1",
      "blockHash": "0xbca82d7ad417bed8997d40a97a38d15999753c787e51771725a145a0e5c2cb5b",
      "blockNumber": "0xd0ee26",
      "gasUsed": "0x12181",
      "effectiveGasPrice": "0xfe",
      "from": "0xfb0c1e0a4ded6df74e5caa07924aa3f8272ad0b8",
      "to": "0xfa8c40cf7eac88a9da6d002c44c284be844b020c",
      "contractAddress": null,
      "l1BaseFeeScalar": "0x2af8",
      "l1BlobBaseFee": "0x48",
      "l1BlobBaseFeeScalar": "0x109618",
      "l1Fee": "0x54da702cf0",
      "l1GasPrice": "0x4072452f3",
      "l1GasUsed": "0x77b"
    }
  ],
  "libraries": [],
  "pending": [],
  "returns": {},
  "timestamp": 1732697900,
  "chain": 4202,
  "commit": "d4d5db7"
}