{
  "transactions": [
    {
      "hash": "0x7f751bb9e5dfd0126cc71cd62442e91d1d41218bd44eec3383fbfd818105847a",
      "transactionType": "CREATE2",
      "contractName": "LibDiamond",
      "contractAddress": "0x04afecaa4523c247e8911f31ae0ddfc883aaf425",
      "function": null,
      "arguments": null,
      "transaction": {
        "from": "0xfb0c1e0a4ded6df74e5caa07924aa3f8272ad0b8",
        "to": "0x4e59b44847b379578588920ca78fbf26c0b4956c",
        "gas": "0x2bbb7",
        "input": "0x00000000000000000000000000000000000000000000000000000000000000006080806040523460195761015f908161001e823930815050f35b5f80fdfe6080806040526004361015610012575f80fd5b5f3560e01c908163248a9ca3146100c857506391d1485414610032575f80fd5b60407ffffffffffffffffffffffffffffffffffffffffffffffffffffffffffffffffc3601126100c45760243573ffffffffffffffffffffffffffffffffffffffff81168091036100c4576004355f527fc8fcad8db84d3cc18b4c41d551ea0ee66dd599cde068d998e57d5e09332c132160205260405f20905f52602052602060ff60405f2054166040519015158152f35b5f80fd5b60207ffffffffffffffffffffffffffffffffffffffffffffffffffffffffffffffffc3601126100c4576020906004355f527fc8fcad8db84d3cc18b4c41d551ea0ee66dd599cde068d998e57d5e09332c13218252600160405f2001548152f3fea26469706673582212209328c2c4db005ccca0996f8f1ea4d37ad9e43e05a0fc8dfa07a19069bbab3bae64736f6c634300081a0033",
        "nonce": "0xc8",
        "chainId": "0x106a"
      },
      "additionalContracts": [],
      "isFixedGasLimit": false
    },
    {
      "hash": "0xdb5cb3151206e3caa66ffd33524b9dd37d5dd04e7fa48232ad023f895e18f73e",
      "transactionType": "CREATE",
      "contractName": "AccessControlFacet",
      "contractAddress": "0x48cad6e0ed0b3e1ca1ccb799144fea2a2c0c0d6c",
      "function": null,
      "arguments": null,
      "transaction": {
        "from": "0xfb0c1e0a4ded6df74e5caa07924aa3f8272ad0b8",
        "gas": "0x9d5e5",
        "value": "0x0",
        "input": "0x6080806040523460155761080c908161001a8239f35b5f80fdfe6080806040526004361015610012575f80fd5b5f3560e01c90816301ffc9a714610357575080631e4e009114610230578063248a9ca3146101ec5780632f2ff15d146101c957806336568abe1461016d57806391d14854146100975763d547741f14610069575f80fd5b346100935761009161007a366103dd565b9061008c6100878261049c565b610525565b6106c8565b005b5f80fd5b346100935773ffffffffffffffffffffffffffffffffffffffff6100ba366103dd565b604092919251927f91d1485400000000000000000000000000000000000000000000000000000000845260048401521660248201526020816044817304afecaa4523c247e8911f31ae0ddfc883aaf4255af48015610162575f90610126575b6020906040519015158152f35b506020813d60201161015a575b816101406020938361042e565b810103126100935751801515810361009357602090610119565b3d9150610133565b6040513d5f823e3d90fd5b346100935761017b366103dd565b3373ffffffffffffffffffffffffffffffffffffffff8216036101a157610091916106c8565b7f6697b232000000000000000000000000000000000000000000000000000000005f5260045ffd5b34610093576100916101da366103dd565b906101e76100878261049c565b6105b2565b346100935760207ffffffffffffffffffffffffffffffffffffffffffffffffffffffffffffffffc36011261009357602061022860043561049c565b604051908152f35b346100935760407ffffffffffffffffffffffffffffffffffffffffffffffffffffffffffffffffc36011261009357600435602435906040517f248a9ca30000000000000000000000000000000000000000000000000000000081528160048201526020816024817304afecaa4523c247e8911f31ae0ddfc883aaf4255af48015610162575f90610323575b6102c69150610525565b5f8181527fc8fcad8db84d3cc18b4c41d551ea0ee66dd599cde068d998e57d5e09332c13216020526040812060010180549084905591907fbd79b86ffe0ab8e8776151514217cd7cacd52c909f66475c3af44e129f0b00ff9080a4005b506020813d60201161034f575b8161033d6020938361042e565b81010312610093576102c690516102bc565b3d9150610330565b346100935760207ffffffffffffffffffffffffffffffffffffffffffffffffffffffffffffffffc36011261009357600435907fffffffff000000000000000000000000000000000000000000000000000000008216809203610093577f7965db0b00000000000000000000000000000000000000000000000000000000602092148152f35b7ffffffffffffffffffffffffffffffffffffffffffffffffffffffffffffffffc6040910112610093576004359060243573ffffffffffffffffffffffffffffffffffffffff811681036100935790565b90601f7fffffffffffffffffffffffffffffffffffffffffffffffffffffffffffffffe0910116810190811067ffffffffffffffff82111761046f57604052565b7f4e487b71000000000000000000000000000000000000000000000000000000005f52604160045260245ffd5b604051907f248a9ca300000000000000000000000000000000000000000000000000000000825260048201526020816024817304afecaa4523c247e8911f31ae0ddfc883aaf4255af4908115610162575f916104f6575090565b90506020813d60201161051d575b816105116020938361042e565b81010312610093575190565b3d9150610504565b61057b33825f527fc8fcad8db84d3cc18b4c41d551ea0ee66dd599cde068d998e57d5e09332c132160205273ffffffffffffffffffffffffffffffffffffffff60405f2091165f5260205260ff60405f20541690565b156105835750565b7fe2517d3f000000000000000000000000000000000000000000000000000000005f523360045260245260445ffd5b61060882825f527fc8fcad8db84d3cc18b4c41d551ea0ee66dd599cde068d998e57d5e09332c132160205273ffffffffffffffffffffffffffffffffffffffff60405f2091165f5260205260ff60405f20541690565b6106c257805f527fc8fcad8db84d3cc18b4c41d551ea0ee66dd599cde068d998e57d5e09332c132160205260405f2073ffffffffffffffffffffffffffffffffffffffff83165f5260205260405f2060017fffffffffffffffffffffffffffffffffffffffffffffffffffffffffffffff0082541617905573ffffffffffffffffffffffffffffffffffffffff339216907f2f8788117e7eff1d82e926ec794901d17c78024a50270940304540a733656f0d5f80a4600190565b50505f90565b61071e82825f527fc8fcad8db84d3cc18b4c41d551ea0ee66dd599cde068d998e57d5e09332c132160205273ffffffffffffffffffffffffffffffffffffffff60405f2091165f5260205260ff60405f20541690565b156106c257805f527fc8fcad8db84d3cc18b4c41d551ea0ee66dd599cde068d998e57d5e09332c132160205260405f2073ffffffffffffffffffffffffffffffffffffffff83165f5260205260405f207fffffffffffffffffffffffffffffffffffffffffffffffffffffffffffffff00815416905573ffffffffffffffffffffffffffffffffffffffff339216907ff6391f5c32d9c69d2a47ea670b442974b53935d1edc7fd64eb21e047a839171b5f80a460019056fea264697066735822122041875c83aad7c295b0754167fa801e8d33a5606f5b1f7466f4469c119af3758a64736f6c634300081a0033",
        "nonce": "0xc9",
        "chainId": "0x106a"
      },
      "additionalContracts": [],
      "isFixedGasLimit": false
    },
    {
      "hash": "0xac2a9eb50303975fcb2db70b817a30d2add29e487a2c4dd3fa8b9b2cc51925c9",
      "transactionType": "CALL",
      "contractName": null,
      "contractAddress": "0xfa8c40cf7eac88a9da6d002c44c284be844b020c",
      "function": "diamondCut((address,uint8,bytes4[])[],address,bytes)",
      "arguments": [
        "[(0x48CAd6e0ED0b3E1ca1cCb799144fea2A2C0C0D6C, 1, [0x248a9ca3, 0x2f2ff15d, 0x91d14854, 0x36568abe, 0xd547741f, 0x1e4e0091])]",
        "0x0000000000000000000000000000000000000000",
        "0x"
      ],
      "transaction": {
        "from": "0xfb0c1e0a4ded6df74e5caa07924aa3f8272ad0b8",
        "to": "0xfa8c40cf7eac88a9da6d002c44c284be844b020c",
        "gas": "0x3e7ab",
        "value": "0x0",
        "input": "0x1f931c1c0000000000000000000000000000000000000000000000000000000000000060000000000000000000000000000000000000000000000000000000000000000000000000000000000000000000000000000000000000000000000000000001e00000000000000000000000000000000000000000000000000000000000000001000000000000000000000000000000000000000000000000000000000000002000000000000000000000000048cad6e0ed0b3e1ca1ccb799144fea2a2c0c0d6c000000000000000000000000000000000000000000000000000000000000000100000000000000000000000000000000000000000000000000000000000000600000000000000000000000000000000000000000000000000000000000000006248a9ca3000000000000000000000000000000000000000000000000000000002f2ff15d0000000000000000000000000000000000000000000000000000000091d148540000000000000000000000000000000000000000000000000000000036568abe00000000000000000000000000000000000000000000000000000000d547741f000000000000000000000000000000000000000000000000000000001e4e0091000000000000000000000000000000000000000000000000000000000000000000000000000000000000000000000000000000000000000000000000",
        "nonce": "0xca",
        "chainId": "0x106a"
      },
      "additionalContracts": [],
      "isFixedGasLimit": false
    }
  ],
  "receipts": [
    {
      "status": "0x1",
      "cumulativeGasUsed": "0x2a5c8",
      "logs": [],
      "logsBloom": "0x00000000000000000000000000000000000000000000000000000000000000000000000000000000000000000000000000000000000000000000000000000000000000000000000000000000000000000000000000000000000000000000000000000000000000000000000000000000000000000000000000000000000000000000000000000000000000000000000000000000000000000000000000000000000000000000000000000000000000000000000000000000000000000000000000000000000000000000000000000000000000000000000000000000000000000000000000000000000000000000000000000000000000000000000000000000",
      "type": "0x2",
      "transactionHash": "0x7f751bb9e5dfd0126cc71cd62442e91d1d41218bd44eec3383fbfd818105847a",
      "transactionIndex": "0x1",
      "blockHash": "0x103c75b7b877a2adf73434c55d4a6b34a015fafd797936b70d7b1364ed17912a",
      "blockNumber": "0xd73975",
      "gasUsed": "0x1fa95",
      "effectiveGasPrice": "0xfe",
      "from": "0xfb0c1e0a4ded6df74e5caa07924aa3f8272ad0b8",
      "to": "0x4e59b44847b379578588920ca78fbf26c0b4956c",
      "contractAddress": "0x04afecaa4523c247e8911f31ae0ddfc883aaf425",
      "l1BaseFeeScalar": "0x2af8",
      "l1BlobBaseFee": "0x1",
      "l1BlobBaseFeeScalar": "0x109618",
      "l1Fee": "0x37c6a3a3",
      "l1GasPrice": "0x1296b6c",
      "l1GasUsed": "0x110c"
    },
    {
      "status": "0x1",
      "cumulativeGasUsed": "0xa36a0",
      "logs": [],
      "logsBloom": "0x00000000000000000000000000000000000000000000000000000000000000000000000000000000000000000000000000000000000000000000000000000000000000000000000000000000000000000000000000000000000000000000000000000000000000000000000000000000000000000000000000000000000000000000000000000000000000000000000000000000000000000000000000000000000000000000000000000000000000000000000000000000000000000000000000000000000000000000000000000000000000000000000000000000000000000000000000000000000000000000000000000000000000000000000000000000",
      "type": "0x2",
      "transactionHash": "0xdb5cb3151206e3caa66ffd33524b9dd37d5dd04e7fa48232ad023f895e18f73e",
      "transactionIndex": "0x2",
      "blockHash": "0x103c75b7b877a2adf73434c55d4a6b34a015fafd797936b70d7b1364ed17912a",
      "blockNumber": "0xd73975",
      "gasUsed": "0x790d8",
      "effectiveGasPrice": "0xfe",
      "from": "0xfb0c1e0a4ded6df74e5caa07924aa3f8272ad0b8",
      "to": null,
      "contractAddress": "0x48cad6e0ed0b3e1ca1ccb799144fea2a2c0c0d6c",
      "l1BaseFeeScalar": "0x2af8",
      "l1BlobBaseFee": "0x1",
      "l1BlobBaseFeeScalar": "0x109618",
      "l1Fee": "0xbb7ae010",
      "l1GasPrice": "0x1296b6c",
      "l1GasUsed": "0x394e"
    },
    {
      "status": "0x1",
      "cumulativeGasUsed": "0xce229",
      "logs": [
        {
          "address": "0xfa8c40cf7eac88a9da6d002c44c284be844b020c",
          "topics": [
            "0x8faa70878671ccd212d20771b795c50af8fd3ff6cf27f4bde57e5d4de0aeb673"
          ],
          "data": "0x0000000000000000000000000000000000000000000000000000000000000060000000000000000000000000000000000000000000000000000000000000000000000000000000000000000000000000000000000000000000000000000001e00000000000000000000000000000000000000000000000000000000000000001000000000000000000000000000000000000000000000000000000000000002000000000000000000000000048cad6e0ed0b3e1ca1ccb799144fea2a2c0c0d6c000000000000000000000000000000000000000000000000000000000000000100000000000000000000000000000000000000000000000000000000000000600000000000000000000000000000000000000000000000000000000000000006248a9ca3000000000000000000000000000000000000000000000000000000002f2ff15d0000000000000000000000000000000000000000000000000000000091d148540000000000000000000000000000000000000000000000000000000036568abe00000000000000000000000000000000000000000000000000000000d547741f000000000000000000000000000000000000000000000000000000001e4e0091000000000000000000000000000000000000000000000000000000000000000000000000000000000000000000000000000000000000000000000000",
          "blockHash": "0x103c75b7b877a2adf73434c55d4a6b34a015fafd797936b70d7b1364ed17912a",
          "blockNumber": "0xd73975",
          "transactionHash": "0xac2a9eb50303975fcb2db70b817a30d2add29e487a2c4dd3fa8b9b2cc51925c9",
          "transactionIndex": "0x3",
          "logIndex": "0x0",
          "removed": false
        }
      ],
      "logsBloom": "0x00000000000000000000000000000000010000000000000000000000000000000000000000000000000000000000000000000000000000000000000000000000000000000000000000000000000000000000000001000000000800000000000000000000000000000000000000000000000000000000000000000000000000000020000000000000000000000000000000000000000000000000000000000000000000000000000000000000000000020000000000000000000000000000000000000000000000000000000000000000000200000000000000000000000000000000000000000000000000000000000000000000000000000000000000000000",
      "type": "0x2",
      "transactionHash": "0xac2a9eb50303975fcb2db70b817a30d2add29e487a2c4dd3fa8b9b2cc51925c9",
      "transactionIndex": "0x3",
      "blockHash": "0x103c75b7b877a2adf73434c55d4a6b34a015fafd797936b70d7b1364ed17912a",
      "blockNumber": "0xd73975",
      "gasUsed": "0x2ab89",
      "effectiveGasPrice": "0xfe",
      "from": "0xfb0c1e0a4ded6df74e5caa07924aa3f8272ad0b8",
      "to": "0xfa8c40cf7eac88a9da6d002c44c284be844b020c",
      "contractAddress": null,
      "l1BaseFeeScalar": "0x2af8",
      "l1BlobBaseFee": "0x1",
      "l1BlobBaseFeeScalar": "0x109618",
      "l1Fee": "0x218a49a5",
      "l1GasPrice": "0x1296b6c",
      "l1GasUsed": "0xa40"
    }
  ],
  "libraries": [
    "contracts/libraries/LibDiamond.sol:LibDiamond:0x04AfEcaa4523c247e8911F31aE0ddFc883AAF425"
  ],
  "pending": [],
  "returns": {},
  "timestamp": 1733522912,
  "chain": 4202,
  "commit": "d4d5db7"
}